:020000040800F2
:100000007008002089010008CF190008A516000813
:10001000CD1900088F020008F91D0008000000003B
:10002000000000000000000000000000D3190008DC
:100030009102000800000000D1190008D51900083D
:10004000A3010008A3010008A3010008A301000800
:10005000A3010008A3010008A3010008A3010008F0
:10006000A3010008A3010008A3010008A3010008E0
:10007000A3010008A3010008A3010008A3010008D0
:10008000A3010008A3010008A3010008A3010008C0
:10009000A3010008A3010008A3010008A3010008B0
:1000A000391A00085D1A0008511A0008451A00089C
:1000B000691A0008751A0008A3010008A3010008C6
:1000C000A3010008A3010008A3010008A301000880
:1000D000A3010008E11D0008ED1D0008A3010008B0
:1000E000A3010008A3010008A301000800F002F822
:1000F00000F03AF80AA090E8000C82448344AAF188
:100100000107DA4501D100F02FF8AFF2090EBAE885
:100110000F0013F0010F18BFFB1A43F0010318473B
:100120003C1D00005C1D0000103A24BF78C878C157
:10013000FAD8520724BF30C830C144BF04680C60ED
:10014000704700000023002400250026103A28BF35
:1001500078C1FBD8520728BF30C148BF0B60704739
:100160001FB51FBD10B510BD00F058F81146FFF7C0
:10017000F7FF01F052FE00F076F803B4FFF7F2FF4C
:1001800003BC00F07DF8000009488047094800479B
:10019000FEE7FEE7FEE7FEE7FEE7FEE7FEE7FEE737
:1001A000FEE7FEE704480549054A064B7047000094
:1001B000371A0008ED0000087002002070080020C7
:1001C00070040020700400204FF0000200B51346B8
:1001D00094469646203922BFA0E80C50A0E80C5067
:1001E000B1F12001BFF4F7AF090728BFA0E80C5018
:1001F00048BF0CC05DF804EB890028BF40F8042B11
:1002000008BF704748BF20F8022B11F0804F18BF7D
:1002100000F8012B7047704770477047754600F033
:100220002BF8AE4605006946534620F00700854688
:1002300018B020B5FFF7B6FFBDE820404FF000062C
:100240004FF000074FF000084FF0000B21F00701BE
:10025000AC46ACE8C009ACE8C009ACE8C009ACE801
:10026000C0098D46704710B50446AFF300802046A4
:10027000BDE81040FFF781BF004870470C02002026
:1002800001491820ABBEFEE7260002007047FEE7DA
:10029000704772B6FEE710B590F8211000220229CF
:1002A00005D00421816380F82020012010BD016861
:1002B0000B6823F00E030B6001680B6823F0010349
:1002C0000B6090F84030C46B012101FA03F36360C6
:1002D00080F8211080F82020104610BD10B590F84D
:1002E00021100024022903D00421816301243DE070
:1002F00001680A6822F00E020A6001680A6822F0AA
:1003000001020A601A4A0168914201D1012121E0EB
:10031000174A1432914201D110211BE0144A2832AD
:10032000914201D1891515E0114A3C32914201D127
:1003300089140FE00E4A5032914202D14FF48031BD
:1003400008E00B4A6432914202D14FF4801101E07F
:100350004FF08071064A083A5160012180F821105F
:10036000002180F82010416B01B18847204610BD64
:10037000080002402DE9F84FDFF8B891002409F198
:10038000040A0AF1040B23460F270BF1040EC9E0FF
:100390000125A5402A40AA427DD1674ED1F804C06C
:1003A000ACEB0608B44532D014DCBCF1030F3AD0F4
:1003B00009DCBCF1000F2AD0BCF1010F1CD0BCF14C
:1003C000020F31D11DE0BCF1110F17D0BCF1120F9B
:1003D0002AD119E0B8F5881F19D006DCB8F5803F9E
:1003E00015D0B8F5801F1FD111E0B8F5001F0ED051
:1003F000B8F5041F18D10AE0CB6815E0CB681B1DC7
:1004000012E0CB6808330FE0CB680C330CE08B684C
:100410002BB1012B4FF0080303D0456104E0042306
:1004200002E0056100E00023FF2A01D8064601E052
:1004300000F104064FEA840501D9A5F12005D6F89C
:10044000008007FA05FC28EA0C0803FA05F548EADB
:100450000508C6F800804D68ED0062D5374DAE69DD
:1004600046F00106AE61AD6924F0030605F0010512
:100470000095334D06EB050CDCF80850A607360F47
:1004800007FA06F825EA0805DFF8B880404503D1E9
:100490004FF0000817E044E0DFF8AC80404502D19F
:1004A0004FF001080FE0DFF8A480404502D14FF083
:1004B000020808E0DFF89880404502D14FF00308B9
:1004C00001E04FF0040808FA06F848EA0508CCF8FD
:1004D00008804D68D9F80060ED034D4601D51643FC
:1004E00000E096432E604D68DAF80060AD03554693
:1004F00001D5164300E096432E604D68DBF800609E
:10050000ED025D4601D5164300E096432E604D682E
:10051000DEF80060AD02754601D5164300E0964353
:100520002E60641C0D682A46E5407FF431AFBDE8BB
:10053000F88F00000004014000001110001002407C
:100540000000014000080140000C01400010014083
:10055000001401400AB1016170470904FBE7000083
:1005600001488068704700000000002070B504005A
:1005700025D094F83D00002520B984F83C50204651
:1005800000F0B8F8242084F83D002068016821F0CC
:10059000010101602068016841F4004101602068A8
:1005A000016821F40041016000F002FA4D4A6168DF
:1005B000914201D84C4900E04C49884201D20120C7
:1005C00070BD4B492368B0FBF1F15E6826F03F0631
:1005D0000E435E606368934206D94FF496735943A5
:1005E0004FF47A73B1FBF3F12368491C1E6A26F0BD
:1005F0003F06314319626168914210D84900401E9C
:10060000B0FBF1F2521CC2F30B02042A01D2042007
:1006100022E0B0FBF1F0401CC0F30B001CE0A2682C
:10062000F2B301EBC10303EB0116431EB3FBF6F378
:100630005B1C43F480431B0549D092B301EBC1021C
:1006400002EB0111401EB0FBF1F0401CC0F30B00A7
:1006500040F4804040F400402168CA694CF6FF73C2
:100660009A431043C861D4E9071001432068026827
:1006700022F0C00211430160D4E903010143206864
:10068000826848F2FF339A4311438160D4E905013F
:1006900008432168CA6822F0FF021043C86001E0E5
:1006A0000EE016E02068016841F001010160256458
:1006B000202084F83D00256384F83E50002070BD62
:1006C00001EB4106431EB3FBF6F35B1CB3E70120CD
:1006D000C2E701EB4101401EB0FBF1F0401CC0F34A
:1006E0000B00B7E7A086010080841E0000093D00D2
:1006F00040420F0010B586B0002100910191029197
:1007000003910068104988421BD1104CA06940F049
:100710000800A061A069694600F0080004904FF449
:100720004060009012200190032003900848FFF7DA
:1007300021FEE06940F48000E061E06900F480009F
:10074000049006B010BD00000058004000100240A8
:10075000000C0140024881680278114481607047B2
:1007600000000020074810B5016841F01001016049
:10077000032000F075F80F2000F006F800F024F8D0
:10078000002010BD0020024070B50D4D04464FF40E
:100790007A712878B1FBF0F00A490968B1FBF0F0F2
:1007A00000F0ECFA48B9102C07D200222146501E66
:1007B00000F036F800206C6070BD012070BD0000B4
:1007C000000000200C0000200C4808B5816941F0B1
:1007D00001018161816901F001010091C16941F06C
:1007E0008051C161C06900F08050009004484168A8
:1007F00021F0E06141F00071416008BD001002404D
:1008000000000140002809DB00F01F020121914097
:100810004009800000F1E020C0F80011704700009E
:10082000F0B40E4B1B680C46C3F30223C3F107055B
:10083000042D00D90425191D072901D2002300E049
:10084000DB1E012606FA05F1491E214099409E4013
:10085000761E16403143F0BC01F0CFBA0CED00E03B
:10086000064900F0070208684FF6FF03184040EA07
:100870000220034A10430860704700000CED00E0BE
:100880000000FA052DE9F0470F46050061D0434E00
:10089000306800F00700B84209D2306820F0070045
:1008A00038433060306800F00700B84251D1286802
:1008B0003B4C810712D5400703D5606840F4E060E7
:1008C00060602878000703D5606840F4605060607D
:1008D0006068A96820F0F000084360602878C007CD
:1008E00028D06868012810D02168022810D0890714
:1008F00000292EDA616821F0030101436160FFF7EE
:100900002FFE804641F288390DE021688903EFE728
:100910008901EDE7FFF724FEA0EB0801494502D964
:100920000320BDE8F0876068696800F00C00B0EB58
:10093000810FEFD1306800F00700B8420BD9306862
:1009400020F0070038433060306800F00700B842FC
:1009500001D00120E5E72878400705D56068E968FF
:1009600020F4E060084360602878000706D56068DE
:10097000296920F4605040EAC100606000F038F856
:100980006168084AC1F30311515CC8400649086018
:1009900006480068FFF7F8FE0020C2E7002002408A
:1009A00000100240441E00080C000020040000203B
:1009B0000448054900684968044AC1F30221515CB2
:1009C000C84070470C00002000100240541E000870
:1009D0000448054900684968044AC1F3C221515CD2
:1009E000C84070470C00002000100240541E000850
:1009F00012A185B00FC98DE80F0014A0144A006839
:100A000004905168134801F00C03042B10D0082BFC
:100A10000ED1C1F38343C9031DF803000AD5516801
:100A200004AAC1F34041515C0A4A5043B0FBF1F0C3
:100A300005B0704708494843FAE70000020304057F
:100A4000060708090A0B0C0D0E0F1010010200001A
:100A50000010024000127A0000093D002DE9F84F15
:100A6000040070D02078C04DC00749D06868C0F33A
:100A70008100012807D06868C0F38100022809D1ED
:100A80006868C00306D52868800339D560680028E7
:100A9000E7D035E06068B0F5803F0BD010B1B0F51D
:100AA000A02F11D0286820F480302860286820F416
:100AB000802002E0286840F480302860606890B1AF
:100AC000FFF74EFD06460AE0286840F480202860C3
:100AD000F0E700BFFFF744FD801B642873D8286847
:100AE0008003F7D50CE0FFF73BFD064605E000BFAD
:100AF000FFF736FD801B6428F0D828688003F7D400
:100B000020789A4E80074FF001094FF0000839D540
:100B1000686810F00C0F07D06868C0F381000228E5
:100B200009D16868C00306D42868800714D52069F5
:100B3000012808D110E02069B0B1C6F80090FFF795
:100B40000FFD074605E00AE1FFF70AFDC01B02287A
:100B5000C4D828688007F7D52868616920F0F800B4
:100B600040EAC10028600DE0C6F80080FFF7F8FCFD
:100B7000074604E0FFF7F4FCC01B022823D82868CE
:100B80008007F7D4207800072CD57948A169D9B11E
:100B9000C0F80090FFF7E4FC074604E0FFF7E0FC34
:100BA000C01B02280FD8686A8007F7D571484FF438
:100BB000FA510068B0FBF1F0009000BF0098411EB0
:100BC0000091FAD20EE080E0C0F80080FFF7C8FC88
:100BD000074604E0FFF7C4FCC01B022875D8686A0A
:100BE0008007F7D42078400760D5E8690027C00067
:100BF00008D4E86940F08050E861E869012700F016
:100C0000805000905C480168C90513D40168834690
:100C100041F480710160FFF7A3FC824606E000BF4B
:100C2000FFF79EFCA0EB0A0064284ED8DBF800001A
:100C3000C005F5D5E06801280AD008B1052813D011
:100C4000286A20F001002862286A20F0040002E0EF
:100C5000286A40F001002862E06841F2883B98B1C0
:100C6000FFF77EFC82460BE0286A40F00400286211
:100C7000EEE700BFFFF774FCA0EB0A0159455AD814
:100C8000286A8007F6D50CE0FFF76AFC824605E08B
:100C9000FFF766FCA0EB0A0159454CD8286A80078B
:100CA000F6D41FB1E86920F08050E861E06988B3AC
:100CB0006968C1F38101022944D00228C6F8608026
:100CC00004D0FFF74DFC044638E034E0FFF748FC61
:100CD000074604E0FFF744FCC01B02282BD8286815
:100CE0008001F7D4206AB0F5803F05D16868A1681B
:100CF00020F4003008436860D4E9080108436968BB
:100D000021F4741108436860C6F86090FFF728FC6E
:100D1000044606E025E000BFFFF722FC001B022886
:100D200009D828688001F7D51BE000BFFFF718FC41
:100D3000001B022802D90320BDE8F88F2868800133
:100D4000F4D40EE00128F7D06868226A00F48031FC
:100D5000914204D1616A00F47010884201D00120F0
:100D6000EAE70020E8E700000010024000004242ED
:100D7000800442420C0000200070004010B5401E6C
:100D8000B0F1807F01D3012010BD4FF0E0246061FD
:100D90000F21601701F031F80020A06107202061C9
:100DA000002010BD7047704710B590F83C20012A14
:100DB00022D0012280F83C20CA688C6822F440725C
:100DC00022434C6822F4806222430C6822F40062C1
:100DD00022430C6922F4805222434C6922F40052CF
:100DE0002243C969002322F480420A4301684A640D
:100DF00080F83C30002010BD022010BD70B590F886
:100E00003C20012A26D0012480F83C40022280F8B0
:100E10003D2003685A689D6822F070060A683243D4
:100E20005A600D4B02689A4208D0B2F1804F05D04B
:100E30000A4B9A4202D00A4B9A4204D1496825F0E3
:100E400080031943916080F83D40002180F83C10F8
:100E5000084670BD022070BD002C01400004004017
:100E6000000800402DE9F0410D46040003D094F83D
:100E70003D0018B108E00120BDE8F081002084F8B1
:100E80003C00204600F040F8022084F83D00206835
:100E9000816844F2070291438160211D206800F0BF
:100EA000EFFD226890689169166A2B68AF69034369
:100EB00040F20330814341EA0721A868EF69084303
:100EC0004FF6FC418843E96840EA0720014328695E
:100ED0002F6A000140EA0730084369686D6926F00F
:100EE000220646EA0515294393602268906154F86A
:100EF000460B0162012004F81F09E0752076E076B8
:100F00002077A0750020B7E700B585B000210091DB
:100F1000019102910391026821492248B2F1804F68
:100F200022D0214B9A421DD1CA6942F00202CA6105
:100F3000CA6902F0020204928A6942F004028A61DC
:100F4000896901F004010491C02100916946FFF70D
:100F500011FA002211461D20FFF762FC5FF01D0010
:100F6000FFF750FC05B000BDCA6942F00102CA613A
:100F7000CA6902F0010204928A6942F004028A619D
:100F8000896901F004010491032100916946FFF78A
:100F9000F1F9002211461C20FFF742FC1C20DFE77C
:100FA000001002400008014000040040704770B586
:100FB0000446006801694FF00005C943890715D44C
:100FC000C168C943890711D4E91E01610120207756
:100FD000206880698007204602D0FFF7E7FF04E021
:100FE00000F0D4F8204600F0A5F9257720680169C3
:100FF000C943490717D4C168C943490713D46FF0DF
:1010000004010161022020772068806910F4407F8C
:10101000204602D0FFF7CAFF04E000F0B7F82046F0
:1010200000F088F9257720680169C943090716D4BB
:10103000C168C943090712D46FF008010161042097
:1010400020772068C0698007204602D0FFF7AEFFF6
:1010500004E000F09BF8204600F06CF9257720684A
:101060000169C943C90617D4C168C943C90613D465
:101070006FF010010161082020772068C06910F42A
:10108000407F204602D0FFF791FF04E000F07EF899
:10109000204600F04FF9257720680169C943C90748
:1010A00008D1C168C943C90704D1891E016120461E
:1010B00000F041F920680169C943090609D4C168F3
:1010C000C943090605D46FF0800101612046FFF78E
:1010D00069FE20680169C943490609D4C168C9434A
:1010E000490605D46FF040010161204600F024F963
:1010F00020680169C94389060BD4C168C9438906C0
:1011000007D46FF0200101612046BDE87040FFF771
:101110004ABE70BD00B585B00021009101910291D9
:101120000391154B0268154802219A420FD182693A
:1011300042F0040282618069039100F0040004908F
:101140004FF44070CDE9000169460D4810E00D4BA9
:101150009A420FD1826942F008028261806903914C
:1011600000F0080004909815CDE900016946064892
:10117000FFF700F905B000BD002C0140001002404F
:101180000008014000080040000C0140704770B5A5
:10119000044690F83C000D4601280AD0012084F84E
:1011A0003C0042B1042A18D0082A2AD00C2A4DD17A
:1011B00039E0022070BD206800F098FC2068816949
:1011C00041F0080181612068816921F00401816199
:1011D000206881692A69114311E0206800F0AEFCA3
:1011E0002068816941F4006181612068816921F48E
:1011F00080618161206881692A6941EA02218161F7
:1012000024E0206800F0C6FC2068C16941F00801B4
:10121000C1612068C16921F00401C1612068C16910
:101220002A69114311E0206800F0E0FC2068C169E0
:1012300041F40061C1612068C16921F48061C1612C
:101240002068C1692A6941EA0221C161002084F84D
:101250003C0070BD10B5040003D094F83D0010B1FF
:1012600007E0012010BD002084F83C00204600F07B
:101270001FF8022084F83D00211D206800F000FCCA
:10128000012084F8460084F83E0084F83F0084F88A
:10129000400084F8410084F8420084F8430084F858
:1012A000440084F8450084F83D00002010BD000093
:1012B00008B51D4A01681D48914229D1816941F450
:1012C000006181618069002200F400600090114695
:1012D0001820FFF7A5FA1820FFF794FA002211460C
:1012E0001920FFF79DFA1920FFF78CFA002211460A
:1012F0001A20FFF795FA1A20FFF784FA0022114608
:101300001B20FFF78DFABDE808401B20FFF77ABAD3
:10131000074A914207D1C16941F00401C161C06926
:1013200000F00400009008BD002C014000100240B5
:1013300000080040704770477047704770470000D2
:10134000F8B5026804461068D168536910F00F0FB1
:101350004FF0000553D003F0010601F490773743B6
:101360005FD0C20705D0CA0503D5226C42F0010246
:101370002264420705D5DA0703D0226C42F002024C
:101380002264820705D5DA0703D0226C42F00402FA
:101390002264020707D501F02002324303D0226CF9
:1013A00042F008022264226C002A34D0800604D560
:1013B000880602D5204600F05BFC20684069216C5D
:1013C000C0F38010090700D430B3204600F038FC89
:1013D0002068416949061BD5416921F040014161FE
:1013E000A06BA8B158494163A06BFEF777FF0028B6
:1013F00011D0A06B416B01B0BDE8F04008478306F7
:101400000FD58B060DD52046BDE8F84000F030BC66
:101410002046FFF793FFF8BD2046FFF78FFF2564B6
:10142000F8BD266B2023012E52D1C60650D5CE061C
:101430004ED5106850680090506940062AD5A16BBF
:10144000086840680004000CEAD0A68D8642E7D9FF
:10145000E0858869202818D0D06820F48070D0609A
:101460002068416921F0010141612068416921F052
:101470004001416184F83E3025632068C16821F055
:101480001001C160A06BFEF706FFA08DE18D401A30
:1014900081B219E0A08DE18D401A81B2E08D002863
:1014A000BED00029BCD0D06820F49070D0602068F5
:1014B000426922F00102426184F83E3025632068CF
:1014C000C26822F01002C2602046FFF736FFF8BD66
:1014D00005062BD50D0629D594F83D002128F6D117
:1014E000A068B0F5805F01D12069B0B1206A411CCD
:1014F0002162216800784860E08C401E0004000CE6
:10150000E084E4D12068C16821F08001C1602068D6
:10151000C16841F04001C160F8BD206A0088C0F395
:1015200008005060206A801C2062E5E74006F3D581
:101530004806F1D5D168204621F04001D16084F8F9
:101540003D3000F0AEF8F8BD311C000870B5040065
:1015500004D094F83D00002510B106E0012070BDD4
:1015600084F83C50204600F023F8242084F83D0005
:101570002068C16821F40051C160204600F0D4FB0E
:101580002068016921F4904101612068416921F0DE
:101590002A0141612068C16841F40051C16025649D
:1015A000202084F83D0084F83E00002070BD00003B
:1015B00030B585B000240094019402940394324D18
:1015C0000368324802210322AB422ED1836943F4DF
:1015D00080438361836903F480430493836943F008
:1015E0000803836180692A4D00F0080004904020C0
:1015F000CDE90001039269462846FEF7BBFE802034
:10160000CDE90004694628460294FEF7B3FE21485E
:10161000416841F0E06141F004014160002211465F
:101620002520FFF7FDF8252029E01B4DAB4228D1EE
:10163000C36943F40033C361C36903F40033049303
:10164000836943F0040383618069144D00F0040052
:1016500004900420CDE90001039269462846FEF774
:1016600089FE0820CDE90004694628460294FEF769
:1016700081FE002211462620FFF7D2F82620FFF730
:10168000C1F805B030BD0000003801400010024034
:10169000000C0140000001400044004000080140EF
:1016A00070477047FEE7000070B586B000241C4804
:1016B0000094019402940394816941F020018161B6
:1016C000816901F020010491816941F00401816187
:1016D000816901F004010491816941F0080181618F
:1016E0008069104E00F008004FF2180504900022A7
:1016F00029463046FEF72EFF0720CDE90004694653
:1017000030460294FEF736FE01200095CDE9010433
:101710000220039069463046FEF72CFE06B070BDED
:1017200000100240000C01400D4810B50B4901604B
:101730000C49416000214FF480428160C0E90312EE
:1017400041618161C1610162FEF710FF002803D091
:10175000BDE81040FEF79DBD10BD000000580040E0
:1017600010000020A086010010B592B000240F9454
:101770001C2168461094FEF727FD202107A8FEF7DC
:1017800023FD2448224901604721C0E9011440F2A9
:10179000E731C0E9031444618461FFF75BFD08B1E0
:1017A000FEF777FD0F940FA91A481094FFF726FB58
:1017B00008B1FEF76EFD6020CDE9000402940394A9
:1017C000049405940022694612480694FFF7DFFC52
:1017D00008B1FEF75EFD042269460E48FFF7D7FC0C
:1017E00008B1FEF756FD0794089409944FF4005091
:1017F0000A94CDE90B4007A906480E94FFF7D4FAE6
:1018000008B1FEF746FD0348FFF784FC12B010BD97
:10181000002C01406400002010B58CB024216846E3
:10182000FEF7D2FC0024154809944FF080410A9439
:10183000C0E900144FF6FF71C0E902410461846100
:101840000320CDE900040120CDE902040494CDE990
:1018500005400794694609480894FFF703FB08B15F
:10186000FEF717FD099409A904480A94FFF7C6FA80
:10187000002801D0FEF70DFD0CB010BDAC0000201B
:1018800010B58CB024216846FEF79EFC0024154854
:10189000099413490A94C0E900144FF6FF71C0E996
:1018A0000241046184610120CDE90004CDE9020414
:1018B0000494CDE90540079469460A480894FFF767
:1018C000D1FA08B1FEF7E5FC099409A905480A9484
:1018D000FFF794FA002801D0FEF7DBFC0CB010BD36
:1018E00000040040F400002010B58AB000240794E2
:1018F0001C2168460894FEF767FC174815490160EB
:101900004721C0E9011444F61F61C0E90314802196
:101910008161FFF79FFC08B1FEF7BBFC079407A9A4
:101920000D480894FFF76AFA08B1FEF7B2FC602090
:10193000CDE9000402940822694607480494FFF7A1
:1019400026FC08B1FEF7A5FC0348FFF7E3FB0AB04D
:1019500010BD0000000800403C0100200C4810B5FC
:101960000A4901604FF4E1314160002181600C229D
:10197000C160C0E904128161C161FFF7E7FD002881
:1019800003D0BDE81040FEF784BC10BD0038014014
:10199000840100200C4810B50A4901604FF4E13180
:1019A0004160002181600C22C160C0E904128161A4
:1019B000C161FFF7CBFD002803D0BDE81040FEF762
:1019C00068BC10BD00440040C8010020FEE7FEE7EF
:1019D00070477047FEF7BEBE30B58FB0282168460D
:1019E000FEF7F2FB14210AA8FEF7EEFB0121080422
:1019F000CDE900100024029402250491CDE907509E
:101A00004FF4E01009906846FFF728F808B172B665
:101A1000FEE70F20CDE90A054FF48060CDE90C40C8
:101A200002210AA80E94FEF72DFF002801D072B6FD
:101A3000FEE70FB030BD70470148FFF7B8BA0000AD
:101A4000640000200148FFF7B2BA000064000020E3
:101A50000148FFF7ACBA0000640000200148FFF71E
:101A6000A6BA0000640000200148FFF7A0BA0000F9
:101A7000AC0000200148FFF79ABA0000F4000020F3
:101A8000F0B50268164B174C174D4FF0804798423F
:101A900005D0B84203D0A04201D0A84203D122F021
:101AA00070064A683243984205D0B84203D0A0423B
:101AB00001D0A84203D122F44074CA6822434C6981
:101AC00022F08002224302608A68C2620A6882624F
:101AD000984201D10969016301214161F0BD000013
:101AE000002C0140000400400008004030B5026AAC
:101AF00022F001020262026A4368846924F07305DD
:101B00000C682C4322F002058A682A430A4DA84239
:101B10000BD122F00805CA6823F440732A434D69AB
:101B200022F004021D438B692B43436084614968A2
:101B30004163026230BD0000002C014030B5026AF2
:101B400022F010020262026A436884690D6824F47C
:101B5000E64444EA05248D6822F0200242EA051298
:101B60000B4DA8420ED1CD6822F0800242EA051248
:101B70004D6923F4406343EA85038D6922F04002F6
:101B800043EA85034360846149688163026230BD32
:101B9000002C014030B5026A22F480720262036AAE
:101BA0004268C46923F4007324F073050C682C4365
:101BB0008D6843EA05230C4DA8420ED1CD6823F46D
:101BC000006343EA05234D6922F4405242EA0512BC
:101BD0008D6923F4806342EA05124260C46149685A
:101BE000C163036230BD0000002C014030B5026AC1
:101BF00022F480520262046A4268C3690D6823F4C9
:101C0000E64343EA05238D6824F4005444EA05348E
:101C1000064DA84204D14D6922F4804242EA851261
:101C20004260C36149680164046230BD002C014018
:101C300010B5406A0021C185C184FFF77FFB10BD4C
:101C40000168CA6822F49072CA6001684A6922F089
:101C500001024A61016B012904D10168CA6822F0BE
:101C60001002CA60202180F83E10002101637047F5
:101C700008B590F83E10222901D0022008BD8268E4
:101C80004FF480539A4201D1016921B1816A9A428D
:101C90001BD04AB10AE00268816A5268C2F30802A6
:101CA0000A80816A891C08E0026972B10268526880
:101CB00002F07F020A70816A491C8162C18D491E4F
:101CC0000904090CC18503D019E002685268F1E7E4
:101CD0000168CA6822F02002CA600168CA6822F45A
:101CE0008072CA6001684A6922F001024A612021BB
:101CF00080F83E10016B012903D0FFF7D1FC0020D2
:101D000008BD002101630168CA6822F01002CA60A0
:101D100001680A68D20602D50A6849680091818D77
:101D2000FFF70BFBEBE7000070B5044600680169A4
:101D3000E26821F44051114301612169A068084320
:101D4000616908432168CA6841F20C639A430243FF
:101D5000CA6020684169A26921F440711143416160
:101D60001E492068884202D1FEF732FE01E0FEF7EC
:101D70001FFE00EBC00101EB0012606864218000CF
:101D8000B2FBF0F3B3FBF1F36FF018067343B2FB51
:101D9000F0F5B2FBF0F605EB8305322303EB0515F6
:101DA000B5FBF1F5B6FBF1F605F0F00505EB061510
:101DB000B2FBF0F6B2FBF0F0B0FBF1F06FF01802FE
:101DC000504306EB800003EB0010B0FBF1F02168FC
:101DD00000F00F002844886070BD0000003801400A
:101DE0000148FFF7ADBA0000840100200148FFF769
:101DF000A7BA0000C8010020FEE70907090E002865
:101E000004DB00F1E02080F80014704700F00F00C0
:101E100000F1E02080F8141D7047FEF7A3FCFFF7E7
:101E2000DBFDFFF741FCFFF77FFCFFF79DFCFFF7B1
:101E3000F3FCFFF725FDFFF757FDFFF78FFDFFF7D9
:101E4000A9FDFEE7000000000000000001020304FD
:101E50000607080900000000010203047C1E0008B8
:101E60000000002010000000280100088C1E00085F
:101E7000100000206008000044010008010000007C
:0C1E800010000000000000000024F4002E
:04000005080000ED02
:00000001FF
