:020000040800F2
:10000000180B0020010100080D1F0008151A000838
:10001000F51D000899010008CD2700080000000028
:10002000000000000000000000000000892200081D
:10003000B5010008000000005D220008F122000860
:100040001B0100081B0100081B0100081B01000820
:100050001B0100081B0100081B0100081B01000810
:100060001B0100081B0100081B0100081B01000800
:100070001B0100081B0100081B0100081B010008F0
:100080001B0100081B0100081B0100081B010008E0
:100090001B0100081B0100081B0100081B010008D0
:1000A00055230008792300086D2300086123000808
:1000B00085230008912300081B0100081B0100088C
:1000C0001B0100081B0100081B0100081B010008A0
:1000D0001B010008B5270008C12700081B01000804
:1000E0001B0100081B0100081B010008DFF80CD0F1
:1000F00000F040F8004800479D290008180B002038
:100100000648804706480047FEE7FEE7FEE7FEE7B1
:10011000FEE7FEE7FEE7FEE7FEE7FEE75323000803
:10012000ED000008D2B201E000F8012B491EFBD21D
:1001300070470022F6E710B513460A4604461946F2
:10014000FFF7F0FF204610BD30B50B4601460020FA
:100150002022012409E021FA02F59D4205D303FA89
:1001600002F5491B04FA02F52844151EA2F101020A
:10017000F1DC30BD064C074D06E0E06840F00103BD
:1001800094E8070098471034AC42F6D3FFF7B2FF6B
:1001900088420008A8420008FEE70000C0EB0010FB
:1001A00080004FF4C36190FBF1F001490860704793
:1001B000240000207047000010B53C21044800F0E6
:1001C000ABFEBDE810403C21024800F0A5BE000097
:1001D000380100208001002072B6FEE710B590F8CB
:1001E00021100022022905D00421816380F82020FB
:1001F000012010BD01680B6823F00E030B6001683D
:100200000B6823F001030B6090F84030C46B0121B0
:1002100001FA03F3636080F8211080F82020104673
:1002200010BD000010B590F821100024022903D061
:100230000421816301243DE001680A6822F00E0276
:100240000A6001680A6822F001020A601A4A01681D
:10025000914201D1012121E0174A1432914201D18A
:1002600010211BE0144A2832914201D1891515E072
:10027000114A3C32914201D189140FE00E4A5032AA
:10028000914202D14FF4803108E00B4A643291422E
:1002900002D14FF4801101E04FF08071064A083A14
:1002A0005160012180F82110002180F82010416B5D
:1002B00001B18847204610BD0800024070B50446D1
:1002C00000F004F90546601C02D00448007804449C
:1002D00000F0FCF8401BA042FAD370BD14000020CF
:1002E0002DE9F84FDFF8B891002409F1040A0AF16A
:1002F000040B23460F270BF1040EC9E00125A5408E
:100300002A40AA427DD1674ED1F804C0ACEB060862
:10031000B44532D014DCBCF1030F3AD009DCBCF197
:10032000000F2AD0BCF1010F1CD0BCF1020F31D15B
:100330001DE0BCF1110F17D0BCF1120F2AD119E04A
:10034000B8F5881F19D006DCB8F5803F15D0B8F590
:10035000801F1FD111E0B8F5001F0ED0B8F5041FA3
:1003600018D10AE0CB6815E0CB681B1D12E0CB6802
:1003700008330FE0CB680C330CE08B682BB1012BFA
:100380004FF0080303D0456104E0042302E0056157
:1003900000E00023FF2A01D8064601E000F1040630
:1003A0004FEA840501D9A5F12005D6F8008007FAA7
:1003B00005FC28EA0C0803FA05F548EA0508C6F822
:1003C00000804D68ED0062D5374DAE6946F00106FC
:1003D000AE61AD6924F0030605F001050095334DCB
:1003E00006EB050CDCF80850A607360F07FA06F8EE
:1003F00025EA0805DFF8B880404503D14FF0000832
:1004000017E044E0DFF8AC80404502D14FF001082E
:100410000FE0DFF8A480404502D14FF0020808E069
:10042000DFF89880404502D14FF0030801E04FF01B
:10043000040808FA06F848EA0508CCF808804D6870
:10044000D9F80060ED034D4601D5164300E0964310
:100450002E604D68DAF80060AD03554601D51643AD
:1004600000E096432E604D68DBF80060ED025D46CB
:1004700001D5164300E096432E604D68DEF800601B
:10048000AD02754601D5164300E096432E60641C0C
:100490000D682A46E5407FF431AFBDE8F88F0000D3
:1004A0000004014000001110001002400000014053
:1004B00000080140000C0140001001400014014000
:1004C0000AB1016170470904FBE700000148806838
:1004D000704700001400002070B5040025D094F887
:1004E0003D00002520B984F83C50204600F0B8F8C3
:1004F000242084F83D002068016821F0010101609A
:100500002068016841F4004101602068016821F41D
:100510000041016000F002FA4D4A6168914201D841
:100520004C4900E04C49884201D2012070BD4B4942
:100530002368B0FBF1F15E6826F03F060E435E6073
:100540006368934206D94FF4967359434FF47A7314
:10055000B1FBF3F12368491C1E6A26F03F063143C4
:1005600019626168914210D84900401EB0FBF1F257
:10057000521CC2F30B02042A01D2042022E0B0FB79
:10058000F1F0401CC0F30B001CE0A268F2B301EBD9
:10059000C10303EB0116431EB3FBF6F35B1C43F4EC
:1005A00080431B0549D092B301EBC10202EB01115C
:1005B000401EB0FBF1F0401CC0F30B0040F4804043
:1005C00040F400402168CA694CF6FF739A43104317
:1005D000C861D4E9071001432068026822F0C00214
:1005E00011430160D4E9030101432068826848F2A5
:1005F000FF339A4311438160D4E905010843216820
:10060000CA6822F0FF021043C86001E00EE016E065
:100610002068016841F0010101602564202084F810
:100620003D00256384F83E50002070BD01EB41067B
:10063000431EB3FBF6F35B1CB3E70120C2E701EBFB
:100640004101401EB0FBF1F0401CC0F30B00B7E7C6
:10065000A086010080841E0000093D0040420F007A
:1006600010B586B0002100910191029103910068BC
:10067000104988421BD1104CA06940F00800A061CD
:10068000A069694600F0080004904FF440600090B3
:1006900012200190032003900848FFF721FEE06933
:1006A00040F48000E061E06900F48000049006B04E
:1006B00010BD00000058004000100240000C014036
:1006C000024881680278114481607047140000205C
:1006D000074810B5016841F010010160032000F0E7
:1006E00075F80F2000F006F800F024F8002010BD87
:1006F0000020024070B50D4D04464FF47A71287801
:10070000B1FBF0F00A490968B1FBF0F000F0ECFA37
:1007100048B9102C07D200222146501E00F036F8AE
:1007200000206C6070BD012070BD0000140000202E
:10073000200000200C4808B5816941F00101816169
:10074000816901F001010091C16941F08051C161ED
:10075000C06900F0805000900448416821F0E061D9
:1007600041F00071416008BD0010024000000140EE
:10077000002809DB00F01F020121914040098000A0
:1007800000F1E020C0F8001170470000F0B40E4BFB
:100790001B680C46C3F30223C3F10705042D00D9DF
:1007A0000425191D072901D2002300E0DB1E0126C4
:1007B00006FA05F1491E214099409E40761E1640DA
:1007C0003143F0BC02F014B80CED00E0064900F033
:1007D000070208684FF6FF03184040EA0220034A68
:1007E00010430860704700000CED00E00000FA05BF
:1007F0002DE9F0470F46050061D0434E306800F008
:100800000700B84209D2306820F007003843306052
:10081000306800F00700B84251D128683B4C81078E
:1008200012D5400703D5606840F4E0606060287826
:10083000000703D5606840F4605060606068A96894
:1008400020F0F000084360602878C00728D068686E
:10085000012810D02168022810D0890700292EDA3B
:10086000616821F0030101436160FFF72FFE8046BC
:1008700041F288390DE021688903EFE78901EDE74E
:10088000FFF724FEA0EB0801494502D90320BDE88B
:10089000F0876068696800F00C00B0EB810FEFD161
:1008A000306800F00700B8420BD9306820F007002C
:1008B00038433060306800F00700B84201D00120B2
:1008C000E5E72878400705D56068E96820F4E0602E
:1008D000084360602878000706D56068296920F41D
:1008E000605040EAC100606000F038F86168084A72
:1008F000C1F30311515CC84006490860064800680E
:10090000FFF7F8FE0020C2E700200240001002407E
:10091000B02A0008200000201800002004480549E3
:1009200000684968044AC1F30221515CC84070471D
:100930002000002000100240C02A00080448054999
:1009400000684968044AC1F3C221515CC84070473D
:100950002000002000100240C02A000812A185B02B
:100960000FC98DE80F0014A0144A00680490516864
:10097000134801F00C03042B10D0082B0ED1C1F347
:100980008343C9031DF803000AD5516804AAC1F3C3
:100990004041515C0A4A5043B0FBF1F005B070474A
:1009A00008494843FAE7000002030405060708095E
:1009B0000A0B0C0D0E0F1010010200000010024077
:1009C00000127A0000093D002DE9F84F040070D0B4
:1009D0002078C04DC00749D06868C0F38100012865
:1009E00007D06868C0F38100022809D16868C00395
:1009F00006D52868800339D560680028E7D035E03F
:100A00006068B0F5803F0BD010B1B0F5A02F11D0C9
:100A1000286820F480302860286820F4802002E0D4
:100A2000286840F480302860606890B1FFF74EFD80
:100A300006460AE0286840F480202860F0E700BFFE
:100A4000FFF744FD801B642873D828688003F7D51E
:100A50000CE0FFF73BFD064605E000BFFFF736FD63
:100A6000801B6428F0D828688003F7D420789A4E39
:100A700080074FF001094FF0000839D5686810F081
:100A80000C0F07D06868C0F38100022809D168689C
:100A9000C00306D42868800714D52069012808D12E
:100AA00010E02069B0B1C6F80090FFF70FFD0746CF
:100AB00005E00AE1FFF70AFDC01B0228C4D8286838
:100AC0008007F7D52868616920F0F80040EAC10086
:100AD00028600DE0C6F80080FFF7F8FC074604E048
:100AE000FFF7F4FCC01B022823D828688007F7D43E
:100AF000207800072CD57948A169D9B1C0F80090B9
:100B0000FFF7E4FC074604E0FFF7E0FCC01B022807
:100B10000FD8686A8007F7D571484FF4FA5100681A
:100B2000B0FBF1F0009000BF0098411E0091FAD296
:100B30000EE080E0C0F80080FFF7C8FC074604E044
:100B4000FFF7C4FCC01B022875D8686A8007F7D479
:100B50002078400760D5E8690027C00008D4E8691C
:100B600040F08050E861E869012700F08050009073
:100B70005C480168C90513D40168834641F480715B
:100B80000160FFF7A3FC824606E000BFFFF79EFC72
:100B9000A0EB0A0064284ED8DBF80000C005F5D5AC
:100BA000E06801280AD008B1052813D0286A20F08F
:100BB00001002862286A20F0040002E0286A40F060
:100BC00001002862E06841F2883B98B1FFF77EFCA3
:100BD00082460BE0286A40F004002862EEE700BF7E
:100BE000FFF774FCA0EB0A0159455AD8286A800720
:100BF000F6D50CE0FFF76AFC824605E0FFF766FCDD
:100C0000A0EB0A0159454CD8286A8007F6D41FB1D9
:100C1000E86920F08050E861E06988B36968C1F351
:100C20008101022944D00228C6F8608004D0FFF771
:100C30004DFC044638E034E0FFF748FC074604E08A
:100C4000FFF744FCC01B02282BD828688001F7D48A
:100C5000206AB0F5803F05D16868A16820F40030B3
:100C600008436860D4E908010843696821F47411F5
:100C700008436860C6F86090FFF728FC044606E069
:100C800025E000BFFFF722FC001B022809D82868D6
:100C90008001F7D51BE000BFFFF718FC001B0228FE
:100CA00002D90320BDE8F88F28688001F4D40EE053
:100CB0000128F7D06868226A00F48031914204D19B
:100CC000616A00F47010884201D00120EAE7002038
:100CD000E8E7000000100240000042428004424267
:100CE000200000200070004010B5401EB0F1807F51
:100CF00001D3012010BD4FF0E02460610F21601787
:100D000001F076FD0020A06107202061002010BDC9
:100D10007047704710B590F83C20012A22D001227C
:100D200080F83C20CA688C6822F4407222434C68E8
:100D300022F4806222430C6822F4006222430C6990
:100D400022F4805222434C6922F400522243C969A2
:100D5000002322F480420A4301684A6480F83C3050
:100D6000002010BD022010BD70B590F83C20012A73
:100D700026D0012480F83C40022280F83D20036800
:100D80005A689D6822F070060A6832435A600D4B1B
:100D900002689A4208D0B2F1804F05D00A4B9A42BD
:100DA00002D00A4B9A4204D1496825F080031943C6
:100DB000916080F83D40002180F83C10084670BDED
:100DC000022070BD002C01400004004000080040DB
:100DD0002DE9F0410D46040003D094F83D0018B110
:100DE00008E00120BDE8F081002084F83C002046A6
:100DF00000F040F8022084F83D002068816844F249
:100E0000070291438160211D206801F0C7FA226822
:100E100090689169166A2B68AF69034340F203300A
:100E2000814341EA0721A868EF6908434FF6FC4176
:100E30008843E96840EA0720014328692F6A0001D6
:100E400040EA0730084369686D6926F0220646EAE1
:100E50000515294393602268906154F8460B01629E
:100E6000012004F81F09E0752076E0762077A07550
:100E70000020B7E700B585B00021009101910291F3
:100E80000391026821492248B2F1804F22D0214BC0
:100E90009A421DD1CA6942F00202CA61CA6902F0CF
:100EA000020204928A6942F004028A61896901F0AF
:100EB00004010491C02100916946FFF711FA002254
:100EC00011461D20FFF762FC5FF01D00FFF750FC8C
:100ED00005B000BDCA6942F00102CA61CA6902F0E8
:100EE000010204928A6942F004028A61896901F070
:100EF00004010491032100916946FFF7F1F90022F2
:100F000011461C20FFF742FC1C20DFE700100240C6
:100F1000000801400004004070B590F83E600446AF
:100F200090F83F5090F8423090F84320022021B1D1
:100F300004290ED0012E1BD114E0012E18D1012B53
:100F400016D184F83E0084F8420001220021206876
:100F500020E0012D0CD1012A0AD184F83F0084F849
:100F6000430014E0012D03D1012B01D1012A01D04E
:100F7000012070BD84F83E0084F83F0084F84200F0
:100F800084F8430001220021206801F03DFA01228B
:100F90000421206801F038FA2068016841F001015D
:100FA0000160002070BD704770B50446006801699B
:100FB0004FF00005C943890715D4C168C9438907A3
:100FC00011D4E91E01610120207720688069800723
:100FD000204602D0FFF7E7FF04E000F0D5F82046F6
:100FE00000F0A6F9257720680169C943490717D49D
:100FF000C168C943490713D46FF00401016102209D
:1010000020772068806910F4407F204602D0FFF7E7
:10101000CAFF04E000F0B8F8204600F089F925770F
:1010200020680169C943090716D4C168C943090783
:1010300012D46FF008010161042020772068C06994
:101040008007204602D0FFF7AEFF04E000F09CF8D6
:10105000204600F06DF9257720680169C943C9066B
:1010600017D4C168C943C90613D46FF010010161D8
:10107000082020772068C06910F4407F204602D005
:10108000FFF791FF04E000F07FF8204600F050F9F0
:10109000257720680169C943C90708D1C168C943D8
:1010A000C90704D1891E0161204600F091F920682A
:1010B0000169C943090609D4C168C943090605D4B1
:1010C0006FF0800101612046FFF722FE2068016970
:1010D000C943490609D4C168C943490605D46FF01C
:1010E00040010161204600F074F920680169C9439C
:1010F00089060BD4C168C943890607D46FF0200163
:1011000001612046BDE87040FFF703BE70BD0000DE
:1011100000B585B000210091019102910391154B1A
:101120000268154802219A420FD1826942F00402F6
:1011300082618069039100F0040004904FF44070D4
:10114000CDE9000169460D4810E00D4B9A420FD1E0
:10115000826942F0080282618069039100F0080010
:1011600004909815CDE9000169460648FFF7B8F8E4
:1011700005B000BD002C01400010024000080140F5
:1011800000080040000C0140704770B5044690F81C
:101190003C000D4601280AD0012084F83C0042B1F1
:1011A000042A18D0082A2AD00C2A4DD139E002206E
:1011B00070BD206801F036F92068816941F00801AE
:1011C00081612068816921F0040181612068816961
:1011D0002A69114311E0206801F04CF92068816907
:1011E00041F4006181612068816921F4806181613D
:1011F000206881692A6941EA0221816124E020682E
:1012000001F064F92068C16941F00801C1612068FA
:10121000C16921F00401C1612068C1692A691143D3
:1012200011E0206801F07EF92068C16941F4006195
:10123000C1612068C16921F48061C1612068C16910
:101240002A6941EA0221C161002084F83C0070BD96
:1012500010B5040003D094F83D0010B107E0012060
:1012600010BD002084F83C00204600F01FF802204A
:1012700084F83D00211D206801F090F8012084F8D9
:10128000460084F83E0084F83F0084F8400084F86B
:10129000410084F8420084F8430084F8440084F854
:1012A000450084F83D00002010BD000008B51D4A2F
:1012B00001681D48914229D1816941F40061816131
:1012C0008069002200F40060009011461820FFF7AA
:1012D0005DFA1820FFF74CFA002211461920FFF79B
:1012E00055FA1920FFF744FA002211461A20FFF799
:1012F0004DFA1A20FFF73CFA002211461B20FFF797
:1013000045FABDE808401B20FFF732BA074A914270
:1013100007D1C16941F00401C161C06900F0040056
:10132000009008BD002C0140001002400008004061
:101330007047000010B50446022249B104290ED0BE
:10134000082913D094F84100012816D0012010BDBF
:1013500094F83E000128F9D184F83E200FE094F87B
:101360003F000128F2D184F83F2008E094F84000C3
:101370000128EBD184F8402001E084F841200122CB
:10138000206801F041F80F492068884203D1426C7F
:1013900042F4004242642068884208D0B0F1804F95
:1013A00005D00949884202D00849884204D18168A1
:1013B00001F00701062903D0016841F00101016035
:1013C000002010BD002C0140000400400008004037
:1013D0007047704770477047F8B502680446106858
:1013E000D168536910F00F0F4FF0000553D003F090
:1013F000010601F4907737435FD0C20705D0CA05D4
:1014000003D5226C42F001022264420705D5DA07B7
:1014100003D0226C42F002022264820705D5DA076B
:1014200003D0226C42F004022264020707D501F0C7
:101430002002324303D0226C42F008022264226C64
:10144000002A34D0800604D5880602D5204601F053
:10145000ABF820684069216CC0F38010090700D404
:1014600030B3204601F088F82068416949061BD551
:10147000416921F040014161A06BA8B15849416325
:10148000A06BFEF7CFFE002811D0A06B416B01B01E
:10149000BDE8F040084783060FD58B060DD52046E2
:1014A000BDE8F84001F080B82046FFF794FFF8BD92
:1014B0002046FFF790FF2564F8BD266B2023012E00
:1014C00052D1C60650D5CE064ED510685068009051
:1014D000506940062AD5A16B086840680004000CDA
:1014E000EAD0A68D8642E7D9E0858869202818D001
:1014F000D06820F48070D0602068416921F001013B
:1015000041612068416921F04001416184F83E3029
:1015100025632068C16821F01001C160A06BFEF74F
:101520005DFEA08DE18D401A81B219E0A08DE18DA4
:10153000401A81B2E08D0028BED00029BCD0D0680E
:1015400020F49070D0602068426922F0010242616C
:1015500084F83E3025632068C26822F01002C26021
:101560002046FFF737FFF8BD05062BD50D0629D518
:1015700094F83D002128F6D1A068B0F5805F01D134
:101580002069B0B1206A411C21622168007848605E
:10159000E08C401E0004000CE084E4D12068C168A7
:1015A00021F08001C1602068C16841F04001C16044
:1015B000F8BD206A0088C0F308005060206A801CD3
:1015C0002062E5E74006F3D54806F1D5D16820460C
:1015D00021F04001D16084F83D3000F01AFAF8BDE6
:1015E0006925000870B5040004D094F83D0000257A
:1015F00010B106E0012070BD84F83C50204600F098
:1016000023F8242084F83D002068C16821F40051AB
:10161000C160204601F024F82068016921F490415E
:1016200001612068416921F02A0141612068C16897
:1016300041F40051C1602564202084F83D0084F805
:101640003E00002070BD000030B585B0002400943D
:10165000019402940394324D03683248022103221C
:10166000AB422ED1836943F480438361836903F4E1
:1016700080430493836943F00803836180692A4DA2
:1016800000F0080004904020CDE900010392694673
:101690002846FEF725FE8020CDE90004694628464D
:1016A0000294FEF71DFE2148416841F0E06141F0DF
:1016B00004014160002211462520FFF767F825202C
:1016C00029E01B4DAB4228D1C36943F40033C36109
:1016D000C36903F400330493836943F00403836113
:1016E0008069144D00F0040004900420CDE900014D
:1016F000039269462846FEF7F3FD0820CDE9000471
:10170000694628460294FEF7EBFD0022114626208A
:10171000FFF73CF82620FFF72BF805B030BD00009E
:101720000038014000100240000C01400000014060
:10173000004400400008014090F83E30202B0ED1BC
:1017400059B152B190F83C30012B08D0012380F8F8
:101750003C300023036300F0DFBF0120704702200C
:10176000704700002DE9FC5F824600685E498842B0
:101770007ED15E4D5E4C4FF0000968784FF0010B52
:10178000012803D02078232873D09DE028782118E1
:1017900011F8011C0A290DD0401CC0B22870202865
:1017A00068D320215248FEF7C4FC85F8009085F8E4
:1017B00001908FE060784F4930384843A17840F27B
:1017C0007122514300EB0111E078504301EB00110D
:1017D000207900EB4002C2EBC01001EBC000617940
:1017E00001EBC10202EB011100EB8100A17901EBD9
:1017F000810100EB4100E17908443F4900EB010819
:10180000C5F80C80607A217B303800EB4002C2EBD7
:10181000C01001EBC001A07A64225043E27A02EBCF
:10182000820200EB42000F18607B217C303800EB15
:101830004002C2EBC01001EBC001A07B6422504308
:10184000E27BA7F5A05702EB820200EB42000E18E4
:10185000A6F5A056D03ED03FC5E90176414627A067
:1018600000F0B6FF324639462BA000F0B1FF02E08F
:1018700038E027E024E05E460C2330A2102100204F
:10188000CDF800B000F0ABFC0C2331A230210020D9
:10189000009600F0A4FC4FF00C0BCDE900B603233A
:1018A0003A461021642000F069FCCDE900B603231C
:1018B00042463021642000F061FC00F0E1FB70E75B
:1018C000211808E085F801B020210948FEF731FC15
:1018D00085F80090214602B05046BDE8F05F012235
:1018E000FFF72ABFBDE8FC9F004400400000002035
:1018F0007C000020A0860100B089F0FF526563657E
:1019000069766564206C696461725F76616C756587
:101910003A2025640D0A00005265636569766564A6
:1019200020636D645F76656C3A20765F6C3D25645C
:101930002C20765F723D25640D0A00006C696E658F
:1019400061725F76656C6F636974793A00000000BC
:101950006C696461725F64697374616E63653A0097
:101960002DE9F843044690F83D001F4616460D4603
:1019700020284CD1C5B1BEB194F83C00012846D016
:10198000012084F83C004FF00008C4F8408021207A
:1019900084F83D00FEF79AFDA6848146E684A0689F
:1019A000B0F5805F03D004E00120BDE8F883206932
:1019B00028B12E465FF0000584F83C800EE000263A
:1019C000FAE78021204600F0C2FEA0B9AEB116F8B9
:1019D000010B21684860E08C401EE084E08C4B469F
:1019E0004FF0000200970028EBD14FF04001204655
:1019F00000F0ADFE30B10320D7E735F8020BC0F39D
:101A00000800E6E7202084F83D000020CDE7022012
:101A1000CBE77047FEE7000010B50E4C012208210D
:101A20002046FEF74DFD012210212046FEF748FD1D
:101A300000F046F8002208212046FEF741FD00F0A4
:101A40003FF8002210212046FEF73AFDBDE8104085
:101A500000F036B8000C014010B50A4C00220821F5
:101A60002046FEF72DFD012210212046FEF728FD1D
:101A700000F026F820460122BDE810400821FEF7BC
:101A80001FBD0000000C014010B50C4C01220821C4
:101A90002046FEF715FD00F013F801221021204624
:101AA000FEF70EFD00F00CF8002210212046FEF794
:101AB00007FDBDE8104000F003B80000000C014035
:101AC0000320401EC0B2FCD27047000070B586B043
:101AD00000241C480094019402940394816941F00D
:101AE00020018161816901F020010491816941F047
:101AF00004018161816901F004010491816941F06F
:101B0000080181618069104E00F008004FF218054D
:101B10000490002229463046FEF7D2FC0720CDE98A
:101B20000004694630460294FEF7DAFB0120009576
:101B3000CDE901040220039069463046FEF7D0FB50
:101B400006B070BD00100240000C01400D4810B5F9
:101B50000B4901600C49416000214FF480428160D3
:101B6000C0E9031241618161C1610162FEF7B4FC09
:101B7000002803D0BDE81040FEF72EBB10BD0000CA
:101B8000005800409C000020A086010010B592B0D3
:101B900000240F941C2168461094FEF7CAFA2021F5
:101BA00007A8FEF7C6FA2448224901604721C0E988
:101BB000011440F2E731C0E9031444618461FFF786
:101BC00047FB08B1FEF708FB0F940FA91A481094C1
:101BD000FFF7CAF808B1FEF7FFFA6020CDE900046C
:101BE00002940394049405940022694612480694D2
:101BF000FFF7CBFA08B1FEF7EFFA042269460E4868
:101C0000FFF7C3FA08B1FEF7E7FA079408940994BE
:101C10004FF400500A94CDE90B4007A906480E94F2
:101C2000FFF778F808B1FEF7D7FA0348FFF770FA24
:101C300012B010BD002C0140F000002010B58CB097
:101C400024216846FEF775FA0024154809944FF0E0
:101C500080410A94C0E900144FF6FF71C0E90241C7
:101C6000046184610320CDE900040120CDE9020470
:101C70000494CDE905400794694609480894FFF7A4
:101C8000A7F808B1FEF7A8FA099409A904480A942C
:101C9000FFF76AF8002801D0FEF79EFA0CB010BDDD
:101CA0003801002010B58CB024216846FEF741FAB7
:101CB00000241648099414490A94C0E900144FF608
:101CC000FF71C0E90241046184610320CDE9000491
:101CD0000120CDE902040494CDE90540079469464A
:101CE0000A480894FFF774F808B1FEF775FA0994EA
:101CF00009A906480A94FFF737F8002801D0FEF733
:101D00006BFA0CB010BD0000000400408001002000
:101D100010B58AB0002407941C2168460894FEF789
:101D200008FA1748154901604721C0E9011444F633
:101D30001F61C0E9031480218161FFF789FA08B1AE
:101D4000FEF74AFA079407A90D480894FFF70CF824
:101D500008B1FEF741FA6020CDE9000402940822A0
:101D6000694607480494FFF710FA08B1FEF734FA01
:101D70000348FFF7CDF90AB010BD0000000800408D
:101D8000C80100200C4810B50A4901604FF4E13148
:101D90004160002181600C22C160C0E904128161B0
:101DA000C161FFF71FFC002803D0BDE81040FEF71B
:101DB00013BA10BD00380140100200200C4810B5C5
:101DC0000A4901604FF4E1314160002181600C2239
:101DD000C160C0E904128161C161FFF703FC002802
:101DE00003D0BDE81040FEF7F7B910BD0044004035
:101DF00054020020FEE700002DE9F04101464FF4B7
:101E00000054244866008514A700012919D002292E
:101E10002AD003293BD1314601220646FEF750FB6A
:101E2000012239463046FEF74BFB01222946304657
:101E3000FEF746FB012221463046BDE8F041FEF7A1
:101E40003FBB214600220446FEF73AFB0122294609
:101E50002046FEF735FB012231462046FEF730FBD7
:101E6000002239462046E8E7294601220546FEF7CA
:101E700027FB002221462846FEF722FB002231469E
:101E80002846FEF71DFB012239462846D5E7BDE866
:101E9000F0810000000C014010B500211148FFF74F
:101EA00049FA04210F48FFF745FA0F4C00224FF47E
:101EB00000512046FEF704FB0022A1142046FEF745
:101EC000FFFA00224FF480412046FEF7F9FA002283
:101ED0004FF400412046FEF7F3FABDE8104003A09E
:101EE00000F076BCF0000020000C01404D6F746FD4
:101EF0007220696E6974204F4B210A00024A1368F0
:101F00005863106881637047F0000020FEE700000E
:101F100030B40021084B0A465FF0000003EBC00418
:101F2000401CC0B262548028F8D3491CC9B20829A9
:101F3000F2D330BC00F0A4B89802002030B10128E0
:101F400007D100215FF0A70000F06DB90021A620A5
:101F5000FAE7704730B5CC0801F0070301259D4032
:101F6000EBB2064D05EBC005C808285C0AB1184362
:101F700002E063EA0000C043285530BD980200200B
:101F800010B5C820FEF79AF90021AE2000F04BF9F9
:101F90000021084600F047F90021102000F043F925
:101FA0000021402000F03FF90021812000F03BF9A2
:101FB0000021CF2000F037F90021A12000F033F9F3
:101FC0000021C82000F02FF90021A62000F02BF9F5
:101FD0000021A82000F027F900213F2000F023F97C
:101FE0000021D32000F01FF90021084600F01BF962
:101FF0000021D52000F017F90021802000F013F90E
:102000000021D92000F00FF90021F12000F00BF998
:102010000021DA2000F007F90021122000F003F976
:102020000021DB2000F0FFF80021402000F0FBF849
:102030000021202000F0F7F80021022000F0F3F842
:1020400000218D2000F0EFF80021142000F0EBF8C3
:102050000021A42000F0E7F80021A62000F0E3F81A
:102060000021AF2000F0DFF8BDE81040FFF750BFBF
:102070000246012000E05043491EC9B2FBD270471E
:1020800070B5114E002400BF04F1B000C0B20021B1
:1020900000F0C9F80021084600F0C5F80021102022
:1020A00000F0C1F85FF0000506EBC5000121005DFE
:1020B00000F0B9F86D1CEDB2802DF5D3641CE4B2CC
:1020C000082CE1D370BD0000980200202DE9FF4FDD
:1020D0001D460C468946580700D0012000EBD5006C
:1020E00069084843203A00F0FF0A02F0FF0B00267F
:1020F00039E00C2D0FD0102D11D0182D35D11C49E1
:102100000BEBCB0001EB80004FF00008875D380639
:1021100009D50D9A0AE00BEB4B001649F2E7164978
:1021200001EB0B10F0E70D9890B1002221460098CA
:10213000FFF710FF7806641C070EE4B2A4EB090059
:10214000A84207D100984C46401CC0B2009008E05D
:102150000122EBE708F1010000F0FF08B8F1080FD9
:10216000D5D3761CF6B25645C3D3BDE8FF8F000029
:102170002C350008C82A00083C2F00082DE9F84F2C
:102180001D46DDE90A9892468B46074600244FEA31
:1021900059061AE0281B401EC1B20A20FFF768FF4B
:1021A000BAFBF0F00A21B0FBF1F201FB1200CDF80E
:1021B000008070B13030C2B206FB0470C0B24B4632
:1021C0005946FFF783FF641CE4B2AC42E2D3BDE89A
:1021D000F88F06FB0470C0B24B463022F0E72DE9C1
:1021E000F8431E46154688460446C3F18007DDF8CD
:1021F000209011E0334641462046CDF80090FFF78D
:1022000065FF04EB5600C4B2A74204DA08F10200ED
:10221000002400F0FF086D1C2A78A2F120005E283F
:10222000E8D9BDE8F88370B50C460546FFF7F4FB26
:10223000782000F02BF8FFF727FC0CB1402000E0DD
:10224000002000F023F8FFF71FFC284600F01EF8DE
:10225000FFF71AFCBDE87040FFF7FEBB70470000B7
:102260000021022803D0032807D0002070474FF038
:102270008042506A516200B27047024A1068116091
:1022800000B27047240400407047000070B5104E43
:1022900005460024280601D5012200E0002208217D
:1022A0003046FEF70DF9FFF70BFC012210213046F6
:1022B000FEF706F9FFF704FC002210213046FEF776
:1022C000FFF86806641C050EE4B2082CE2D370BD6A
:1022D000000C014010B508210448FFF72BF8034912
:1022E00040F2DC500968C86310BD0000C80100203E
:1022F000FEF7E6B930B58FB028216846FDF719FF23
:1023000014210AA8FDF715FF01210804CDE90010EA
:102310000024029402250491CDE907504FF4E01007
:1023200009906846FEF750FB08B172B6FEE70F2031
:10233000CDE90A054FF48060CDE90C4002210AA8DE
:102340000E94FEF755FA002801D072B6FEE70FB0E2
:1023500030BD70470148FEF727BE0000F0000020A6
:102360000148FEF721BE0000F00000200148FEF702
:102370001BBE0000F00000200148FEF715BE000063
:10238000F00000200148FEF70FBE000038010020D9
:102390000148FEF709BE000080010020F0B5026888
:1023A000164B174C174D4FF08047984205D0B84256
:1023B00003D0A04201D0A84203D122F070064A689F
:1023C0003243984205D0B84203D0A04201D0A8427F
:1023D00003D122F44074CA6822434C6922F080027F
:1023E000224302608A68C2620A688262984201D10E
:1023F0000969016301214161F0BD0000002C014029
:10240000000400400008004010B501F01F03012146
:10241000046A99408C430462016A9A401143016244
:1024200010BD000030B5026A22F001020262026AA9
:102430004368846924F073050C682C4322F002057C
:102440008A682A430A4DA8420BD122F00805CA68BF
:1024500023F440732A434D6922F004021D438B6923
:102460002B434360846149684163026230BD0000D0
:10247000002C014030B5026A22F010020262026AAA
:10248000436884690D6824F4E64444EA05248D68B1
:1024900022F0200242EA05120B4DA8420ED1CD686F
:1024A00022F0800242EA05124D6923F4406343EAB8
:1024B00085038D6922F0400243EA8503436084610D
:1024C00049688163026230BD002C014030B5026A68
:1024D00022F480720262036A4268C46923F40073C2
:1024E00024F073050C682C438D6843EA05230C4DDA
:1024F000A8420ED1CD6823F4006343EA05234D6959
:1025000022F4405242EA05128D6923F4806342EAC4
:1025100005124260C4614968C163036230BD0000B6
:10252000002C014030B5026A22F480520262046A33
:102530004268C3690D6823F4E64343EA05238D68C6
:1025400024F4005444EA0534064DA84204D14D69F0
:1025500022F4804242EA85124260C3614968016404
:10256000046230BD002C014010B5406A0021C185D5
:10257000C184FEF730FF10BD0168CA6822F4907272
:10258000CA6001684A6922F001024A61016B0129AF
:1025900004D10168CA6822F01002CA60202180F8C4
:1025A0003E1000210163704708B590F83E102229C3
:1025B00001D0022008BD82684FF480539A4201D1B5
:1025C000016921B1816A9A421BD04AB10AE00268CE
:1025D000816A5268C2F308020A80816A891C08E095
:1025E000026972B10268526802F07F020A70816A61
:1025F000491C8162C18D491E0904090CC18503D0A3
:1026000019E002685268F1E70168CA6822F0200206
:10261000CA600168CA6822F48072CA6001684A69A7
:1026200022F001024A61202180F83E10016B01294D
:1026300003D0FFF797F8002008BD0021016301686F
:10264000CA6822F01002CA6001680A68D20602D580
:102650000A6849680091818DFEF7BCFEEBE7000037
:1026600070B5044600680169E26821F440511143E5
:1026700001612169A0680843616908432168CA684B
:1026800041F20C639A430243CA6020684169A2691F
:1026900021F44071114341611E492068884202D1F2
:1026A000FEF74CF901E0FEF739F900EBC00101EB50
:1026B0000012606864218000B2FBF0F3B3FBF1F319
:1026C0006FF018067343B2FBF0F5B2FBF0F605EBC2
:1026D0008305322303EB0515B5FBF1F5B6FBF1F6E7
:1026E00005F0F00505EB0615B2FBF0F6B2FBF0F0D5
:1026F000B0FBF1F06FF01802504306EB800003EBE3
:102700000010B0FBF1F0216800F00F002844886051
:1027100070BD00000038014081628285C2850021C1
:102720000164222280F83E2080F83C100168CA68CB
:1027300042F48072CA6001684A6942F001024A614B
:102740000068C16841F02001C160002070472DE998
:10275000F041984617460E460446069D1DE0681C4B
:102760001BD02DB1FDF7B2FEA0EB0800A84214D992
:102770002068C16821F4D071C1602068416921F0EE
:1027800001014161202084F83D0084F83E000020D2
:1027900084F83C000320BDE8F0812068006836EA38
:1027A000000004D00020B842D9D00020F3E7012077
:1027B000F9E700000148FEF70FBE000010020020FC
:1027C0000148FEF709BE000054020020FEE70000A9
:1027D0000FB4054B10B503A9044A029800F028F87D
:1027E00010BC5DF814FB000085290008780000206B
:1027F0000907090E002804DB00F1E02080F800142E
:10280000704700F00F0000F1E02080F8141D7047C1
:1028100002E008C8121F08C1002AFAD170477047A9
:10282000002001E001C1121F002AFBD17047000007
:102830002DE9FF4F89B09B460446002506E0252878
:102840000BD05A460B999047641C6D1C20780028C9
:10285000F5D10DB02846BDE8F08F0027B84601221B
:10286000474900E0074314F8013F203B02FA03F018
:102870000842F7D120782E2819D114F8010F47F01B
:1028800004072A280ED06FF02F022078A0F1300123
:1028900009290CD808EB880102EB410100EB010883
:1028A000641CF2E70A98641C50F8048B0A902078A4
:1028B0000028CED0642808D0692806D075281ED0FC
:1028C0005A460B9990476D1C58E00A994FF00A0937
:1028D00001C90A91002802DA40422D2102E039059F
:1028E00004D52B218DF82010012103E0F90704D035
:1028F0002021F7E78A4608AE0DE00021FAE70A99A1
:102900004FF00A0901C90A91F7E74946FDF71CFC97
:10291000303106F8011D0028F7D1ADEB060000F1BB
:102920002009780701D44FF00108C84502DDA8EB63
:10293000090000E000208046002706E008A85A466B
:10294000C05D0B9990476D1C7F1C5745F6DB04E07A
:1029500030205A460B9990476D1CB8F10001A8F140
:102960000108F5DC05E016F8010B5A460B99904773
:102970006D1CB9F10001A9F10109F4DC641C65E7E3
:102980000928010013B56423012269460248FEF7B5
:10299000E7FF00981CBD0000540200201CB5FDF7A5
:1029A00097FEFFF7A7FCFFF791F8FFF7CFF8FFF7C7
:1029B000EDF8FFF743F9FFF775F9FFF7A9F9FFF70E
:1029C000E1F9FFF7FBF922A0FFF702FFFFF782FC16
:1029D000FFF762FAFDF7F0FB0020CDE900000246A8
:1029E00003461E4900F052F81E4C1D480122217872
:1029F00001441D48FEF7A0FEFFF7C2FA0020FFF7D2
:102A00009DFA012000900C2318A200210F20FFF74F
:102A1000E6FBFFF735FB08211948FEF78BFC4FF466
:102A2000FA750120FFF7E8F964210846FFF766FA16
:102A30000320FFF715FC2061FDF7B0FB024611A053
:102A40002169FFF7C5FE2846FDF738FCE9E70000DD
:102A5000B3F5CABCBBAF0D0A0000000000002E4059
:102A60007C00002000000020540200204175746F9B
:102A700070696C6F742053797374656D0000000089
:102A8000C801002025642C25640A000070B5074C9D
:102A9000DDE9045604F1100C8CE86F000020C4E955
:102AA0000000C4E90200C4E90C0070BD2800002049
:102AB00000000000000000000102030406070809EE
:102AC00000000000010203040000000000000000FC
:102AD00000000000000000003F4000000000000077
:102AE00000003000400030004000000009000BC032
:102AF0003D000BC03D00090018C024407FE022408B
:102B000031800000180024C01B000D80324001807D
:102B100003801C4027401C800740004010006000DC
:102B200000000000000000000000000000001F8006
:102B3000204040200000402020401F800000000076
:102B4000090006001F8006000900000004000400C0
:102B50003F8004000400000000100060000000003E
:102B60000000000004000400040004000400000051
:102B7000000000400000000000000000002001C034
:102B800006003800400000001F8020402040204008
:102B90001F800000000010403FC000400000000007
:102BA00018C02140224024401840000010802040DE
:102BB000244024401B80000002000D0011003FC093
:102BC000014000003C802440244024402380000039
:102BD0001F80244024403440038000003000200047
:102BE00027C03800200000001B80244024402440DF
:102BF0001B8000001C0022C0224022401F800000D9
:102C0000000000000840000000000000000000007C
:102C10000460000000000000000004000A00110031
:102C20002080404009000900090009000900000057
:102C300000004040208011000A000400180020001D
:102C400023402400180000001F8020402740294016
:102C50001F400000004007C039000F0001C00040C5
:102C600020403FC0244024401B8000001F802040A3
:102C7000204020403080000020403FC020402040C5
:102C80001F80000020403FC024402E4030C0000084
:102C900020403FC024402E00300000000F00108074
:102CA000204022403380020020403FC00400040046
:102CB0003FC02040204020403FC020402040000036
:102CC0000060202020203FC02000200020403FC086
:102CD00024400B0030C0204020403FC02040004036
:102CE000004000C03FC03C0003C03C003FC00000AB
:102CF00020403FC00C4023003FC020001F802040E8
:102D0000204020401F80000020403FC0244024007D
:102D1000180000001F802140214020E01FA000007B
:102D200020403FC02440260019C0004018C0244065
:102D30002440224031800000300020403FC020402D
:102D40003000000020003F80004000403F80200015
:102D500020003E0001C0070038002000380007C0F6
:102D60003C0007C038000000204039C0060039C0D0
:102D7000204000002000384007C0384020000000FC
:102D8000304021C02640384020C000000000000034
:102D90007FE0402040200000000070000C00038015
:102DA000004000000000402040207FE000000000C4
:102DB0000000200040002000000000000010001073
:102DC0000010001000100010000000004000000083
:102DD00000000000000002800540054003C00040E4
:102DE00020003FC004400440038000000000038036
:102DF00004400440064000000000038004402440DA
:102E00003FC0004000000380054005400340000033
:102E1000000004401FC0244024402000000002E0C5
:102E2000055005500650042020403FC004400400D7
:102E300003C000400000044027C000400000000024
:102E400000100010041027E00000000020403FC0E8
:102E50000140070004C00440204020403FC0004023
:102E60000040000007C0040007C0040003C00000C9
:102E7000044007C00440040003C000400000038079
:102E80000440044003800000041007F00450044094
:102E900003800000000003800440045007F000108D
:102EA000044007C002400400040000000000064087
:102EB0000540054004C00000000004001F800440DD
:102EC00000400000040007800040044007C00040AC
:102ED0000400070004C0018006000400060001C0D1
:102EE000070001C006000000044006C0010006C043
:102EF000044000000410071004E0018006000400F4
:102F00000000044005C0064004400000000000002E
:102F100004007BE040200000000000000000FFF003
:102F200000000000000040207BE0040000000000E2
:102F30004000800040002000200040000000000011
:102F40000000000000000000000000000000000081
:102F500000001FCC000C0000000000000000080072
:102F6000300060000800300060000000022003FC18
:102F70001E20022003FC1E200220000000000E186C
:102F800011043FFF10840C78000000000F00108433
:102F90000F3800C0077818840078000000780F848C
:102FA00010C411240E9800E4008400080800680092
:102FB00070000000000000000000000000000000A1
:102FC000000007E018182004400200000000400242
:102FD0002004181807E00000000000000240024032
:102FE00001800FF00180024002400000008000805C
:102FF00000800FF800800080008000000001000DBC
:10300000000E000000000000000000000000008032
:103010000080008000800080008000800000000CA4
:10302000000C00000000000000000000000000068E
:10303000001800600180060018002000000007F062
:10304000080810041004080807F000000000080435
:1030500008041FFC000400040000000000000E0C27
:1030600010141024104411840E0C000000000C18E1
:1030700010041104110412880C700000000000E01C
:103080000320042408241FFC0024000000001F98D3
:10309000108411041104108810700000000007F063
:1030A00008881104110418880070000000001C003A
:1030B000100010FC13001C001000000000000E386F
:1030C00011441084108411440E38000000000700E1
:1030D000088C10441044088807F00000000000002D
:1030E0000000030C030C00000000000000000000C2
:1030F0000001010600000000000000000000008048
:1031000001400220041008081004000002200220E0
:1031100002200220022002200220000000001004F1
:1031200008080410022001400080000000000E008A
:103130001200100C106C10800F00000003E00C183F
:1031400013E4142417C4082807D000000004003C2E
:1031500003C41C40074000E4001C000410041FFCD2
:103160001104110411040E880070000003E00C1813
:1031700010041004100410081C10000010041FFCA0
:10318000100410041004080807F0000010041FFCCD
:103190001104110417C410040818000010041FFCC7
:1031A0001104110017C010000800000003E00C1803
:1031B0001004100410441C780040000010041FFC90
:1031C00010840080008010841FFC10040000100494
:1031D00010041FFC10041004000000000003000194
:1031E000100110011FFE10001000000010041FFC51
:1031F000110403801464181C1004000010041FFC48
:103200001004000400040004000C000010041FFC63
:103210001F0000FC1F001FFC1004000010041FFC16
:103220000C04030000E010181FFC100007F0080851
:10323000100410041004080807F0000010041FFC1C
:1032400010841080108010800F00000007F0081814
:1032500010241024101C080A07F2000010041FFCA0
:103260001104110011C011300E0C000400000E1CDE
:1032700011041084108410441C3800001800100041
:1032800010041FFC100410001800000010001FF8AC
:1032900010040004000410041FF8100010001E00A9
:1032A00011E0001C007013801C0010001FC0103CB7
:1032B00000E01F0000E0103C1FC000001004180CCC
:1032C000163401C001C01634180C100410001C0084
:1032D000130400FC13041C00100000000804101C60
:1032E0001064108413041C04101800000000000077
:1032F00000007FFE4002400240020000000030005B
:103300000C0003800060001C00030000000040026D
:10331000400240027FFE00000000000000000000AC
:10332000200040004000400020000000000100019B
:103330000001000100010001000100010000400047
:103340004000200000000000000000000000009885
:10335000012401440144014400FC000410001FFC4E
:103360000088010401040088007000000000007063
:1033700000880104010401040088000000000070BE
:1033800000880104010411081FFC0004000000F87B
:10339000014401440144014400C80000000001044C
:1033A00001040FFC1104110411001800000000D6E4
:1033B00001290129012901C90106000010041FFC8F
:1033C000008401000100010400FC0004000001046D
:1033D000190419FC000400040000000000000003B0
:1033E00000010101190119FE0000000010041FFC7A
:1033F0000024004001B4010C01040000000010048E
:1034000010041FFC0004000400000000010401FC83
:103410000104010001FC0104010000FC010401FCA5
:10342000008401000100010400FC0004000000F819
:10343000010401040104010400F80000010101FF7E
:103440000085010401040088007000000000007085
:10345000008801040104010501FF000101040104C9
:1034600001FC00840104010001800000000000CC88
:10347000012401240124012401980000000001001E
:10348000010007F80104010400000000010001F838
:10349000000400040004010801FC00040100018094
:1034A0000170000C001001600180010001F0010CAE
:1034B000003001C00030010C01F0010000000104E7
:1034C000018C00740170018C010400000101018174
:1034D0000171000E001801600180010000000184EC
:1034E000010C013401440184010C000000000000C3
:1034F0000000000001003EFC40024002000000000D
:1035000000000000FFFF000000000000000040027B
:1035100040023EFC010000000000000000006000CE
:1035200080008000400040002000200000000000DB
:10353000000000000000000000000000000000008B
:10354000000000000000000000000000000000007B
:103550000000000000000000000000000000000F5C
:1035600080380FFE380F8038000000000000000097
:103570000000000000000000000001000006000044
:103580000C00003800003100000600000C0000387C
:1035900000003000000000000000000061800067B3
:1035A000F807F9800061800061800061800061801F
:1035B0000067F807F980006180000000000000004B
:1035C000000001C0E003E0F00630080418081FFF07
:1035D000FE040E080787F00381E0000000000000F1
:1035E00001F000060C00040408060C7001F9C0008C
:1035F0000E00003BE000EC18070808040C1800035C
:10360000E00000000001E00007F003F818041C08C7
:1036100004170807E1D003C0E00023B0003C080015
:103620002008000010000000000000010000310030
:10363000003200001C00000000000000000000003C
:10364000000000000000000000000000000000007A
:103650000000000000000000000000007F0001FFEB
:10366000C00780F00C0018100004200002000000C9
:103670000000002000021000040C00180780F00178
:10368000FFC0007F000000000000000000000000FC
:10369000000000000000000042000066000066001C
:1036A000003C0000180003FFC0001800003C0000B0
:1036B00066000066000042000000000008000008EC
:1036C0000000080000080000080001FFC00008001A
:1036D00000080000080000080000080000000000CA
:1036E000000100003100003200001C00000000005A
:1036F00000000000000000000000000000000000CA
:103700000000000008000008000008000008000099
:103710000800000800000800000800000800000879
:103720000000000000000000000000003800003829
:103730000000380000000000000000000000000051
:103740000000000000000000000000000006000073
:103750001C000070000180000E0000380000C00056
:103760000700001C00003000000000000000000006
:103770007F8001FFE0038070060018040008040049
:103780000806001803807001FFE0007F8000000041
:10379000000000000000010008010008010008030B
:1037A000FFF807FFF800000800000800000800000C
:1037B0000000000000000001C03802C0580400985A
:1037C000040118040218040418061C1803F8180150
:1037D000E0F800000000000000000001C0E003C0AD
:1037E000F004000804080804080806180803F41880
:1037F00001E7F00001E00000000000000000000010
:103800000300000D000011000061000081080301A9
:103810000807FFF80FFFF80001080001080000008A
:103820000000000000E007FCD006080806100806AB
:103830001008061008061838060FF00607C000002A
:1038400000000000000000003F8001FFE003843022
:1038500002081804100804100804100807181003C0
:103860000FF00007C000000000000000000003C0CF
:10387000000700000600000600F80607F80618001A
:1038800006E0000700000600000000000000000144
:10389000E1E003F7F0063410041808041808040CDB
:1038A00008040C0806161803F3F001C1E00000003C
:1038B00000000000F80003FC30030638040208048E
:1038C00002080402080404100308F001FFC0007F8E
:1038D00000000000000000000000000000000000E8
:1038E00000000000703800703800703800000000E0
:1038F00000000000000000000000000000000000C8
:103900000000000000000000301A00301C00000021
:1039100000000000000000000000000000000000A7
:103920000000000800001400002200004100008098
:103930008001004002002004001008000800000080
:1039400000000000210000210000210000210000F3
:1039500021000021000021000021000021000021A1
:103960000000000000000000000008000804001033
:103970000200200100400080800041000022000081
:10398000140000080000000000000003C00004C094
:1039900000040000080038080F3808083808100034
:1039A0000C300007E00003C0000000000000000031
:1039B0003F8000FFE0038070020F1006708804C093
:1039C00088048308047F8802C09003012000FE4021
:1039D0000000080000180001F8003E0801C20007BE
:1039E000020007E20000FE00001FC80001F800000E
:1039F0003800000804000807FFF807FFF80408086B
:103A000004080804080804080806180803F4180144
:103A1000E7F00001E0000000000000003F8001FF2F
:103A2000E003807002001804000804000804000885
:103A30000400100600200780C000000004000807F2
:103A4000FFF807FFF8040008040008040008040059
:103A50001802001003807001FFE0007F800000006A
:103A600004000807FFF807FFF80408080408080422
:103A70000808040808043E080400080600180100AD
:103A80006000000004000807FFF807FFF8040808BA
:103A9000040800040800040800043E0006000006B4
:103AA0000000018000000000000000003F8001FFD6
:103AB000E0038070060018040008040208040208ED
:103AC0000203F00783F00002000002000400080770
:103AD000FFF807FFF80408080008000008000008C5
:103AE0000000080004080807FFF807FFF8040008B2
:103AF000000000000000040008040008040008079B
:103B0000FFF807FFF804000804000804000800009C
:103B10000000000000000000000600000700000197
:103B200004000104000104000307FFFE07FFFC047A
:103B3000000004000004000004000807FFF807FF6D
:103B4000F8040C08001800003E0004C7800503C8F4
:103B50000600F804003804001800000804000807F4
:103B6000FFF807FFF8040008000008000008000044
:103B700008000008000008000018000060000000B5
:103B800004000807FFF807800807FC00007FC0005A
:103B900003F80007C000780007800807FFF807FF58
:103BA000F804000804000807FFF807000803C00035
:103BB00000E000003800001E000007000001C00403
:103BC00000F007FFF8040000000000007F8001FF04
:103BD000E0038070060018040008040008060018BE
:103BE00003003001FFE0007F8000000004000807B0
:103BF000FFF807FFF80404080404000404000404A8
:103C000000040400060C0003F80001F000000000AE
:103C1000000000007F8001FFE00380700600880440
:103C200000880400C806003C03003E01FFE6007F58
:103C30008400000004000807FFF807FFF8040808E4
:103C4000040800040C00040F00040BC00610F0036D
:103C5000F03801E00800000800000001E0F803F07F
:103C600030063010041808041808040C08040C0866
:103C70000206180207F00781E0000000018000063C
:103C8000000004000004000004000807FFF807FF1C
:103C9000F804000804000004000006000001800091
:103CA00004000007FFE007FFF00400180000080010
:103CB000000800000800000800000804001007FFCA
:103CC000E004000004000006000007E00007FE001A
:103CD000041FE00001F80000380001E0043E000786
:103CE000C00006000004000004000007E00007FF19
:103CF000C0041FF80007C007F80007FF80043FF862
:103D00000007C004F80007000004000000000004E1
:103D1000000806001807C07805F1C8003E00001F23
:103D2000800463E80780F80600180400080000001B
:103D300004000006000007800007E008047C08007B
:103D40001FF80007F800180804E008070000060044
:103D5000000400000000000100080600380400F81C
:103D60000403E8040F08047C0805F00807C00807EE
:103D700000180400600000000000000000000000C7
:103D8000000000000000003FFFFE200002200002B3
:103D900020000220000220000200000000000000BD
:103DA000000008000007000000C000003800000606
:103DB000000001C000003000000E00000100000003
:103DC000000000000000200002200002200002206D
:103DD00000022000023FFFFE000000000000000083
:103DE00000000000000000000000000000080000CB
:103DF000100000300000200000300000100000081B
:103E000000000000000000000000010000010000B0
:103E1000010000010000010000010000010000019C
:103E2000000001000001000001000001000000008E
:103E30000000000000200000200000100000100022
:103E40000000000000000000000000000000000072
:103E50000000000000F00019F8001B180022080004
:103E60002608002408002410003FF8001FF8000076
:103E70000800001800000004000007FFF80FFFF022
:103E80000018180010080020080020080030180052
:103E90001FF0000FC00000000000000007C0001F5E
:103EA000F0001830002008002008002008003C081E
:103EB000001C100000600000000000000000000076
:103EC00007C0001FF000381800200800200800205C
:103ED0000804101007FFF80FFFF0000010000000AA
:103EE0000000000000000007C0001FF000123000BA
:103EF0002218002208002208003208001E10000EBE
:103F00002000000000000000200000200800200821
:103F100001FFF803FFF80620080420080420080722
:103F2000200003000000000000000000000E000E52
:103F30006E001FF30031B10020B10020B1003191BB
:103F4000001F13002E1E00200E0030000000000491
:103F5000000807FFF80FFFF80010080020000020FD
:103F600000002008003FF8001FF8000008000000D3
:103F700000000000000000200800200800200806C3
:103F80003FF8063FF80000080000080000080000A5
:103F9000000000000000000000000000030000031B
:103FA000002001002001002003063FFE063FFC0028
:103FB000000000000000000000000004000807FFEF
:103FC000F80FFFF8000188000300002FC00038F848
:103FD0000020380020080000080000000000000059
:103FE000000004000804000804000807FFF80FFFA1
:103FF000F8000008000008000008000000000000B1
:10400000002008003FF8003FF800100800200000E2
:104010003FF8003FF8001008002000003FF8003F84
:10402000F8000008000000002008003FF8003FF8FA
:10403000001008001000002000002008003FF800D9
:104040001FF80000080000000000000007C0000F7B
:10405000F000183000300800200800200800300868
:10406000001830000FF00007C00000000000000042
:104070002001003FFF003FFF001011002009002039
:1040800008002008003038001FF0000FC0000000BA
:104090000000000007C0001FF000381800200800D2
:1040A0002008002009001011001FFF003FFF000042
:1040B00001000000002008002008002008003FF850
:1040C000003FF80008080010080020080020000049
:1040D0003000003000000000000000000000000C74
:1040E00078001E18003308002308002108002188EA
:1040F0000021980030F0003860000000000000004F
:10410000200000200000200000FFF003FFF8002046
:104110000800200800200800003000000000000017
:10412000000000002000003FF0007FF800001800B1
:104130000008000008002010003FF8007FF0000099
:1041400010000000000000002000003000003C00D3
:10415000003F800023F00000780000700023800002
:104160003C00003000002000002000003C00003F28
:10417000E00023F80000E0002700003E00003FE0E0
:104180000021F80001E0003E0000200000000000D7
:104190002008002008003838003E6800278000030F
:1041A000C8002CF800383800201800200800000053
:1041B000000000002000003003003C01003F8300AD
:1041C00023EC000070002380003C00002000002051
:1041D0000000000000000000000000380800203847
:1041E0000020F80023E8002F88003E08003808006F
:1041F0002018000070000000000000000000000017
:10420000000000000000000008000014001FF7FC80
:104210003000062000020000000000000000000046
:104220000000000000000000000000000000FFFF90
:10423000FF0000000000000000000000000000007F
:104240000000000000002000023000061FF7FC0004
:104250001400000800000000000000000000000042
:104260000000000000000018000060000040000096
:1042700040000020000010000008000004000004BE
:1042800000000C0000100000A84200080000002000
:104290007C00000010280008244300087C00002057
:1042A0009C0A000020280008000000000000000018
:1042B00000000000000000000000000001000000FD
:1042C00010000000000000000024F40000000000C6
:1042D00000000000000000000000000000000000DE
:1042E00000000000000000000000000000000000CE
:1042F00000000000000000000000000000000000BE
:1043000000000000000000000000000000000000AD
:10431000000000000000000000000000000000009D
:044320000000000099
:04000005080000ED02
:00000001FF
