:020000040800F2
:1000000000500020A50E00081D0900081F09000867
:100010002109000823090008250900080000000044
:100020000000000000000000000000002709000898
:1000300029090008000000002B0900082D0900080C
:10004000ED0E0008ED0E0008ED0E0008ED0E0008A4
:10005000ED0E0008ED0E0008ED0E0008ED0E000894
:10006000ED0E0008ED0E0008ED0E0008ED0E000884
:10007000ED0E0008ED0E0008ED0E0008ED0E000874
:10008000ED0E0008ED0E0008ED0E0008ED0E000864
:10009000ED0E0008ED0E0008ED0E0008ED0E000854
:1000A000ED0E0008ED0E0008ED0E0008ED0E000844
:1000B000ED0E0008ED0E0008ED0E0008ED0E000834
:1000C000ED0E0008ED0E0008ED0E0008ED0E000824
:1000D000ED0E0008ED0E0008ED0E0008ED0E000814
:1000E000ED0E0008ED0E0008ED0E00080000000007
:1000F0000000000000000000000000000000000000
:0C01000000000000000000005FF808F1A3
:10010C0010B5054C237833B9044B13B10448AFF345
:10011C0000800123237010BDE41E002000000000AD
:10012C00A43B000808B5034B1BB103490348AFF3CC
:10013C00008008BD00000000E81E0020A43B000861
:10014C00844641EA000313F0030349D1403A23D318
:10015C000B6803604B6843608B688360CB68C3603B
:10016C000B6903614B6943618B698361CB69C36123
:10017C000B6A03624B6A43628B6A8362CB6AC3620B
:10018C000B6B03634B6B43638B6B8363CB6BC363F3
:10019C0040304031403ADBD230320BD30B68036035
:1001AC004B6843608B688360CB68C3601030103140
:1001BC00103AF3D20C3205D351F8043B40F8043B0F
:1001CC00043AF9D2043208D0D2071CBF11F8013B13
:1001DC0000F8013B01D30B8803806046704700BFD9
:1001EC00082A13D38B07B1D010F00303AED0C3F1A0
:1001FC000403D21ADB071CBF11F8013B00F8013BCA
:10020C00A4D331F8023B20F8023B9FE7043AD9D340
:10021C00013A11F8013B00F8013BF9D20B7803705D
:10022C004B7843708B7883706046704710B5054CE3
:10023C000821204601F034FE236840F2DC52DA63D8
:10024C0010BD00BFB024002010B50B4C01220821BA
:10025C00204601F015F801221021204601F010F87B
:10026C0000220821204601F00BF800221021204624
:10027C0001F006F810BD00BF000C014010B5084C91
:10028C0000220821204600F0FBFF0122102120460D
:10029C0000F0F6FF01220821204600F0F1FF10BD0E
:1002AC00000C014010B5084C01220821204600F03A
:1002BC00E7FF01221021204600F0E2FF002210216E
:1002CC00204600F0DDFF10BD000C014070B5044667
:1002DC00002513E0002208210E4800F0D1FF0D4E3E
:1002EC0001221021304600F0CBFF002210213046B5
:1002FC0000F0C6FF6400E4B20135EDB2072D08D85A
:10030C0014F0800FE6D001220821024800F0B8FF5B
:10031C00E5E770BD000C014038B504460D46FFF70B
:10032C0093FF7820FFF7D2FFFFF7BCFF65B14020A9
:10033C00FFF7CCFFFFF7B6FF2046FFF7C7FFFFF72D
:10034C00B1FFFFF79BFF38BD0020FFF7BFFFF1E7C0
:10035C0010B5044610B1012C05D010BD0021A6200B
:10036C00FFF7DAFFF7E70021A720FFF7D5FFF4E747
:10037C0010B5044610B1012C09D010BD0021C820C5
:10038C00FFF7CAFF0021A120FFF7C6FFF3E700210A
:10039C00C020FFF7C1FF0021A020FFF7BDFFECE755
:1003AC0038B500250DE0104B03EBC4030121585D5B
:1003BC00FFF7B2FF0134E4B214F0800FF3D0013533
:1003CC00EDB2072D0FD8A5F150000021C0B2FFF7F8
:1003DC00A3FF00210846FFF79FFF00211020FFF725
:1003EC009BFF0024E8E738BD001F002008B5002063
:1003FC000BE0094A02EBC302002111540133DBB2BA
:10040C0013F0800FF5D00130C0B2072801D80023BB
:10041C00F6E7FFF7C5FF08BD001F00204FEAD10C1F
:10042C0001F0070101238B40DBB242B10C4A02EB15
:10043C00C00010F80C20134300F80C307047084A29
:10044C0002EBC00010F80C20D243D2B200F80C2002
:10045C00134300F80C30DB4300F80C30704700BF3E
:10046C00001F00202DE9F04F87B002900D46059239
:10047C009A469DF84080DB080493019107460023BF
:10048C000393049A1346013AD2B20492002B5FD024
:10049C00059B0AFB03FBCBF3C70B039B9B445FFA47
:1004AC008BFB0133DBB203934FF0000936E02A4B90
:1004BC0003EB0B1313F80960002419E00BEBCB03CF
:1004CC00264A02EBC30313F80960F5E7244B03EB50
:1004DC00CB1313F80960EFE7B8FA88F252092946F2
:1004EC003846FFF79BFF76080135EDB20134E4B2D4
:1004FC00072C08D816F0010FEED042462946384694
:10050C00FFF78CFFEFE70137FFB2029BFB1A9A450E
:10051C0018D009F101095FFA89F9019DD145B0D2D2
:10052C00BAF1100FC3D0BAF1180FC7D0BAF1200F1F
:10053C00CCD0BAF1400F0BD10A4B03EB4B2313F881
:10054C000960B9E7019B0833DBB20193029FE0E736
:10055C0007B0BDE8F08F00BF00000020C0030020F2
:10056C00980400209806002008B5C82000F004FD6F
:10057C000021AE20FFF7D0FE00210846FFF7CCFE8D
:10058C0000211020FFF7C8FE00214020FFF7C4FE19
:10059C0000218120FFF7C0FE0021CF20FFF7BCFE19
:1005AC000021A120FFF7B8FE0021C820FFF7B4FE00
:1005BC000021A620FFF7B0FE0021A820FFF7ACFE1B
:1005CC0000213F20FFF7A8FE0021D320FFF7A4FE57
:1005DC0000210846FFF7A0FE0021D520FFF79CFE66
:1005EC0000218020FFF798FE0021D920FFF794FE10
:1005FC000021F120FFF790FE0021DA20FFF78CFE9E
:10060C0000211220FFF788FE0021DB20FFF784FE7B
:10061C0000214020FFF780FE00212020FFF77CFE08
:10062C0000210220FFF778FE00218D20FFF774FED9
:10063C0000211420FFF770FE0021A420FFF76CFEB0
:10064C000021A620FFF768FE0021AF20FFF764FE13
:10065C00FFF7CCFE08BD000030B589B0002404942F
:10066C000594069407941C4B9A6942F020029A61F7
:10067C009A6902F020020192019A9A6942F00402EE
:10068C009A619A6902F004020292029A9A6942F003
:10069C0008029A619B6903F008030393039B0F4DB7
:1006AC0022464FF21801284600F0EAFD0723049376
:1006BC000594069404A9284600F0D0FC4FF21803C8
:1006CC0004930123059306940223079304A9284657
:1006DC0000F0C4FC09B030BD00100240000C014019
:1006EC0008B50B480B4B03600B4B43600023836036
:1006FC00C3604FF48042026143618361C361036252
:10070C0000F0CEFD00B908BD00F03AF8FBE700BFE1
:10071C008023002000580040A086010010B586B050
:10072C00002302930393049305930268114B9A429E
:10073C0001D006B010BD104CA36943F00803A361AF
:10074C00A36903F008030093009B4FF440630293EA
:10075C00122303930323059302A9084800F07EFC9F
:10076C00E36943F48003E361E36903F480030193D9
:10077C00019BDEE70058004000100240000C0140D5
:10078C0072B6FEE700B591B02822002106A801F050
:10079C00F9FC002301930293039304930593022322
:1007AC00069301230A9310230B9306A800F06CFE0A
:1007BC0068B90F23019300210291039104910591D3
:1007CC0001A801F0A1F820B911B05DF804FBFFF706
:1007DC00D7FFFFF7D5FF000000B583B000F0A8FBF2
:1007EC00FFF7D0FFFFF738FFFFF77AFF00F006FAAC
:1007FC0000F0EAF800F018F900F064FA00F0A4FA3E
:10080C0000F0BCFA2F4801F05DFDFFF70FFDFFF77C
:10081C00ABFE0020FFF79CFD0020FFF7A9FD012493
:10082C0000941023002211461920FFF71BFE0094A0
:10083C001023224600212920FFF714FE00941023D8
:10084C00022200213920FFF70DFE00941023032211
:10085C0000214920FFF706FE0094102304220021FA
:10086C005920FFF7FFFD0094102309221921084697
:10087C00FFF7F8FD009410230A2219212920FFF715
:10088C00F1FD009410230B2219213920FFF7EAFD0A
:10089C00009410230C2219214920FFF7E3FD00944A
:1008AC0010230D2219215920FFF7DCFDFFF778FDED
:1008BC004FF40051044800F0E9FC4FF4FA7000F0DA
:1008CC005BFBF5E7BC3B00080010014082B00E4B0F
:1008DC009A6942F001029A619A6902F0010200924F
:1008EC00009ADA6942F08052DA61DB6903F08053D6
:1008FC000193019B054A536823F0E06343F00073B6
:10090C00536002B0704700BF00100240000001406D
:10091C00FEE7FEE7FEE7FEE7FEE77047704770472D
:10092C0008B500F017FB08BD70B50C46164600253F
:10093C0006E0AFF30080214601F8010B01350C46AF
:10094C00B542F6DB304670BD70B50C461646002538
:10095C0004E014F8010BAFF300800135B542F8DB6D
:10096C00304670BD4FF0FF3070474FF400534B6072
:10097C0000207047012070470020704710B50346D7
:10098C000C4A0D490D48006840B10C4800680344FE
:10099C00521A934206D8094A136010BD0748084CF6
:1009AC000460F2E701F0C4FB0C2303604FF0FF304E
:1009BC00F3E700BF0050002000040000D423002007
:1009CC00D02500207047000000B58DB024220021F6
:1009DC0003A801F0D7FB00230193029311484FF0B9
:1009EC0080420260436083604FF6FF72C260036115
:1009FC008361012303930593099303A901F04AF939
:100A0C0050B900230193029301A9064801F0B6FAEC
:100A1C0028B90DB05DF804FBFFF7B2FEF1E7FFF764
:100A2C00AFFEF6E72024002000B58DB02422002173
:100A3C0003A801F0A7FB0023019302931148124A6B
:100A4C000260436083604FF6FF72C2600361836192
:100A5C00012303930593099303A901F01BF950B9E2
:100A6C0000230193029301A9064801F087FA28B9E3
:100A7C000DB05DF804FBFFF783FEF1E7FFF780FE96
:100A8C00F6E700BF682400200004004082B0036831
:100A9C000E4A934204D00E4A93420CD002B07047D7
:100AAC000C4B9A6942F400629A619B6903F40063EF
:100ABC000093009BF2E7074BDA6942F00402DA611B
:100ACC00DB6903F004030193019BE7E7002C014071
:100ADC00000800400010024000B589B000230493C8
:100AEC000593069307930368B3F1804F05D01D4A15
:100AFC0093421DD009B05DF804FB03F50433DA69A9
:100B0C0042F00102DA61DA6902F001020092009A05
:100B1C009A6942F004029A619B6903F00403019301
:100B2C00019B0323049304A90F4800F097FAE1E713
:100B3C000E4BDA6942F00202DA61DA6902F0020263
:100B4C000292029A9A6942F004029A619B6903F03C
:100B5C0004030393039BC023049304A9024800F0ED
:100B6C007DFAC7E700040040000801400010024075
:100B7C0000B587B000230293039304930593036895
:100B8C00194A934205D0194A934217D007B05DF821
:100B9C0004FB174B9A6942F004029A619B6903F0BB
:100BAC0004030093009B4FF44073029302230393BE
:100BBC00059302A90F4800F051FAE7E70C4B9A692C
:100BCC0042F008029A619B6903F008030193019BB0
:100BDC004FF48073029302230393059302A90648F2
:100BEC0000F03CFAD2E700BF002C014000080040A6
:100BFC000010024000080140000C014010B592B0FA
:100C0C0000241094119409940A940B940C940D9450
:100C1C000E940F942022214601A801F0B3FA274824
:100C2C00274B0360446084604FF6FF73C36004611C
:100C3C004461846101F002F8002830D10023109344
:100C4C00119310A91D4801F099F900282AD16023AD
:100C5C00099300220A920B920C920D920E920F9213
:100C6C0009A9164801F0A4F8F8B9042209A91348F7
:100C7C0001F09EF8E0B900230193029303930493CF
:100C8C0005934FF400520692089301A90B4801F00A
:100C9C00ABF980B90948FFF76BFF12B010BDFFF735
:100CAC006FFDCBE7FFF76CFDD1E7FFF769FDDCE7E4
:100CBC00FFF766FDDFE7FFF763FDEBE7D8230020C6
:100CCC00002C014000B58BB00023089309930193CD
:100CDC000293039304930593069307931848194AB8
:100CEC00026047224260836044F61F62C260036167
:100CFC008023836100F0A2FFC8B9002308930993F5
:100D0C0008A90F4801F03AF9A0B960230193002318
:100D1C00029303930593082201A9094801F048F8AE
:100D2C0058B90748FFF724FF0BB05DF804FBFFF739
:100D3C0027FDE2E7FFF724FDE7E7FFF721FDF0E7EA
:100D4C00B02400200008004008B50A480A4B036094
:100D5C004FF4E133436000238360C36003610C22D2
:100D6C0042618361C36101F0B3F900B908BDFFF7BB
:100D7C0007FDFBE7F82400200038014008B50A48BD
:100D8C000A4B03604FF4E133436000238360C3607C
:100D9C0003610C2242618361C36101F099F900B9CE
:100DAC0008BDFFF7EDFCFBE73C25002000440040AC
:100DBC0010B588B00023049305930693079303683A
:100DCC002F4A934204D02F4A934230D008B010BD22
:100DDC002D4B9A6942F480429A619A6902F48042DE
:100DEC000092009A9A6942F008029A619B6903F09A
:100DFC0008030193019B40230493022305930323CF
:100E0C000793224C04A9204600F028F98023049370
:100E1C0000230593069304A9204600F01FF91C4AF1
:100E2C00536843F0E06343F004035360CEE7164B82
:100E3C00DA6942F40032DA61DA6902F400320292C1
:100E4C00029A9A6942F004029A619B6903F00403C6
:100E5C000393039B04230493022305930323079317
:100E6C000C4C04A9204600F0F9F808230493002345
:100E7C000593069304A9204600F0F0F8A6E700BFFE
:100E8C00003801400044004000100240000C0140BA
:100E9C0000000140000801400C480D490D4A002398
:100EAC0002E0D458C4500433C4188C42F9D30A4A13
:100EBC000A4C002301E013600432A242FBD3FFF77B
:100ECC0081FD01F03BF9FFF787FC70470000002023
:100EDC00E41E0020043C0008E41E0020CC25002069
:100EEC00FEE7000010B504460E4B18784FF47A73E9
:100EFC00B3FBF0F30C4A1068B0FBF3F000F09AF877
:100F0C0068B90F2C01D901200AE0002221464FF0CC
:100F1C00FF3000F057F8054B1C60002000E001206A
:100F2C0010BD00BF9C16002098160020A0160020B3
:100F3C0008B5074A136843F010031360032000F050
:100F4C002FF80F20FFF7CEFFFFF7C0FC002008BDE5
:100F5C0000200240034A1168034B1B780B441360BA
:100F6C00704700BF802500209C160020014B18689C
:100F7C00704700BF8025002038B50446FFF7F6FF08
:100F8C000546B4F1FF3F02D0044B1B781C44FFF71D
:100F9C00EDFF401BA042FAD338BD00BF9C160020C9
:100FAC00074AD36823F4E0631B041B0C000200F413
:100FBC00E060034343F0BF6343F40033D3607047F6
:100FCC0000ED00E000B5194BDB68C3F30223C3F15D
:100FDC00070CBCF1040F28BF4FF0040C03F1040EF6
:100FEC00BEF1060F18D9033B4FF0FF3E0EFA0CFC76
:100FFC0021EA0C0199400EFA03F322EA0303194388
:10100C0000280BDB0901C9B200F1604000F561401A
:10101C0080F800135DF804FB0023E5E700F00F00F7
:10102C000901C9B2024B1954F4E700BF00ED00E00E
:10103C0014ED00E00138B0F1807F0BD24FF0E023CB
:10104C005861054AF02182F823100020986107228C
:10105C001A6170470120704700ED00E070B582B056
:10106C000024A446A6E0804DAA4210D007D97F4D9B
:10107C00AA420CD005F58035AA4208D013E0A5F59C
:10108C008015AA4203D005F57025AA4207D18A68BB
:10109C00002A58D0012A51D04361082403E0A5F559
:1010AC008015AA42F3D0BEF1FF0F4ED80646BEF112
:1010BC00FF0F4CD84FEA8C0233680F25954023EA7A
:1010CC00050304FA02F2134333604B6813F0805F9C
:1010DC006ED0674B9A6942F001029A619B6903F0EA
:1010EC0001030193019B4FEA9C02951C614B53F841
:1010FC0025600CF003039D000F23AB4026EA03068A
:10110C005D4B984229D003F58063984200F08E80A5
:10111C0003F58063984200F08B8003F5806398425E
:10112C0019D004231AE0CC68BDE7CC680434BAE7C4
:10113C00CC680834B7E7CC680C34B4E703610824F6
:10114C00B1E70024AFE70424ADE7061DAFE7ACF12F
:10115C0008029200B0E7032300E00023AB403343C6
:10116C000232444D45F822304B6813F4803F61D075
:10117C00424A136843EA0E0313604B6813F4003FB2
:10118C005ED03E4A536843EA0E0353604B6813F437
:10119C00801F5BD0394A936843EA0E0393604B6817
:1011AC0013F4001F58D0354AD36843EA0E03D360BA
:1011BC000CF1010C0A6832FA0CF353D0012303FA38
:1011CC000CF302EA030E33EA0202F1D14A68122A46
:1011DC003FF649AF122A3FF666AF01A555F822F04B
:1011EC009B100008331100083D1100084F11000836
:1011FC00B3100008B3100008B3100008B3100008B7
:10120C00B3100008B3100008B3100008B3100008A6
:10121C00B3100008B3100008B3100008B310000896
:10122C00B31000083711000843110008012395E79B
:10123C00022393E7114A136823EA0E0313609CE719
:10124C000E4A536823EA0E0353609FE70B4A9368D8
:10125C0023EA0E039360A2E7084AD36823EA0E033D
:10126C00D360A5E702B070BD000022100000311061
:10127C000010024000000140000801400004014041
:10128C000AB101617047090401617047C36801EA42
:10129C00030221EA030141EA0241016170470000A7
:1012AC00002800F0CC8070B5044690F83D30002B3F
:1012BC0077D0242384F83D302268136823F001038F
:1012CC0013602268136843F40043136022681368A8
:1012DC0023F40043136000F0D3FB62685A4B9A422C
:1012EC0064D85A4B98428CBF00230123002B40F04A
:1012FC00A8805749A1FB00318B0C25686A6822F045
:10130C003F0242EA91426A6021680A6A22F03F0277
:10131C0066684D4DAE424FD8013313430B622168C2
:10132C00CA6922F44F4222F0FF026668464B9E4285
:10133C004CD8431E7600B3FBF6F3013340F6FC7039
:10134C00034278D0C3F30B031343CB6121680B68C2
:10135C0023F0C003E269206A024313430B60216847
:10136C008B6823F4034323F0FF032269E0680243F4
:10137C0013438B602168CB6823F0FF036269A0697B
:10138C0002431343CB602268136843F001031360DC
:10139C0000202064202384F83D30206384F83E0034
:1013AC0070BD80F83C30FFF7B9F982E7294B9842C1
:1013BC008CBF0023012399E74FF4967505FB03F3CB
:1013CC00254DA5FB03539B090133A6E7A368BBB9C5
:1013DC00451E06EB460CB5FBFCF50135C5F30B05BC
:1013EC00B5FA85F56D0945BBC3B9013806EB460363
:1013FC00B0FBF3F30133C3F30B0343F40043A3E754
:10140C00451E06EB860C0CEB8C0CB5FBFCF5013584
:10141C00C5F30B05B5FA85F56D09E4E7013806EB64
:10142C00860303EB8303B0FBF3F30133C3F30B032A
:10143C0043F4404388E7042386E7012384E7012033
:10144C0070470120ACE700BFA08601007F841E001E
:10145C0083DE1B43FF083D00D34D621082B0084B66
:10146C001B68084AA2FB03235B0A00FB03F30193EE
:10147C0000BF019B5A1E0192002BF9D102B070479C
:10148C0098160020D34D6210002800F0F18170B541
:10149C0082B00446036813F0010F2CD0994B5B68A3
:1014AC0003F00C03042B1DD0964B5B6803F00C036C
:1014BC00082B12D06368B3F5803F41D0002B55D177
:1014CC0003F1804303F504331A6822F480321A6066
:1014DC001A6822F480221A6037E08A4B5B6813F496
:1014EC00803FE7D0874B1B6813F4003F03D0636841
:1014FC00002B00F0BF81236813F0020F75D0814BD5
:10150C005B6813F00C0F5FD07E4B5B6803F00C0331
:10151C00082B54D02369002B00F08A807A4B0122CF
:10152C001A60FFF723FD0546764B1B6813F0020F7C
:10153C0075D1FFF71BFD401B0228F5D903209EE156
:10154C00704A136843F480331360636843B3FFF746
:10155C000DFD05466B4B1B6813F4003FCBD1FFF719
:10156C0005FD401B6428F5D9032088E1B3F5A02FB5
:10157C0009D0644B1A6822F480321A601A6822F47B
:10158C0080221A60E1E703F18043A3F53C331A682B
:10159C0042F480221A601A6842F480321A60D4E74E
:1015AC00FFF7E4FC0546574B1B6813F4003FA2D031
:1015BC00FFF7DCFC401B6428F5D903205FE1514B9D
:1015CC005B6813F4803FA5D14E4B1B6813F0020FE0
:1015DC0003D02369012B40F04F814A4A136823F052
:1015EC00F803616943EAC1031360236813F0080F21
:1015FC0033D0A369002B5CD0434B0122C3F8802469
:10160C00FFF7B4FC05463F4B5B6A13F0020F21D188
:10161C00FFF7ACFC401B0228F5D903202FE1394A17
:10162C00136823F0F803616943EAC1031360DCE734
:10163C00354B00221A60FFF799FC0546314B1B68AD
:10164C0013F0020FD1D0FFF791FC401B0228F5D903
:10165C00032014E10120FFF701FF236813F0040FAE
:10166C0000F09680274BDB6913F0805F34D1254B5B
:10167C00DA6942F08052DA61DB6903F0805301933E
:10168C00019B0125214B1B6813F4807F26D0E36856
:10169C00012B3DD0002B53D103F1804303F50433D0
:1016AC001A6A22F001021A621A6A22F004021A6201
:1016BC0033E0154B0022C3F88024FFF757FC054696
:1016CC00104B5B6A13F0020FC7D0FFF74FFC401BA7
:1016DC000228F5D90320D2E00025D3E70B4A136882
:1016EC0043F480731360FFF741FC0646074B1B68FD
:1016FC0013F4807FCBD1FFF739FC801B6428F5D91C
:10170C000320BCE000100240000042420070004088
:10171C005F4A136A43F001031362E36833B3FFF7C4
:10172C0025FC06465A4B1B6A13F0020F2FD1FFF70C
:10173C001DFC801B41F288339842F3D903209EE0B4
:10174C00052B09D0524B1A6A22F001021A621A6A4E
:10175C0022F004021A62E0E74D4B1A6A42F00402CE
:10176C001A621A6A42F001021A62D6E7FFF7FEFB10
:10177C000646474B1B6A13F0020F08D0FFF7F6FB27
:10178C00801B41F288339842F3D9032077E0E5B906
:10179C00E369002B72D03E4A526802F00C02082A10
:1017AC0056D0022B17D03B4B00221A66FFF7DEFBFC
:1017BC000446374B1B6813F0007F47D0FFF7D6FB6E
:1017CC00001B0228F5D9032059E0314AD36923F0D4
:1017DC008053D361DCE72F4B00221A66FFF7C6FB60
:1017EC0005462B4B1B6813F0007F06D0FFF7BEFBA2
:1017FC00401B0228F5D9032041E0236AB3F5803F52
:10180C001AD023494B6823F47413226A606A02438A
:10181C0013434B601F4B01221A66FFF7A7FB0446CC
:10182C001B4B1B6813F0007F0ED1FFF79FFB001BB7
:10183C000228F5D9032022E0154A536823F400331B
:10184C00A1680B435360DCE7002018E0002016E091
:10185C00012B16D00E4B5B6803F48031226A914247
:10186C0011D103F47013626A93420ED1002006E08A
:10187C0001207047012002E0012000E0002002B0AE
:10188C0070BD0120FBE70120F9E70120F7E700BF5D
:10189C00001002400000424286B0174B0FCB0DF1F6
:1018AC00180C0CE90F0040F20123ADF80430134B77
:1018BC005B6803F00C02082A02D0114806B070478E
:1018CC00C3F3834218326A4412F8100C13F4803FAD
:1018DC000DD00A4B5B68C3F3404318336B4413F8C9
:1018EC00143C074A02FB00F0B0FBF3F0E6E7054BB3
:1018FC0003FB00F0E2E700BFDC3B000800100240F5
:10190C0000127A0000093D00002800F0A08070B59C
:10191C000D460446524B1B6803F007038B420BD257
:10192C004F4A136823F007030B431360136803F04B
:10193C0007038B4240F08D80236813F0020F17D001
:10194C0013F0040F04D0474A536843F4E063536028
:10195C00236813F0080F04D0424A536843F46053D1
:10196C005360404A536823F0F003A1680B43536063
:10197C00236813F0010F31D06368012B20D0022BA8
:10198C0025D0384A126812F0020F64D035494A68E3
:10199C0022F0030213434B60FFF7E8FA0646314B83
:1019AC005B6803F00C036268B3EB820F16D0FFF791
:1019BC00DDFA801B41F288339842F0D9032045E0D0
:1019CC00284A126812F4003FE0D101203EE0254A7B
:1019DC00126812F0007FD9D1012037E0204B1B6830
:1019EC0003F00703AB420AD91D4A136823F007031F
:1019FC002B431360136803F00703AB422DD123680C
:101A0C0013F0040F06D0174A536823F4E063E1681F
:101A1C000B435360236813F0080F07D0114A536827
:101A2C0023F46053216943EAC1035360FFF734FF89
:101A3C000C4B5B68C3F303130B4AD35CD8400B4BC2
:101A4C0018600B4B1868FFF74DFA002070BD012091
:101A5C0070470120FAE70120F8E70120F6E700BF04
:101A6C000020024000100240C43B000898160020E1
:101A7C00A0160020014B1868704700BF9816002074
:101A8C0008B5FFF7F7FF044B5B68C3F30223034A67
:101A9C00D35CD84008BD00BF00100240D43B000806
:101AAC0008B5FFF7E7FF044B5B68C3F3C223034A97
:101ABC00D35CD84008BD00BF00100240D43B0008E6
:101ACC0070B4036A23F001030362036A46688269F7
:101ADC0022F073020C6844EA020523F002028B68C0
:101AEC0013430D4CA04209D00B4CA0420DD04660C4
:101AFC0085614A684263036270BC704723F0080337
:101B0C00CA68134323F00403EEE726F440764A69CF
:101B1C0032438E691643EAE7002C014030B4036A65
:101B2C0023F480730362036A4568C26922F073026E
:101B3C000C68224323F400738C6843EA04230F4C93
:101B4C00A04209D00D4CA0420ED04560C2614A683B
:101B5C00C263036230BC704723F40063CC6843EA71
:101B6C00042323F48063EDE725F440554C6945EAE2
:101B7C0004158C6945EA0415E7E700BF002C014009
:101B8C0030B4036A23F480530362036A4468C26965
:101B9C0022F4E6420D6842EA052223F400538D68D4
:101BAC0043EA0533074DA84206D04460C2614A6837
:101BBC000264036230BC704724F480444D6944EAEB
:101BCC008514F2E7002C014003681B4A90420AD0AE
:101BDC00B0F1804F07D0A2F59432904203D002F5B9
:101BEC008062904203D123F070034A681343124A77
:101BFC0090420AD0B0F1804F07D0A2F594329042B7
:101C0C0003D002F58062904203D123F44073CA687A
:101C1C00134323F080034A69134303608B68C36248
:101C2C000B688362044B984202D0012343617047D6
:101C3C000B690363F9E700BF002C014040B310B5FA
:101C4C00044690F83D30F3B1022384F83D30214630
:101C5C0051F8040BFFF7B8FF012384F8463084F8E1
:101C6C003E3084F83F3084F8403084F8413084F8BA
:101C7C00423084F8433084F8443084F8453084F89A
:101C8C003D30002010BD80F83C30FEF7FFFEDBE756
:101C9C0001207047002857D070B50D46044690F8C7
:101CAC003D30002B4BD0022384F83D3022689368E2
:101CBC0023F4804323F007039360214651F8040B6F
:101CCC00FFF782FF21688A688B690E6A28681043C7
:101CDC0023F4407C2CF0030CAA68AB6942EA032382
:101CEC0043EA0C0323F47C4323F0FC03EA69D5F8A4
:101CFC000CC04CEA022C4CEA030C2A6A13032A6926
:101D0C0043EA021343EA0C0326F022066A686D6963
:101D1C0042EA05123243886021688B6123681A629B
:101D2C00012384F8463084F83E3084F83F3084F840
:101D3C00423084F8433084F83D30002070BD80F888
:101D4C003C30FEF7C9FEAEE70120704730B4036AA1
:101D5C0023F010030362036A4468826922F4E642AA
:101D6C000D6842EA052223F020038D6843EA05132F
:101D7C000E4DA84209D00D4DA8420ED04460826190
:101D8C004A688263036230BC704723F08003CD68DD
:101D9C0043EA051323F04003EDE724F440644D6956
:101DAC0044EA85048D6944EA8504E7E7002C014088
:101DBC0038B590F83C30012B60D004460D46012319
:101DCC0080F83C300C2A1AD8DFE802F007191919F0
:101DDC001D1919193119191944000068FFF770FE03
:101DEC002268936943F0080393612268936923F096
:101DFC00040393612268936929690B439361002062
:101E0C0084F83C0038BD0068FFF7A0FF2268936996
:101E1C0043F4006393612268936923F480639361B4
:101E2C0022689369296943EA01239361E7E7006813
:101E3C00FFF774FE2268D36943F00803D36122686C
:101E4C00D36923F00403D3612268D36929690B4356
:101E5C00D361D4E70068FFF793FE2268D36943F49B
:101E6C000063D3612268D36923F48063D361226851
:101E7C00D369296943EA0123D361C0E70220C1E792
:101E8C0001F01F01012303FA01FC036A23EA0C038E
:101E9C000362036A02FA01F10B430362704700000C
:101EAC0010B50446084651BB94F83E30DBB2013BFA
:101EBC0018BF0123002B5BD1002839D1022384F8F1
:101ECC003E30012201462068FFF7DAFF23682A4AD8
:101EDC0093423DD02368284A93423ED0B3F1804FC1
:101EEC003BD0A2F59432934237D002F580629342F4
:101EFC0033D01A6842F001021A60002039E004293C
:101F0C0008D008290DD094F84130DBB2013B18BF42
:101F1C000123CFE794F83F30DBB2013B18BF01231C
:101F2C00C8E794F84030DBB2013B18BF0123C1E78E
:101F3C00042805D0082807D0022384F84130C0E7D4
:101F4C00022384F83F30BCE7022384F84030B8E722
:101F5C005A6C42F400425A64BCE79A6802F00702D9
:101F6C00062A07D01A6842F001021A60002000E02D
:101F7C00012010BD0020FCE7002C014090F83C3003
:101F8C00012B2CD010B4012380F83C30022380F8B4
:101F9C003D3003685A689C6822F0700C0A6842EA6B
:101FAC000C025A6003680F4A93420AD0B3F1804F77
:101FBC0007D0A2F59432934203D002F5806293428B
:101FCC0004D124F080044A6814439C60012380F8F7
:101FDC003D30002380F83C30184610BC704702207E
:101FEC00704700BF002C014090F83C30012B22D0F0
:101FFC00012380F83C30CB6823F440738A68134388
:10200C0023F480634A68134323F400630A68134380
:10201C0023F480530A69134323F400534A6913438E
:10202C0023F48043CA69134302685364002380F885
:10203C003C301846704702207047000010B504462B
:10204C000268136923F44053C1680B43136183681E
:10205C000269134342691A430168CB6823F4B053F5
:10206C0023F00C031343CB600268536923F44073D1
:10207C0081690B4353610268134B9A4220D0FFF7DE
:10208C00FFFC024602EB820202EB820263689B00B9
:10209C00B2FBF3F20D48A0FB02314909642303FBA8
:1020AC0011231B013233A0FB03235B0903F0F00265
:1020BC0002EB011203F00F03216813448B6010BD77
:1020CC00FFF7EEFC0246DDE7003801401F85EB51BF
:1020DC0058B310B5044690F83D300BB3242384F864
:1020EC003D302268D36823F40053D3602046FFF7B9
:1020FC00A5FF2268136923F4904313612268536986
:10210C0023F02A0353612268D36843F40053D3604D
:10211C0000202064202384F83D3084F83E3010BD2C
:10212C0080F83C30FEF744FED8E7012070470000F1
:10213C00014B1868704700BFA416002070B50D4EF7
:10214C000D4D761BB61006D0002455F8043B013417
:10215C009847A642F9D1094E094D01F01DFD761B99
:10216C00B61006D0002455F8043B01349847A6421B
:10217C00F9D170BDF83B0008F83B0008003C0008A2
:10218C00F83B0008830730B548D0541E002A3FD0D6
:10219C000346CAB201E0013C3AD303F8012B9D0778
:1021AC00F9D1032C2DD9CDB245EA05250F2C45EAE2
:1021BC00054536D9A4F1100222F00F0C03F1200EC4
:1021CC00E6444FEA121C03F1100242E9045542E9BD
:1021DC00025510327245F8D10CF1010214F00C0FBB
:1021EC0003EB021204F00F0C13D0ACF1040323F038
:1021FC0003030433134442F8045B9342FBD10CF009
:10220C0003042CB1CAB21C4403F8012B9C42FBD131
:10221C0030BD64461346002CF4D1F9E7034614464E
:10222C00BFE71A46A446E0E730B5054689B0084634
:10223C000C4600F04FF801210223214A0494069227
:10224C00AA6B04AC0590084401940791AC68029306
:10225C00039022B3636E13F0010FB4F90C309AB2F1
:10226C0001D1980525D5910406D4626E43F4005330
:10227C0022F40052A3816266284601AA214600F08E
:10228C0015F9636E002814BF4FF0FF350A25DA07E5
:10229C0002D4A3899B0506D5284609B030BD284633
:1022AC0000F05CF8D6E7A06D00F0A2FA284609B061
:1022BC0030BDA06D00F09AFAB4F90C309AB2D2E7A6
:1022CC00F43B0008024B01461868FFF7ADBF00BF96
:1022DC00A416002020F0030110F00300C0F1000050
:1022EC0051F8043B00F1040C4FEACC0C6FF00002E7
:1022FC001CBF22FA0CF213434FF0010C4CEA0C2CCD
:10230C004CEA0C4CA3EB0C0222EA030212EACC12AC
:10231C0004BF51F8043B0430F4D0C2F1000102EACE
:10232C000102B2FA82F2C2F11F0200EBD200704736
:10233C00024B13B1024800F005B8704700000000D2
:10234C008D240008002301461A46184601F094B863
:10235C00014900F023BA00BF353500082DE9F047DC
:10236C008246394800F042FADAF83840002C66D13F
:10237C00042303223549DAF80450CAF83C10DFF87C
:10238C00D090DFF8D080344F344E0AF53B71CAE957
:10239C00B921CAF8E0422146EB600822C5E90044A5
:1023AC00C5E904446C66AC60AC6105F15C00FFF7F8
:1023BC00E9FEC5E90759C5E90987EE6205F1580040
:1023CC0000F010FADAF80850254B2146EB60082291
:1023DC00C5E90044C5E904446C66AC60AC6105F128
:1023EC005C00FFF7CFFEC5E90759C5E90987EE6226
:1023FC0005F1580000F0F6F9DAF80C50194B2146AB
:10240C00EB600822C5E90044C5E904446C66AC6085
:10241C00AC6105F15C00FFF7B5FE05F15800C5E9AC
:10242C000759C5E90A76C5F8248000F0DBF90123C9
:10243C000548CAF83830BDE8F04700F0D9B9024871
:10244C00BDE8F04700F0D4B9902500205D230008CA
:10245C00F93200081D3300085D3300087D33000895
:10246C000900010012000200014800F0BFB900BFD2
:10247C008C250020014800F0BBB900BF8C25002042
:10248C0038B5084B084D5B1B9C1007D0043B1D4412
:10249C00013C55F804399847002CF9D1BDE8384077
:1024AC0001F080BB043C0008003C00089368002B42
:1024BC0000F0B7802DE9F04FB1F90C300C4619073C
:1024CC008046174683B098B225D523691BB310F00C
:1024DC0002033D682DD04FF0000B5E46DFF8B8A22A
:1024EC00002E00F08B80564533465A4628BF534683
:1024FC004046E169D4F824C0E047002840F38780C7
:10250C00BB6883441B1A361ABB60002BE8D1002031
:10251C0003B0BDE8F08F2146404600F043FF002891
:10252C0040F03681B4F90C303D6898B210F00203DB
:10253C00D1D110F0010976D14E46002E5AD0820529
:10254C00D4F808B040F1B580B3455A4600F2CD80BE
:10255C0010F4906F00F0CB8023682169A3EB010B82
:10256C00636903EB430A0AEBDA7A0BF101034FEAD6
:10257C006A0A33445345524684BF9A465246430531
:10258C0040F1EA801146404600F034F9002800F092
:10259C00F9805A4621690190FDF7D2FDA289019B71
:1025AC0022F4906242F08002A28103EB0B002361C3
:1025BC003246AAEB0B03B346C4F814A0A360206008
:1025CC00B24600264946019200F008FCA368216837
:1025DC00019AA3EB0B030A44A3602260B868D144B0
:1025EC00A0EB0A00B860002891D0B4F90C0080B2BE
:1025FC00002EA4D1D5E9009608359EE7D5E900B6A2
:10260C0008356DE72146404601F086F880B3B4F9F1
:10261C000C304FF0FF3043F04003A38103B0BDE812
:10262C00F08F002070471E46AA46994618461D4654
:10263C0056B3002832D04A4620682169B24228BFDE
:10264C0032468842636904D9A16803EB010B5A45F1
:10265C0074DC934265DC2A464046E169D4F824C018
:10266C00E047B0F1000BD2DDB9EB0B09CAD0012069
:10267C00BB685D44A3EB0B03A6EB0B06BB60002B06
:10268C003FF445AF002ED4D10AF1080353F8046C83
:10269C009A4653F8085C0833002EF7D032460A21CC
:1026AC00284600F053FB002869D00130A0EB050947
:1026BC00C1E72068236998421BD86369B34218D8D4
:1026CC006FF0004CB44528BFB4469CFBF3FC4A4663
:1026DC0003FB0CF34046E169D4F824C0E047B0F1A9
:1026EC00000A94DDA6EB0A0678E7B346324620686A
:1026FC0066E7B345DA4628BFB2464946524600F073
:10270C006DFBA3682268A3EB0A035244A36022600A
:10271C00002BE7D12146404600F0FEFF0028E1D017
:10272C0075E729469346019200F058FBA368019A7D
:10273C009B1AA36023681A44226095E729465A46DF
:10274C0000F04CFB236821465B444046236000F0BC
:10275C00E3FF002888D05AE7404600F0C7FB034649
:10276C0000287FF422AF4046216901F053F80C2277
:10277C00B4F90C30C8F8002023F0800349E7721C30
:10278C00914659E70C22B4F90C30C8F8002040E708
:10279C004FF0FF30BCE600BF00FCFF7F2DE9F84393
:1027AC004FF000090746884600F53876D6E9015403
:1027BC00013D10D4A389013D012B08D9B4F90E3089
:1027CC00013304D021463846C04749EA00096B1C46
:1027DC0004F16804EED13668002EE7D14846BDE816
:1027EC00F88300BF704700BF704700BF704700BF41
:1027FC00704700BF2DE9F04F01F10B05162D064671
:10280C0083B025D8102900F2B88000F063FB1025A6
:10281C0018224FF0020CB54F3A445368A2F108014C
:10282C008B4200F0B7805A68D96822F003021A4430
:10283C009C683046E1608C60516803F1080441F0FB
:10284C000101516000F04CFB204603B0BDE8F08F55
:10285C0035F0070500F19180A94200F28E8000F05E
:10286C0039FBB5F5FC7FC0F094816B0A00F08C80CD
:10287C00042B00F26A81AB0903F1390C03F1380423
:10288C004FEACC00994F384443680838984206D137
:10289C000CE0002980F22681DB68984206D05A6849
:1028AC0022F00302511B0F29F3DDA4463C69DFF82B
:1028BC0040E274457AD0626822F00302531B0F2B5E
:1028CC0000F37681002BC7E904EE80F26781B2F544
:1028DC00007F80F019810121D30852090B449140EB
:1028EC007A6857F833000A4307EBC3010839A06034
:1028FC00E1607A6047F83340C46001214FEAAC03D1
:10290C009940914259D8114206D12CF0030C490040
:10291C0011420CF1040CFAD007EBCC094846644682
:10292C00D0F80C80404508D11CE1002B80F22181AD
:10293C00D8F80C80404500F01581D8F8042022F01E
:10294C000302531B0F2BF0DD08EB050145F00105CD
:10295C00C8F804503046D8E90264F460A66043F02D
:10296C000104C7E904114C60C1E902EE48F80230D9
:10297C0000F0B6FA08F1080402E00C2300243360DE
:10298C00204603B0BDE8F08F4FF400704FF0400CC0
:10299C003F2477E7D3689A4208BF0CF1020C7FF40E
:1029AC0042AF3C69DFF848E1744584D101217A6873
:1029BC004FEAAC0399409142A5D9BC68636823F0F7
:1029CC0003094D4503D8A9EB05030F2B7ADCDFF87F
:1029DC0024B1494BDBF800201B6801322B4404EB7B
:1029EC00090A00F02F8103F580530F3323F47F681D
:1029FC0028F00F084146304600F066FC411C0246A8
:102A0C0000F0EF80824500F2EA803C4B19684144AB
:102A1C000846196000F04981DBF800100193013180
:102A2C001BBFA2EB0A0A5044CBF80020186012F02E
:102A3C00070B00F01181CBF108010A44CBF5805152
:102A4C0090440831A1EB0801C1F30B0A5146304602
:102A5C00009200F039FC421CDDE9002300F04B81B0
:102A6C00801A00EB0A08196848F001005144BC4276
:102A7C00BA601960506000F02481B9F10F0F40F278
:102A8C0022814FF0050E6068A9F10C0C2CF0070C9C
:102A9C0000F0010040EA0C006060BCF10F0F04EB89
:102AAC000C00C0E901EE00F22E8114465068144B64
:102ABC001A688A4238BF1960124B1A688A4238BFAA
:102ACC00196090E0621943F0010345F0010565605F
:102ADC003046BA600834536000F002FA204603B066
:102AEC00BDE8F08FD9681A44A2E600BFD41A0020C2
:102AFC00DC1A0020DC1E0020C425002094250020B8
:102B0C00BC250020C0250020B2F5206F4FEA5223CF
:102B1C005FD3142B00F2B18003F15C01C9005B336D
:102B2C00781879580838884200F08F804B6823F069
:102B3C000303934202D989688842F7D1C8687A683E
:102B4C00C4E902108460CC60D7E6142B59D9542BFD
:102B5C0000F29B802B0B03F16F0C03F16E044FEA18
:102B6C00CC008FE60134A30700F108007FF4D8AE47
:102B7C0053E0444642445368D8F80C1043F0010328
:102B8C00536054F8083F3046D9608B6000F0A8F9C8
:102B9C00F6E64FEAD50C05F108023CE622445368F0
:102BAC00304643F00103536000F09AF90834E7E62D
:102BBC00611945F00105656043F00105C7E9041191
:102BCC003046C1E902EE4D60A35000F089F908349B
:102BDC00D6E6930903F13901C9003833A0E7BC42AA
:102BEC005ED0BC68606820F003084545A8EB05037F
:102BFC0002D80F2B3FF766AF304600F071F9002476
:102C0C00BEE603F15C0C03F15B044FEACC0039E641
:102C1C0059F808394B4540F095801CF0030F0CF126
:102C2C00FF3CF5D17B6823EA01037B6049009942A4
:102C3C003FF6C3AE11B9C0E6490004341942FBD0CB
:102C4C00A44669E603F11008D4E601229B109A40D1
:102C5C007B681A437A6073E702EB08014942C1F3BF
:102C6C000B0A51463046009200F02EFB431CDDE966
:102C7C0000237FF4F5AEDA46F5E6542B26D8130B79
:102C8C0003F16F01C9006E334AE7B3F5AA7F26D86A
:102C9C00EB0B03F1780C03F177044FEACC00F1E570
:102CAC00294B186840441860B6E6CAF30B0CBCF10B
:102CBC00000F7FF4B1AEBC68C84448F001006060FE
:102CCC00F5E61446F3E60123536095E7B3F5AA7FC6
:102CDC0024D8D30B03F17801C900773320E740F2F5
:102CEC005452934224D8AB0C03F17D0C03F17C04B9
:102CFC004FEACC00C6E5ABF1080BD8444FF0000A04
:102D0C00A8EB0208AFE604F108013046009300F08E
:102D1C0081FDBC68009B60681968C8E640F254519C
:102D2C008B420BD8930C03F17D01C9007C33F7E681
:102D3C004FF47E704FF07F0C7E24A3E54FF47E7130
:102D4C007E23EDE67B6871E7942500205FFA81FC19
:102D5C00810710D00346511E2AB90AE09A0718467B
:102D6C000AD0013905D3184613F8012B6245F5D169
:102D7C00704700207047114603290CD80029F8D061
:102D8C000346014401E08B42F3D0184613F8012BA3
:102D9C006245F8D1ECE7024610B54CEA0C2444EA43
:102DAC0004441046036804326340A3F1013E2EEA4A
:102DBC00030313F0803F04D1043903291046F0D8E3
:102DCC0051B10346014401E08B4205D0184613F87B
:102DDC00012B6245F8D110BD002010BD88420DD9E1
:102DEC008B1883420AD900EB020CBAB1624613F875
:102DFC0001CD994202F801CDF9D170470F2A0ED8B6
:102E0C00034602F1FF3C4AB10CF1010C013B8C442E
:102E1C0011F8012B614503F8012FF9D1704740EAF5
:102E2C0001039B074FD1A2F1100370B501F1200CE7
:102E3C0023F00F0501F1100E00F11004AC441B0936
:102E4C005EF8105C0EF1100E44F8105C5EF81C5C21
:102E5C00103444F81C5C5EF8185C44F8185C5EF89E
:102E6C00145CE64544F8145CEAD1013312F00C0F03
:102E7C0001EB031102F00F0400EB031327D08E4675
:102E8C00043C24F003064FEA940C1E441C1F5EF80D
:102E9C00045B44F8045FB442F9D10CF1010402F074
:102EAC00030203EB840301EB840102F1FF3C4AB102
:102EBC000CF1010C013B8C4411F8012B614503F81A
:102ECC00012FF9D170BD034602F1FF3C9CE722466D
:102EDC00EBE700BF0148FFF789BC00BF8825002045
:102EEC000148FFF785BC00BF882500202DE9F84F6D
:102EFC001646002900F0988006F10B0580460C461A
:102F0C00FFF7E8FF162D5DD810252A46AE425ED895
:102F1C0054F8041CA4F1080921F00307974262DA63
:102F2C00BC4B09EB0700D3F808C0844500F0978030
:102F3C00D0F804C02CF0010303445B68DB0768D4B1
:102F4C002CF0030C07EB0C03934247DACB0710D49D
:102F5C0054F8083CA9EB030ADAF8043023F0030117
:102F6C008C44BC44944580F211817B18934280F2CE
:102F7C00E88031464046FFF73DFC0646E0B154F888
:102F8C00043CA0F1080223F001034B44934200F0EF
:102F9C00D2803A1F242A00F2F580132A00F2AC806A
:102FAC0003462246116819605168596092689A600C
:102FBC002146404600F02EFC4046FFF791FF30467C
:102FCC00BDE8F88F25F00705002D2A469EDA0C2364
:102FDC000026C8F800303046BDE8F88F1F46D0E90F
:102FEC000223D3609A607B1B0F2B22D8D9F80430B4
:102FFC0003F001033B43C9F804304F447B6843F0B2
:10300C0001037B6026464046FFF76AFF3046BDE869
:10301C00F88FC907ADD454F8083CA9EB030ADAF8C9
:10302C00041021F00301A0E71146BDE8F84FFFF7AB
:10303C00E1BBD9F8041043F0010301F0010129436D
:10304C00C9F8041009EB05014B604F447B684046FE
:10305C0043F0010308317B6000F0DCFBD2E7DCF8C5
:10306C00040020F0030B07EB0B0C05F1100084455A
:10307C004DDAC9073FF57DAF54F8081CA9EB010ADE
:10308C00DAF8041021F003018B44BB4458453FF798
:10309C006CAF5646DAF80C1056F8080F3A1F242A73
:1030AC00C160886000F2DB80132A40F2D680216870
:1030BC001B2ACAF808106168CAF80C1000F2E080EC
:1030CC0008340AF110022168116061685160A1682E
:1030DC009160ABEB05020AEB050142F0010299602D
:1030EC004A60DAF80430404603F001031D43CAF885
:1030FC000450FFF7F5FE6EE723681B2A0360636834
:10310C00436068D804F1080200F108034AE709EBB0
:10311C000502ACEB050C9A604CF00103536054F8BB
:10312C00043C404603F001031D4344F8045CFFF7E4
:10313C00D7FE26464FE750F8043C23F003031F4408
:10314C0051E75646DAF80C1056F8080F3A1F242AA5
:10315C00C16088604CD8132A48D921681B2ACAF848
:10316C0008106168CAF80C1056D808340AF110021D
:10317C001F462368D146136063685360A3683446C6
:10318C00936030E72146FFF729FE11E75646D0E958
:10319C000213CB60996056F8081FDAF80C303A1F0E
:1031AC00242ACB6099602DD8132A29D923681B2A8D
:1031BC00CAF808306368CAF80C3042D808340AF1EF
:1031CC001003226867461A606268D1465A60A2688A
:1031DC0034469A6007E7A368242A8360E368C360D7
:1031EC0026D004F1100200F11003DBE63246BFE7F3
:1031FC00214630461F46D146FFF7F0FD3446F2E635
:10320C003346DEE7214630466746D146FFF7E6FDFA
:10321C003446E8E6D41A0020A168242ACAF8101013
:10322C00E168CAF8141020D010340AF118029FE794
:10323C00236904F1180203616369436100F1180307
:10324C00B0E6A368242ACAF81030E368CAF8143030
:10325C0022D010340AF11803B3E7324633E7214683
:10326C003046FFF7BBFD174B33E722691834CAF819
:10327C00182054F8042CCAF81C200AF1200277E715
:10328C00A168242ACAF81010E168CAF814100ED0EC
:10329C0010340AF1180216E723691834CAF81830EA
:1032AC0054F8043CCAF81C300AF1200389E722695F
:1032BC001834CAF8182054F8042CCAF81C200AF147
:1032CC00200200E7D41A0020002238B5064D04462F
:1032DC0008462A60FDF752FB431C00D038BD2B6812
:1032EC00002BFBD0236038BDC825002010B50C4640
:1032FC00B1F90E1000F014FC002803DB236D03441D
:10330C00236510BDA38923F48053A38110BD00BF96
:10331C002DE9F0410C46B1F90C101F46CB050546C2
:10332C0016460BD421F48051A1813B4632462846E7
:10333C00B4F90E10BDE8F04100F01EB8B4F90E104F
:10334C000223002200F066FBB4F90C10EAE700BF80
:10335C0010B50C46B1F90E1000F05CFBA389421CB1
:10336C000EBF23F4805343F480532065A38110BD1A
:10337C00B1F90E1000F0C6B838B50C461146002253
:10338C008446074D20462A601A466446FDF7DCFA4F
:10339C00431C00D038BD2B68002BFBD0236038BDFC
:1033AC00C825002038B5334B05461B680C460BB1BD
:1033BC009A6B12B3B4F90C3018079AB225D521695F
:1033CC0000292DD012F0010007D000256069A560FE
:1033DC004042A06139B1002038BD950758BF6069E3
:1033EC00A0600029F7D1120658BF0846F4D543F067
:1033FC0040034FF0FF30A38138BD1846FEF7AEFFF7
:10340C00B4F90C3018079AB2D9D4D1062AD5520780
:10341C0014D4216943F00803A3819AB20029D1D1B5
:10342C0002F42070B0F5007FCCD02146284600F085
:10343C0007FBB4F90C3021699AB2C3E7216B51B187
:10344C0004F14002914204D0284600F0E3F9B4F9AB
:10345C000C30002222630022216923F02403C4E9EA
:10346C000012D7E7092243F040032A604FF0FF30E7
:10347C00A38138BDA41600202DE9F047DFF87CA00D
:10348C000646DAF8000098460F469146FFF7AEF96B
:10349C001B4B1B68D3F8484124B365681F2D26DCF1
:1034AC005EB96B1C0235DAF80000636044F82570D5
:1034BC00FFF79EF90020BDE8F087012304EB85019E
:1034CC00C1F88890D4F88821AB401A43022EC4F876
:1034DC008821C1F80881E4D1D4F88C211343C4F8B5
:1034EC008C31DEE703F5A674C3F84841D5E7DAF86A
:1034FC000000FFF77DF94FF0FF30DCE7D01A002019
:10350C00F03B0008002238B5064D044608462A60F8
:10351C00FDF728FA431C00D038BD2B68002BFBD0DC
:10352C00236038BDC825002070B500294BD0064655
:10353C000C4610B1836B002B48D0636ED80734D582
:10354C00B4F90C30002B3ED02146304600F052F836
:10355C00E36A054633B13046E16998470028B8BFA5
:10356C004FF0FF35A3891A063BD4216B41B104F10E
:10357C004003994202D0304600F04CF900232363FB
:10358C00616C21B1304600F045F900236364FEF70D
:10359C006BFF0022636EA281DB0727D5A06DFFF7BE
:1035AC0023F9FEF767FF284670BDA3899905CBD494
:1035BC00A06DFFF71BF9B4F90C30002BC4D1656E6C
:1035CC0015F0010508D00025284670BDFEF7C6FE93
:1035DC00636ED807B4D4E8E7A06DFFF709F9284665
:1035EC0070BD3046216900F015F9BEE7A06DFFF7FC
:1035FC00FFF8D3E7B1F90C20F8B50C4611070746D4
:10360C0043D4636842F40062002BA2815BDDA56A9F
:10361C00002D56D000233E683B6093B212F48052CA
:10362C0055D101233846E169A847421C65D0A389CE
:10363C00A56A5B0705D56368C01A236B0BB1E36BF6
:10364C00C01A0246E16900233846A847411C40D104
:10365C003B68002B3DD01D2B01D0162B54D10022E2
:10366C00A38923F40063A3812369C4E90032216B8D
:10367C003E6031B304F14003994202D0384600F069
:10368C00C9F8002318462363F8BD2669CEB193B25E
:10369C009A0718BF0023256808BF63692660AD1B15
:1036AC00A3600CE02B463246D4F824C03846E169BE
:1036BC00E047B0F1000CA5EB0C05664416DD002DBF
:1036CC00F0DC0020F8BDE36B002BA0DCF9E7206DEB
:1036DC00AFE70022B4F90C30626023F40063226976
:1036EC00A381DB042260C2D52065C0E7A3894FF01B
:1036FC00FF3043F04003A381F8BD3B68002B96D00C
:10370C001D2B06D0162B04D0A38943F04003A381B4
:10371C00F8BD00203E60F8BD38B505460C4608B132
:10372C00836BA3B1B4F90C00B8B1636EDB0701D4A1
:10373C00810515D528462146FFF75CFF636E0546CB
:10374C00DA0702D4A3899B050ED5284638BDFEF7AF
:10375C0005FEB4F90C000028E7D10546284638BD13
:10376C00A06DFFF743F8E5E7A06DFFF741F8284699
:10377C0038BD00BFF8B50C46234F0646FFF7AAFB31
:10378C00BB685D68C4F57E6325F003050F332B44DD
:10379C0023F47F6323F00F03A3F58054B4F5805F0B
:1037AC0007DB00213046FFF78FFDBB682B449842A6
:1037BC0004D03046FFF794FB0020F8BD3046614240
:1037CC00FFF782FD01300DD0104ABB682D1B45F070
:1037DC0001055D60136830461B1B1360FFF780FB0F
:1037EC000120F8BD00213046FFF76EFDBA68831A40
:1037FC000F2BDEDD43F001035360054B03491B68BF
:10380C00C01A0860D5E700BFD41A00209425002008
:10381C00DC1E002000295ED0F8B50C460646FFF7EA
:10382C0059FB54F8042C784FA4F1080522F001013F
:10383C006818D7F808C04368844523F0030300F0E8
:10384C008780D207436034D454F8082C07F108045D
:10385C00AD1A1144AA68A24268D000EB030CDCF844
:10386C0004E0D5F80CC01EF0010FC2F80CC0CCF867
:10387C00082000F0918041F001036B600160B1F50C
:10388C00007F31D24A09CB08012191407A6801337B
:10389C001143796007EBC30257F83310083AC5E9B6
:1038AC00021247F83350CD603046BDE8F840FFF7C0
:1038BC0017BBC2185268D2070ED4194407F108047A
:1038CC008368A34270D0C268DA60936041F0010350
:1038DC006B606950D3E7704741F00103B1F5007F8D
:1038EC0044F8043C0160CDD3B1F5206F4FEA51236D
:1038FC0047D28B0903F1390003F13802C300F818E1
:10390C00FB580838984258D05A6822F003028A4271
:10391C0002D99B689842F7D1D868C5E90230856016
:10392C003046DD60BDE8F840FFF7DABAC2185268DD
:10393C00D20763D40B44D0E90212CA60916043F001
:10394C0001026A603046EB50BDE8F840FFF7C8BA98
:10395C000B44D10707D454F8082CAD1A1344D5E9FD
:10396C000212CA60916043F001026A60274ABD608E
:10397C0012689A4298D8264B30461968FFF7FAFE1F
:10398C0092E7142B0AD9542B1FD80B0B03F16F00A1
:10399C0003F16E02C300B2E7194491E703F15C0036
:1039AC0003F15B02C300AAE741F00103C7E9045528
:1039BC00C5E902446B60695076E70121921001FA67
:1039CC0002F279680A437A60A7E7B3F5AA7F06D8B2
:1039DC00CB0B03F1780003F17702C3008FE740F2C1
:1039EC005452934206D88B0C03F17D0003F17C02F8
:1039FC00C30084E74FF47E737E2280E741F001031D
:103A0C006B60016050E700BFD41A0020E01E00205C
:103A1C00C425002038B50C46114600228446074DBB
:103A2C0020462A601A466446FCF7A6FF431C00D0C9
:103A3C0038BD2B68002BFBD0236038BDC825002077
:103A4C002DE9F0418B890C46990796B008D50122D7
:103A5C0004F14303C4E90432236016B0BDE8F081DD
:103A6C00B4F90E100646002927DB6A4600F06EF802
:103A7C00002821DB019D4FF4806805F47045A5F505
:103A8C000055B5FA85F54FF400676D09414630468F
:103A9C00FEF7B0FEB4F90C30F0B1204A43F08003CD
:103AAC00F263C4F81480A3812060206135BB3B43D2
:103ABC00A38116B0BDE8F081A38913F0800519D05D
:103ACC004FF04008304641460025FEF793FE2F4646
:103ADC00B4F90C300028E0D19A05BED4012123F0B2
:103AEC00030304F1430243F00203C4E90421A3815C
:103AFC002260B2E74FF480682F46C7E73046B4F92E
:103B0C000E1000F037F810B9B4F90C30CFE7A389D8
:103B1C0023F0030343F001031BB2C8E75D23000845
:103B2C0038B50C46114600228446074D20462A60C3
:103B3C001A466446FCF7F8FE431C00D038BD2B68CF
:103B4C00002BFBD0236038BDC825002070B50026A3
:103B5C00074D0446084611462E60FCF706FF431C31
:103B6C0000D070BD2B68002BFBD0236070BD00BF54
:103B7C00C8250020002238B5064D044608462A60A8
:103B8C00FCF7F8FE431C00D038BD2B68002BFBD093
:103B9C00236038BDC8250020F8B500BFF8BC08BCB0
:103BAC009E467047F8B500BFF8BC08BC9E467047EF
:103BBC00B3F5CABCBBAF0D00000000000000000054
:103BCC0001020304060708090000000001020304B7
:103BDC0002030405060708090A0B0C0D0E0F101042
:0C3BEC0000000000A81600200A000000E5
:083BF8003D2300083101000823
:043C00000D010008AA
:103C0400109453321E325210007E4242427E000013
:103C1400000000FF49494949494949FF00000000A3
:103C240008CC4A49484ACC18007F88888482E0003E
:103C340000FF121252927F00007E88888482E00086
:103C4400201008FC57545455FE5454545404000096
:103C5400000000FB4949494949494949F901000023
:103C64002010087C031010103F48484444700000A2
:103C74000080809F4141211D0121215F408000007F
:103C84001010D0FF901000FE020202FE000000009F
:103C9400040300FF0083601F0000003F40407800E1
:103CA4000000E28282828282828282FE0000000020
:103CB40000003F40404040404040404040780000C9
:103CC40000FE02FA02FE40300FC8080808F800009F
:103CD4008047300F1067000C0B084A9C403F0000DF
:103CE400000222C20A320202FA0202020A0600009A
:103CF4008282424222120A070A0A122242820200E5
:103D040080804020100804C30408102040808000F4
:103D140000000000000000FF0000000000000000A0
:103D24004042CC0000445454547F54545444400002
:103D340000007F201000FF15151555957F00000029
:103D4400404042CC00504EC8487FC848484000001C
:103D54000040201F20504C4340404F50505C4000D6
:103D64001010FF100082864A52A2524A86808000B8
:103D740042827F010010121212FF12121210000070
:103D8400403C10FF101020108F7808F808F800004D
:103D9400020602FF0101044221184681403F00004F
:103DA4000000007E424242424242427E0000000045
:103DB40000FE424242FE000000FE424242FE00007B
:103DC400008060F8074020900C030C9020404000D5
:103DD400010000FF0080601F000000FF00000000E1
:103DE4001010D0FF90201018A744A4140C00000059
:103DF400040300FF000502FD44444445FD020200A3
:103E04002020222222E2222222E222222220200038
:103E1400804020100C030000003F404040407800E8
:103E2400000000F112141010101412F10000000030
:103E34004030000339414145594141730008300085
:103E4400404042CC0040404040FF404040404000A1
:103E54000000007F2010000000FF000000000000B0
:103E64001060020CC000E22C203F2028E600000075
:103E740004047C030000FF09090949897F0000004C
:103E840000023AAA6A3F2A2A2AFF2AAA2EE0000040
:103E94000002819E4242221A2222425E81000000D8
:103EA4004042CC0000445454547F54545444400081
:103EB40000007F201000FF15151555957F000000A8
:103EC400008060F807101010101010FF1010100080
:103ED400010000FF000000010640807F0000000098
:103EE40004A4A4A4BFA4A40420180FC8082818007C
:103EF400221A42827E020AB240300C031C60800007
:103F04000000E28282828282828282FE00000000BD
:103F140000003F4040404040404040404078000066
:103F2400101010FF10902020FF2010119610000098
:103F34000444827F01004020130C142241F8000045
:103F4400100C05555555857F8555555505140C00A0
:103F54000404020A09292A4C48A91902020404008B
:103F6400000000000000000000000000000000004D
:103F7400000000000000000000000000000000003D
:103F8400000000000000000000000000000000002D
:103F9400000000000000000000000000000000001D
:103FA400000000000000000000000000000000000D
:103FB40000000000000000000000000000000000FD
:103FC400000000C080808080808080FC84808080AD
:103FD400808080C0C00000000000000000000000DD
:103FE40000000000000000000000000000000000CD
:103FF40000000000000000000000000000000000BD
:104004000000000000000000000000FF7F4040406E
:10401400404040FF40404040404040FF7F0000009F
:10402400000000000000000000000000000000008C
:10403400000000000000000000000000000000007C
:10404400000000000000000000000000000000006C
:1040540000000000000000000000007F700000006D
:10406400000000000000000000000000000000004C
:10407400000000000000000000000000000000003C
:10408400000000000000000000000000000000002C
:10409400000000000000000000000000000000001C
:1040A40000000000000000FCF80000000000000018
:1040B40000000000000000000000000000000000FC
:1040C40000000000000000000000000000000000EC
:1040D40000000000000000000000000000000000DC
:1040E40000000000000000000000000000000000CC
:1040F40000000000000000000000000000000000BC
:1041040000000000000000000000000000000000AB
:10411400000000000000000000000000FFFE02029A
:1041240002020202020202FFFF0202020202020271
:104134000202FF0300000000000000000000000075
:10414400000000000000000000000000000000006B
:10415400000000000000000000000000000000005B
:10416400000000000000000000000000000000004B
:10417400000000000000000000000000000000003B
:10418400000000000000000000000000000000002B
:104194000000000000000000000000001F1F0404D5
:1041A40004040404040404FFFF04040404040404D5
:1041B40004041F00000000000000000000000000D4
:1041C40000000000000000000000000000000000EB
:1041D40000000000000000000000000000000000DB
:1041E40000000000000000000000000000000000CB
:1041F40000000000000000000000000000000000BB
:1042040000000000000000000000000000000000AA
:10421400000000000000000000000000000000009A
:10422400000000000000007F3F00000000000000CC
:10423400000000000000000000000000000000007A
:10424400000000000000000000000000000000006A
:10425400000000000000000000000000000000005A
:10426400000000000000000000000000000000004A
:10427400000000000000000000000000000000003A
:10428400000000000000000000000000000000002A
:10429400000000000000000000000000000000001A
:1042A400000000000000000000000000000000000A
:1042B4000000000000F8F8F0F0702000000000009A
:1042C40000000000000000000000000000000000EA
:1042D40000000000000000000000000000000000DA
:1042E40000000000000000000000000000000000CA
:1042F40000000000000000000000000000000000BA
:1043040000000000000000000000000000000000A9
:104314000000000000000000000000000000000099
:104324000000000000000000000000000000000089
:104334000000000000000000000000000000000079
:104344000000000000000000000000000000000069
:104354000000000000000000000000000000000059
:104364000000000000000000000000000000000049
:104374000000000000000000000000000000000039
:104384000000000000000000000000000000000029
:104394000000000000000000000000000000000019
:1043A4000000000000000000000000000000000009
:1043B40000000000000000000000000000000000F9
:1043C40000000000000000000000000000000000E9
:1043D40000000000000000000000000000000000D9
:1043E40000000000000000000000000000000000C9
:1043F40000000000000000000000000000000000B9
:1044040000000000000000000000000000000000A8
:104414000000000000000000000000000000000098
:104424000000000000000000000000000000000088
:104434000000000000000000000000000000000078
:104444000000000000000000000000000000000068
:104454000000000000000000000000000000000058
:104464000000000000000000000000000000000048
:104474000000000000000000000000000000000038
:104484000000000000000000000000000000000028
:104494000000000000000000000000000000000018
:1044A4008000000000000000000000000000000088
:1044B4000000000000FFFFFFFF00000000000000FC
:1044C40000000000000000000000000080800000E8
:1044D40000000000000000000000000000000000D8
:1044E40000000000000000000000000000000000C8
:1044F40000000000000000000000000000000000B8
:1045040000000000000000000000000000000000A7
:104514000000000000000000000000000000000097
:104524000000000000000000000000000000000087
:104534000000000000000000000000000000000077
:104544000000000000000000000000000000000067
:104554000000000000000000000000000000000057
:104564000000000000000000000000000000000047
:104574000000000000000000000000000000000037
:104584000000000000000000000000000000000027
:104594000000000000000000000000000000000017
:1045A4000000000000000000000000000000000007
:1045B40000000000000000000000000000000000F7
:1045C40000000000000000000000000000000000E7
:1045D40000000000000000000000000000000000D7
:1045E40000000000000000000000000000000000C7
:1045F40000000000000000000000000000000000B7
:1046040000000000000000000000000000000000A6
:104614000000000000000000000000000000000096
:104624000000000000000000000000000000000086
:104634000000000000000000000000000000000076
:104644000000000000000000000000000000000066
:104654000000000000000000000000000000000056
:104664000000000000000000000000000000000046
:104674000000000000000000000000000000000036
:104684000000000000000000000000000000000026
:104694000000000000000000000000000000000016
:1046A40000FFFFFE060606060606060606060606C2
:1046B4000606060606FFFFFFFF06060606060606B2
:1046C4000606060606060606060606FFFFFFFF07A1
:1046D40002000000000000000000000000000000D4
:1046E40000000000000000000000000000000000C6
:1046F40000000000000000000000000000000000B6
:1047040000000000000000000000000000000000A5
:104714000000000000000000000000000000000095
:104724000000000000000000000000000000000085
:104734000000000000000000000000000000000075
:104744000000000000000000000000000000000065
:104754000000000000000000000000000000000055
:104764000000000000000000000000000000000045
:104774000000000000000000000000000000000035
:104784000000000000000000000000000000000025
:104794000000000000000000000000000000000015
:1047A4000000000000000000000000000000000005
:1047B40000000000000000000000000000000000F5
:1047C40000000000000000000000000000000000E5
:1047D40000000000000000000000000000000000D5
:1047E40000000000000000000000000000000000C5
:1047F40000000000000000000000000000000000B5
:1048040000000000000000000000000000000000A4
:104814000000000000000000000000000000000094
:104824000000000000000000000000000000000084
:104834000000000000000000000000000000000074
:104844000000000000000000000000000000000064
:104854000000000000000000000000000000000054
:104864000000000000000000000000000000000044
:104874000000000000000000000000000000000034
:104884000000000000000000000000000000000024
:104894000000000000000000000000000000000014
:1048A40000FFFFFF00000000000000000000000007
:1048B4000000000000FFFFFFFF00000000000000F8
:1048C4000000000000000000000000FFFFFFFF00E8
:1048D40000000000000000000000000000000000D4
:1048E40000000000000000000000000000000000C4
:1048F40000000000000000000000000000000000B4
:1049040000000000000000000000000000000000A3
:104914000000000000000000000000000000000093
:104924000000000000000000000000000000000083
:104934000000000000000000000000000000000073
:104944000000000000000000000000000000000063
:104954000000000000000000000000000000000053
:104964000000000000000000000000000000000043
:104974000000000000000000000000000000000033
:104984000000000000000000000000000000000023
:104994000000000000000000000000000000000013
:1049A4000000000000000000000000000000000003
:1049B40000000000000000000000000000000000F3
:1049C40000000000000000000000000000000000E3
:1049D40000000000000000000000000000000000D3
:1049E40000000000000000000000000000000000C3
:1049F40000000000000000000000000000000000B3
:104A040000000000000000000000000000000000A2
:104A14000000000000000000000000000000000092
:104A24000000000000000000000000000000000082
:104A34000000000000000000000000000000000072
:104A44000000000000000000000000000000000062
:104A54000000000000000000000000000000000052
:104A64000000000000000000000000000000000042
:104A74000000000000000000000000000000000032
:104A84000000000000000000000000000000000022
:104A94000000000000000000000000000000000012
:104AA40000FFFFFF181818181818181818181818E5
:104AB4001818181818FFFFFFFF18181818181818D6
:104AC4001818181818181818181818FFFFFFFF00DE
:104AD40000000000000000000000000000000000D2
:104AE40000000000000000000000000000000000C2
:104AF40000000000000000000000000000000000B2
:104B040000000000000000000000000000000000A1
:104B14000000000000000000000000000000000091
:104B24000000000000000000000000000000000081
:104B34000000000000000000000000000000000071
:104B44000000000000000000000000000000000061
:104B54000000000000000000000000000000000051
:104B64000000000000000000000000000000000041
:104B74000000000000000000000000000000000031
:104B84000000000000000000000000000000000021
:104B94000000000000000000000000000000000011
:104BA4000000000000000000000000000000000001
:104BB40000000000000000000000000000000000F1
:104BC40000000000000000000000000000000000E1
:104BD40000000000000000000000000000000000D1
:104BE40000000000000000000000000000000000C1
:104BF40000000000000000000000000000000000B1
:104C040000000000000000000000000000000000A0
:104C14000000000000000000000000000000000090
:104C24000000000000000000000000000000000080
:104C34000000000000000000000000000000000070
:104C44000000000000000000000000000000000060
:104C54000000000000000000000000000000000050
:104C64000000000000000000000000000000000040
:104C74000000000000000000000000000000000030
:104C84000000000000000000000000000000000020
:104C94000000000000000000000000000000000010
:104CA40002010100000000000000000000000000FC
:104CB4000000000000FFFFFFFF00000000000000F4
:104CC40000000000000000000000000101000000DE
:104CD40000000000000000000000000000000000D0
:104CE40000000000000000000000000000000000C0
:104CF40000000000000000000000000000000000B0
:104D0400000000000000000000000000000000009F
:104D1400000000000000000000000000000000008F
:104D2400000000000000000000000000000000007F
:104D3400000000000000000000000000000000006F
:104D4400000000000000000000000000000000005F
:104D5400000000000000000000000000000000004F
:104D6400000000000000000000000000000000003F
:104D7400000000000000000000000000000000002F
:104D8400000000000000000000000000000000001F
:104D9400000000000000000000000000000000000F
:104DA40000000000000000000000000000000000FF
:104DB40000000000000000000000000000000000EF
:104DC40000000000000000000000000000000000DF
:104DD40000000000000000000000000000000000CF
:104DE40000000000000000000000000000000000BF
:104DF40000000000000000000000000000000000AF
:104E0400000000000000000000000000000000009E
:104E1400000000000000000000000000000000008E
:104E2400000000000000000000000000000000007E
:104E3400000000000000000000000000000000006E
:104E4400000000000000000000000000000000005E
:104E5400000000000000000000000000000000004E
:104E6400000000000000000000000000000000003E
:104E7400000000000000000000000000000000002E
:104E8400000000000000000000000000000000001E
:104E9400000000000000000000000000000000000E
:104EA40000000000000000000000000000000000FE
:104EB4000000000000FFFFFFFF00000000000000F2
:104EC40000000000000000000000000000000000DE
:104ED40000000000000000000000000000000000CE
:104EE40000000000000000000000000000000000BE
:104EF40000000000000000000000000000000000AE
:104F0400000000000000000000000000000000009D
:104F1400000000000000000000000000000000008D
:104F2400000000000000000000000000000000007D
:104F3400000000000000000000000000000000006D
:104F4400000000000000000000000000000000005D
:104F5400000000000000000000000000000000004D
:104F6400000000000000000000000000000000003D
:104F7400000000000000000000000000000000002D
:104F8400000000000000000000000000000000001D
:104F9400000000000000000000000000000000000D
:104FA40000000000000000000000000000000000FD
:104FB40000000000000000000000000000000000ED
:104FC40000000000000000000000000000000000DD
:104FD40000000000000000000000000000000000CD
:104FE40000000000000000000000000000000000BD
:104FF40000000000000000000000000000000000AD
:10500400000000000000000000000000000000009C
:10501400000000000000000000000000000000008C
:10502400000000000000000000000000000000007C
:10503400000000000000000000000000000000006C
:10504400000000000000000000000000000000005C
:10505400000000000000000000000000000000004C
:10506400000000000000000000000000000000003C
:10507400000000000000000000000000000000002C
:10508400000000000000000000000000000000001C
:10509400000000000000000000000000000000000C
:1050A40000000000000000000000000000000000FC
:1050B40000000000001F1F0F0F0000000000000090
:1050C40000000000000000000000000000000000DC
:1050D40000000000000000000000000000000000CC
:1050E40000000000000000000000000000000000BC
:1050F40000000000000000000000000000000000AC
:10510400000000000000000000000000000000009B
:10511400000000000000000000000000000000008B
:10512400000000000000000000000000000000007B
:10513400000000000000000000000000000000006B
:10514400000000000000000000000000000000005B
:10515400000000000000000000000000000000004B
:10516400000000000000000000000000000000003B
:10517400000000000000000000000000000000002B
:10518400000000000000000000000000000000001B
:10519400000000000000000000000000000000000B
:1051A40000000000000000000000000000000000FB
:1051B40000000000000000000000000000000000EB
:1051C40000000000000000000000000000000000DB
:1051D40000000000000000000000000000000000CB
:1051E40000000000000000000000000000000000BB
:1051F40000000000000000000000000000000000AB
:10520400000000000000000000000000000000009A
:10521400000000000000000000000000000000008A
:10522400000000000000000000000000000000007A
:10523400000000000000000000000000000000006A
:10524400000000000000000000000000000000005A
:10525400000000000000000000000000000000004A
:10526400000000000000000000000000000000003A
:10527400000000000000000000000000000000002A
:10528400000000000000000000000000000000001A
:1052940000000000000000000024F40001000000F1
:1052A40010000000A816002000000000941900203F
:1052B400FC190020641A0020000000000000000017
:1052C40000000000000000000000000000000000DA
:1052D40000000000000000000000000000000000CA
:1052E40000000000000000000000000000000000BA
:1052F40000000000000000000000000000000000AA
:105304000000000000000000000000000000000099
:105314000000000000000000000000000000000089
:105324000000000000000000000000000000000079
:105334000000000000000000000000000000000069
:105344000000000000000000000000000000000059
:1053540001000000000000000E33CDAB34126DE6F6
:10536400ECDE05000B00000000000000000000005F
:105374000000000000000000000000000000000029
:105384000000000000000000000000000000000019
:105394000000000000000000000000000000000009
:1053A40000000000000000000000000000000000F9
:1056D400842500200000000000000000D41A0020EF
:1056E400D41A0020DC1A0020DC1A0020E41A00205E
:1056F400E41A0020EC1A0020EC1A0020F41A00200E
:10570400F41A0020FC1A0020FC1A0020041B0020BC
:10571400041B00200C1B00200C1B0020141B002069
:10572400141B00201C1B00201C1B0020241B002019
:10573400241B00202C1B00202C1B0020341B0020C9
:10574400341B00203C1B00203C1B0020441B002079
:10575400441B00204C1B00204C1B0020541B002029
:10576400541B00205C1B00205C1B0020641B0020D9
:10577400641B00206C1B00206C1B0020741B002089
:10578400741B00207C1B00207C1B0020841B002039
:10579400841B00208C1B00208C1B0020941B0020E9
:1057A400941B00209C1B00209C1B0020A41B002099
:1057B400A41B0020AC1B0020AC1B0020B41B002049
:1057C400B41B0020BC1B0020BC1B0020C41B0020F9
:1057D400C41B0020CC1B0020CC1B0020D41B0020A9
:1057E400D41B0020DC1B0020DC1B0020E41B002059
:1057F400E41B0020EC1B0020EC1B0020F41B002009
:10580400F41B0020FC1B0020FC1B0020041C0020B7
:10581400041C00200C1C00200C1C0020141C002064
:10582400141C00201C1C00201C1C0020241C002014
:10583400241C00202C1C00202C1C0020341C0020C4
:10584400341C00203C1C00203C1C0020441C002074
:10585400441C00204C1C00204C1C0020541C002024
:10586400541C00205C1C00205C1C0020641C0020D4
:10587400641C00206C1C00206C1C0020741C002084
:10588400741C00207C1C00207C1C0020841C002034
:10589400841C00208C1C00208C1C0020941C0020E4
:1058A400941C00209C1C00209C1C0020A41C002094
:1058B400A41C0020AC1C0020AC1C0020B41C002044
:1058C400B41C0020BC1C0020BC1C0020C41C0020F4
:1058D400C41C0020CC1C0020CC1C0020D41C0020A4
:1058E400D41C0020DC1C0020DC1C0020E41C002054
:1058F400E41C0020EC1C0020EC1C0020F41C002004
:10590400F41C0020FC1C0020FC1C0020041D0020B2
:10591400041D00200C1D00200C1D0020141D00205F
:10592400141D00201C1D00201C1D0020241D00200F
:10593400241D00202C1D00202C1D0020341D0020BF
:10594400341D00203C1D00203C1D0020441D00206F
:10595400441D00204C1D00204C1D0020541D00201F
:10596400541D00205C1D00205C1D0020641D0020CF
:10597400641D00206C1D00206C1D0020741D00207F
:10598400741D00207C1D00207C1D0020841D00202F
:10599400841D00208C1D00208C1D0020941D0020DF
:1059A400941D00209C1D00209C1D0020A41D00208F
:1059B400A41D0020AC1D0020AC1D0020B41D00203F
:1059C400B41D0020BC1D0020BC1D0020C41D0020EF
:1059D400C41D0020CC1D0020CC1D0020D41D00209F
:1059E400D41D0020DC1D0020DC1D0020E41D00204F
:1059F400E41D0020EC1D0020EC1D0020F41D0020FF
:105A0400F41D0020FC1D0020FC1D0020041E0020AD
:105A1400041E00200C1E00200C1E0020141E00205A
:105A2400141E00201C1E00201C1E0020241E00200A
:105A3400241E00202C1E00202C1E0020341E0020BA
:105A4400341E00203C1E00203C1E0020441E00206A
:105A5400441E00204C1E00204C1E0020541E00201A
:105A6400541E00205C1E00205C1E0020641E0020CA
:105A7400641E00206C1E00206C1E0020741E00207A
:105A8400741E00207C1E00207C1E0020841E00202A
:105A9400841E00208C1E00208C1E0020941E0020DA
:105AA400941E00209C1E00209C1E0020A41E00208A
:105AB400A41E0020AC1E0020AC1E0020B41E00203A
:105AC400B41E0020BC1E0020BC1E0020C41E0020EA
:105AD400C41E0020CC1E0020CC1E0020FFFFFFFFB0
:045AE40000000200BC
:0400000508000EA53C
:00000001FF
