:020000040800F2
:10000000005000202D200008CD190008CF1900084D
:10001000D1190008D3190008D51900080000000004
:10002000000000000000000000000000D7190008D8
:10003000D919000800000000DB190008DD190008CC
:10004000752000087520000875200008752000083C
:10005000752000087520000875200008752000082C
:10006000752000087520000875200008752000081C
:10007000752000087520000875200008752000080C
:1000800075200008752000087520000875200008FC
:1000900075200008752000087520000875200008EC
:1000A000E5190008F5190008051A0008151A0008D6
:1000B000251A0008351A0008752000087520000868
:1000C00075200008752000087520000875200008BC
:1000D00075200008451A0008551A00087520000808
:1000E0007520000875200008752000080000000039
:1000F0000000000000000000000000000000000000
:0C01000000000000000000005FF808F1A3
:1001100010B5054C237833B9044B13B10448AFF341
:1001200000800123237010BDB809002000000000EA
:10013000409F000808B5034B1BB103490348AFF3C8
:10014000008008BD00000000BC090020409F00089E
:10015000844641EA000313F0030349D1403A23D314
:100160000B6803604B6843608B688360CB68C36037
:100170000B6903614B6943618B698361CB69C3611F
:100180000B6A03624B6A43628B6A8362CB6AC36207
:100190000B6B03634B6B43638B6B8363CB6BC363EF
:1001A00040304031403ADBD230320BD30B68036031
:1001B0004B6843608B688360CB68C360103010313C
:1001C000103AF3D20C3205D351F8043B40F8043B0B
:1001D000043AF9D2043208D0D2071CBF11F8013B0F
:1001E00000F8013B01D30B8803806046704700BFD5
:1001F000082A13D38B07B1D010F00303AED0C3F19C
:100200000403D21ADB071CBF11F8013B00F8013BC5
:10021000A4D331F8023B20F8023B9FE7043AD9D33C
:10022000013A11F8013B00F8013BF9D20B78037059
:100230004B7843708B7883706046704781F0004143
:1002400002E000BF83F0004330B54FEA41044FEABB
:10025000430594EA050F08BF90EA020F1FBF54EA56
:10026000000C55EA020C7FEA645C7FEA655C00F0F2
:10027000E2804FEA5454D4EB5555B8BF6D420CDDC3
:100280002C4480EA020281EA030382EA000083EA46
:10029000010180EA020281EA0303362D88BF30BDE6
:1002A00011F0004F4FEA01314FF4801C4CEA11313C
:1002B00002D0404261EB410113F0004F4FEA03339B
:1002C0004CEA133302D0524263EB430394EA050F26
:1002D00000F0A780A4F10104D5F1200E0DDB02FA95
:1002E0000EFC22FA05F2801841F1000103FA0EF229
:1002F000801843FA05F359410EE0A5F120050EF1EF
:10030000200E012A03FA0EFC28BF4CF0020C43FA1F
:1003100005F3C01851EBE37101F0004507D54FF02C
:10032000000EDCF1000C7EEB00006EEB0101B1F57C
:10033000801F1BD3B1F5001F0CD349085FEA3000C2
:100340004FEA3C0C04F101044FEA445212F5800FCD
:1003500080F09A80BCF1004F08BF5FEA500C50F16A
:10036000000041EB045141EA050130BD5FEA4C0C4D
:10037000404141EB0101013C28BFB1F5801FE9D2AA
:1003800091F0000F04BF01460020B1FA81F308BFCD
:100390002033A3F10B03B3F120020CDA0C3208DD99
:1003A00002F1140CC2F10C0201FA0CF021FA02F174
:1003B0000CE002F11402D8BFC2F1200C01FA02F1E4
:1003C00020FA0CFCDCBF41EA0C019040E41AA2BF09
:1003D00001EB0451294330BD6FEA04041F3C1CDAD1
:1003E0000C340EDC04F11404C4F1200220FA04F0F1
:1003F00001FA02F340EA030021FA04F345EA03019B
:1004000030BDC4F10C04C4F1200220FA02F001FA5C
:1004100004F340EA0300294630BD21FA04F02946DE
:1004200030BD94F0000F83F4801306BF81F4801177
:100430000134013D4EE77FEA645C18BF7FEA655CEA
:1004400029D094EA050F08BF90EA020F05D054EABC
:10045000000C04BF1946104630BD91EA030F1EBFC1
:100460000021002030BD5FEA545C05D140004941C5
:1004700028BF41F0004130BD14F580043CBF01F5B8
:10048000801130BD01F0004545F0FE4141F470019E
:100490004FF0000030BD7FEA645C1ABF1946104679
:1004A0007FEA655C1CBF0B46024650EA013406BF7A
:1004B00052EA033591EA030F41F4002130BD00BF39
:1004C00090F0000F04BF0021704730B54FF48064F6
:1004D00004F132044FF000054FF0000150E700BF77
:1004E00090F0000F04BF0021704730B54FF48064D6
:1004F00004F1320410F0004548BF40424FF00001C3
:100500003EE700BF42004FEAE2014FEA31014FEA05
:1005100002701FBF12F07F4393F07F4F81F0605154
:10052000704732F07F4208BF704793F07F4F04BF9F
:1005300041F40021704730B54FF4607401F000457C
:1005400021F000411CE700BF50EA010208BF7047DC
:1005500030B54FF000050AE050EA010208BF7047CD
:1005600030B511F0004502D5404261EB41014FF436
:10057000806404F132045FEA915C3FF4D8AE4FF03E
:1005800003025FEADC0C18BF03325FEADC0C18BF21
:10059000033202EBDC02C2F1200300FA03FC20FA72
:1005A00002F001FA03FE40EA0E0021FA02F11444BF
:1005B000BDE600BF70B54FF0FF0C4CF4E06C1CEAD8
:1005C00011541DBF1CEA135594EA0C0F95EA0C0F49
:1005D00000F0DEF82C4481EA030621EA4C5123EABC
:1005E0004C5350EA013518BF52EA033541F48011EB
:1005F00043F4801338D0A0FB02CE4FF00005E1FB9E
:1006000002E506F00042E0FB03E54FF00006E1FBE7
:1006100003569CF0000F18BF4EF0010EA4F1FF042A
:10062000B6F5007F64F5407404D25FEA4E0E6D416A
:1006300046EB060642EAC62141EA55514FEAC5207B
:1006400040EA5E504FEACE2EB4F1FD0C88BFBCF5F7
:10065000E06F1ED8BEF1004F08BF5FEA500E50F1A8
:10066000000041EB045170BD06F0004646EA01016E
:1006700040EA020081EA0301B4EB5C04C2BFD4EBA0
:100680000C0541EA045170BD41F480114FF0000E99
:10069000013C00F3AB8014F1360FDEBF002001F007
:1006A000004170BDC4F10004203C35DA0C341BDC81
:1006B00004F11404C4F1200500FA05F320FA04F053
:1006C00001FA05F240EA020001F0004221F0004187
:1006D00010EBD37021FA04F642EB06015EEA430EFA
:1006E00008BF20EAD37070BDC4F10C04C4F120052A
:1006F00000FA04F320FA05F001FA04F240EA0200DD
:1007000001F0004110EBD37041F100015EEA430EAD
:1007100008BF20EAD37070BDC4F1200500FA05F2CD
:100720004EEA020E20FA04F301FA05F243EA02034C
:1007300021FA04F001F0004121FA04F220EA02005B
:1007400000EBD3705EEA430E08BF20EAD37070BDA1
:1007500094F0000F0FD101F00046400041EB010181
:1007600011F4801F08BF013CF7D041EA060195F063
:10077000000F18BF704703F00046520043EB03031D
:1007800013F4801F08BF013DF7D043EA060370470A
:1007900094EA0C0F0CEA135518BF95EA0C0F0CD015
:1007A00050EA410618BF52EA4306D1D181EA03015B
:1007B00001F000414FF0000070BD50EA410606BF55
:1007C0001046194652EA430619D094EA0C0F02D19A
:1007D00050EA013613D195EA0C0F05D152EA0336DF
:1007E0001CBF104619460AD181EA030101F00041FD
:1007F00041F0FE4141F470014FF0000070BD41F046
:10080000FE4141F4780170BD70B54FF0FF0C4CF41F
:10081000E06C1CEA11541DBF1CEA135594EA0C0F3E
:1008200095EA0C0F00F0A7F8A4EB050481EA030E8B
:1008300052EA03354FEA013100F088804FEA033372
:100840004FF0805545EA131343EA12634FEA022240
:1008500045EA111545EA10654FEA00260EF0004101
:100860009D4208BF964244F1FD0404F5407402D253
:100870005B084FEA3202B61A65EB03055B084FEAE4
:1008800032024FF480104FF4002CB6EB020E75EBE1
:10089000030E22BFB61A754640EA0C005B084FEA09
:1008A0003202B6EB020E75EB030E22BFB61A754686
:1008B00040EA5C005B084FEA3202B6EB020E75EBD1
:1008C000030E22BFB61A754640EA9C005B084FEA49
:1008D0003202B6EB020E75EB030E22BFB61A754656
:1008E00040EADC0055EA060E18D04FEA051545EA45
:1008F00016754FEA06164FEAC30343EA52734FEAEE
:10090000C2025FEA1C1CC0D111F4801F0BD141EA66
:1009100000014FF000004FF0004CB6E711F4801FCB
:1009200004BF01430020B4F1FD0C88BFBCF5E06FAB
:100930003FF6AFAEB5EB030C04BFB6EB020C5FEABB
:10094000500C50F1000041EB045170BD0EF0004E10
:100950004EEA113114EB5C04C2BFD4EB0C0541EA42
:10096000045170BD41F480114FF0000E013C90E63F
:1009700045EA060E8DE60CEA135594EA0C0F08BF03
:1009800095EA0C0F3FF43BAF94EA0C0F0AD150EA02
:1009900001347FF434AF95EA0C0F7FF425AF104695
:1009A00019462CE795EA0C0F06D152EA03353FF4BD
:1009B000FDAE1046194622E750EA410618BF52EA3A
:1009C00043067FF4C5AE50EA41047FF40DAF52EA0E
:1009D00043057FF4EBAE12E74FF0FF3C06E000BFAB
:1009E0004FF0010C02E000BF4FF0010C4DF804CDB8
:1009F0004FEA410C7FEA6C5C4FEA430C18BF7FEA78
:100A00006C5C1BD001B050EA410C0CBF52EA430CA5
:100A100091EA030F02BF90EA020F0020704710F125
:100A2000000F91EA030F58BF994208BF90422CBFB4
:100A3000D8176FEAE37040F0010070474FEA410CAD
:100A40007FEA6C5C02D150EA013C07D14FEA430CCB
:100A50007FEA6C5CD6D152EA033CD3D05DF8040B3C
:100A6000704700BF8446104662468C46194663466E
:100A700000E000BF01B5FFF7B7FF002848BF10F145
:100A8000000F01BD4DF808EDFFF7F4FF0CBF01208A
:100A900000205DF808FB00BF4DF808EDFFF7EAFF06
:100AA00034BF012000205DF808FB00BF4DF808EDC1
:100AB000FFF7E0FF94BF012000205DF808FB00BFB6
:100AC0004DF808EDFFF7CEFF94BF012000205DF840
:100AD00008FB00BF4DF808EDFFF7C4FF34BF01204D
:100AE00000205DF808FB00BF4FEA410C7FEA6C5C18
:100AF00002D150EA013C0AD14FEA430C7FEA6C5C18
:100B000002D152EA033C02D14FF0000070474FF08F
:100B1000010070474FEA410212F5001215D211D5BB
:100B20006FF47873B3EB625212D94FEAC12343F0EA
:100B3000004343EA505311F0004F23FA02F018BF6C
:100B4000404270474FF00000704750EA013005D135
:100B500011F0004008BF6FF0004070474FF00000F8
:100B6000704700BF53B94AB9002908BF00281CBF0D
:100B70004FF0FF314FF0FF3000F076B9ADF1080CC7
:100B80006DE904CE00F006F8DDF804E0DDE90223AB
:100B900004B070472DE9F047089E0D46044688468C
:100BA000002B4DD18A42944668D9B2FA82F252B1F2
:100BB00001FA02F3C2F1200120FA01F10CFA02FC61
:100BC00041EA030894404FEA1C41B8FBF1F71FFAD1
:100BD0008CFE01FB178807FB0EF0230C43EA084349
:100BE00098420AD91CEB030307F1FF3580F01E8100
:100BF000984240F21B81023F63441B1AB3FBF1F0A1
:100C000001FB103300FB0EFEA4B244EA0344A645E8
:100C10000AD91CEB040400F1FF3380F00981A645DA
:100C200040F20681644402380021A4EB0E0440EA3D
:100C300007401EB10023D440C6E90043BDE8F08759
:100C40008B4208D9002E00F0EE800021C6E9000595
:100C50000846BDE8F087B3FA83F100294AD1AB42D8
:100C600002D3824200F2FC80841A65EB0303012068
:100C70009846002EE2D0C6E90048DFE702B9FFDE61
:100C8000B2FA82F2002A40F09180A1EB0C0001211F
:100C90004FEA1C471FFA8CFEB0FBF7F307FB13006B
:100CA000250C45EA00450EFB03F0A84208D91CEBD1
:100CB000050503F1FF3802D2A84200F2CE80434678
:100CC0002D1AB5FBF7F007FB10550EFB00FEA4B282
:100CD00044EA0544A64508D91CEB040400F1FF359D
:100CE00002D2A64500F2B6802846A4EB0E0440EAE4
:100CF00003409EE7C1F120078B4022FA07FC4CEA33
:100D0000030C25FA07FA4FEA1C49BAFBF9F820FA56
:100D100007F309FB18AA8D401FFA8CFE1D4300FA49
:100D200001F308FB0EF02C0C44EA0A44A04202FA3C
:100D300001F20BD91CEB040408F1FF3A80F0888023
:100D4000A04240F28580A8F102086444241AB4FB52
:100D5000F9F009FB104400FB0EFEADB245EA044475
:100D6000A64508D91CEB040400F1FF356CD2A6455A
:100D70006AD90238644440EA0840A0FB0295A4EB1B
:100D80000E04AC42C846AE4656D353D0002E69D0AE
:100D9000B3EB080264EB0E0422FA01F304FA07F73E
:100DA0001F43CC40C6E90074002147E70CFA02FC5F
:100DB000C2F1200125FA01F34FEA1C4720FA01F1A4
:100DC00095400D43B3FBF7F107FB11331FFA8CFE7F
:100DD000280C40EA034001FB0EF3834204FA02F4BC
:100DE00008D91CEB000001F1FF382FD283422DD926
:100DF00002396044C01AB0FBF7F307FB1300ADB231
:100E000045EA004503FB0EF0A84208D91CEB050596
:100E100003F1FF3816D2A84214D9023B6544281AC0
:100E200043EA014138E73146304607E72F46E4E61A
:100E30001846F9E64B45A9D2B9EB020865EB0C0E52
:100E40000138A3E74346EAE7284694E74146D1E75D
:100E5000D0467BE76444023847E7023B65442FE70E
:100E6000084606E73146E9E6704700BF08B53C2171
:100E7000034802F081FA3C21024802F07DFA08BDE5
:100E8000280F0020700F0020064B1B681A68C2F361
:100E9000001205494A60586A086000225A62C0B2CE
:100EA000704700BF280F0020D40900200268764B4D
:100EB0009A4200D070472DE9F04F83B00446734B3F
:100EC0001B78012B15D0724B1B78232B00F0D88098
:100ED0006F4D20220021284602F0D2FE6D4B0022E9
:100EE0001A7001222946204602F083FE03B0BDE8B5
:100EF000F08F684B19784B1E654AD35C0A2B17D0CC
:100F00000131C9B2634B19701F2940F2B380604DA3
:100F100020220021284602F0B3FE00235D4A137010
:100F20005A4A137001222946204602F062FEDDE78C
:100F300016465578A5F130039578303D42F210728F
:100F400002FB05F5544901FB0355F378303B02FBE6
:100F500003553279303A4FF47A7303FB02557279B4
:100F6000303A4FF0640808FB0255B279303A02EB90
:100F7000820205EB4205F279303A154496F8099061
:100F8000A9F1300296F80A90A9F1300908FB09F995
:100F900003FB0299F27A303A02EB820209EB420932
:100FA000327B303A9144777BA7F13002B77B303FF8
:100FB00008FB07F703FB0277F37B303B03EB83036C
:100FC00007EB4307337C303B1F442946334802F08C
:100FD000A9FE3A464946324802F0A4FE4FF0010A03
:100FE000CDF800A00C232F4A1021002000F05EFA5B
:100FF000CDF800A00C232C4A2021002000F056FA46
:10100000CDF800A00C23294A3021002000F04EFA30
:10101000CDF804A04FF00C0BCDF800B003234A46E6
:101020001021404600F074FACDF804A0CDF800B0CD
:1010300003233A462021404600F06AFACDF804A086
:10104000CDF800B003232A463021404600F060FA74
:1010500000F05EF920220021304602F011FE00234C
:101060000C4A1370094A137052463146204602F06A
:10107000C0FD3BE70122064B194402F0BAFD35E7FB
:10108000024B01221A7023E700440040DC090020D3
:10109000E0090020000A0020A0860100589F0008F7
:1010A000749F0008989F0008AC9F0008C09F00082C
:1010B00010B5134C0021204602F0F0F80421204620
:1010C00002F0ECF80F4C00224FF40051204601F0E2
:1010D0001DFA00224FF48051204601F017FA002239
:1010E0004FF48041204601F011FA00224FF40041F4
:1010F000204601F00BFA044802F076FE10BD00BF56
:10110000E00E0020000C0140D09F0008024B1B683D
:1011100058635963704700BFE00E002010B50228E5
:101120001ED0032836D0012800D010BD264C012245
:101130004FF40051204601F0E9F900224FF48051AC
:10114000204601F0E3F901224FF48041204601F0EE
:10115000DDF900224FF40041204601F0D7F9E4E721
:10116000194C00224FF48051204601F0CFF90122A2
:101170004FF40051204601F0C9F900224FF480419C
:10118000204601F0C3F901224FF40041204601F04E
:10119000BDF9CAE70C4C01224FF48041204601F012
:1011A000B5F901224FF40041204601F0AFF90122C8
:1011B0004FF48051204601F0A9F901224FF400516B
:1011C000204601F0A3F9B0E7000C014010B5054C32
:1011D0000821204602F062F8236840F2DC52DA630C
:1011E00010BD00BFB80F002010B50B4C0122082124
:1011F000204601F08BF901221021204601F086F9EA
:1012000000220821204601F081F900221021204609
:1012100001F07CF910BD00BF000C014010B5084C76
:1012200000220821204601F071F9012210212046F8
:1012300001F06CF901220821204601F067F910BD88
:10124000000C014010B5084C01220821204601F095
:101250005DF901221021204601F058F900221021E9
:10126000204601F053F910BD000C014070B5044652
:10127000002513E0002208210E4801F047F90D4E29
:1012800001221021304601F041F9002210213046A0
:1012900001F03CF96400E4B20135EDB2072D08D845
:1012A00014F0800FE6D001220821024801F02EF947
:1012B000E5E770BD000C014038B504460D46FFF768
:1012C00093FF7820FFF7D2FFFFF7BCFF65B1402006
:1012D000FFF7CCFFFFF7B6FF2046FFF7C7FFFFF78A
:1012E000B1FFFFF79BFF38BD0020FFF7BFFFF1E71D
:1012F00010B5044610B1012C05D010BD0021A62068
:10130000FFF7DAFFF7E70021A720FFF7D5FFF4E7A3
:1013100038B500250DE0104B03EBC4030121585DE7
:10132000FFF7CAFF0134E4B214F0800FF3D00135A7
:10133000EDB2072D0FD8A5F150000021C0B2FFF784
:10134000BBFF00210846FFF7B7FF00211020FFF781
:10135000B3FF0024E8E738BD040A002008B50020E8
:101360000BE0094A02EBC302002111540133DBB246
:1013700013F0800FF5D00130C0B2072801D8002348
:10138000F6E7FFF7C5FF08BD040A00204FEAD10CBD
:1013900001F0070101238B40DBB242B10C4A02EBA2
:1013A000C00010F80C20134300F80C307047084AB6
:1013B00002EBC00010F80C20D243D2B200F80C208F
:1013C000134300F80C30DB4300F80C30704700BFCB
:1013D000040A00202DE9F04F83B0804689461F465D
:1013E0009DF830B013F0070318BF012303EBD703B8
:1013F000790801FB03F3DBB20093203AD3B20193E7
:101400004C464FF0000A34E0019B03EB4303244AAF
:1014100002EB830313F80A503CE0224B019A03EBE2
:10142000021313F80A5035E0BBFA8BF25209214639
:101430004046FFF7ABFF6D00EDB20134E4B2A4EB20
:101440000903BB420CD00136F6B2072E0DD815F0B9
:10145000800FE9D05A4621464046FFF797FFEAE75A
:1014600008F101085FFA88F84C460AF1010A5FFAB0
:101470008AFA009B9A450FD20C2FC5D0102FCCD0E2
:10148000182F09D1019B03EBC303074A02EB830327
:1014900013F80A500026D8E703B0BDE8F08F00BF6C
:1014A000E09F000854A4000844AA00082DE9F04178
:1014B00082B004460F4615461E469DF8208000E087
:1014C00001352A78A2F12000C0B25E2811D8CDF8EB
:1014D0000080334639462046FFF77CFF04EB560474
:1014E000E4B2C6F180039C42EADD0237FFB2002479
:1014F000E6E702B0BDE8F0810246012002E002FB0F
:1015000000F019464B1EDBB20029F8D170470000ED
:101510002DE9F04782B08146884617461D469DF862
:1015200028609DF82CA0002411E0700804FB00F056
:10153000C0B20CF1300C4844CDF800A033465FFA3D
:101540008CF24146C0B2FFF745FF0134E4B2AC4231
:1015500022D2291BC9B20139C9B20A20FFF7CCFF38
:10156000B7FBF0F00E4AA2FB003C4FEADC0C0CEBA0
:101570008C0CA0EB4C0C1CF0FF0CD6D1700804FBBB
:1015800000F0C0B24844CDF800A0334630224146B6
:10159000C0B2FFF71FFFD8E702B0BDE8F08700BF79
:1015A000CDCCCCCC08B5C82000F0B0FD0021AE20D9
:1015B000FFF782FE00210846FFF77EFE0021102083
:1015C000FFF77AFE00214020FFF776FE0021812000
:1015D000FFF772FE0021CF20FFF76EFE0021A12051
:1015E000FFF76AFE0021C820FFF766FE0021A62053
:1015F000FFF762FE0021A820FFF75EFE00213F20DA
:10160000FFF75AFE0021D320FFF756FE00210846BF
:10161000FFF752FE0021D520FFF74EFE002180206B
:10162000FFF74AFE0021D920FFF746FE0021F120F6
:10163000FFF742FE0021DA20FFF73EFE00211220D4
:10164000FFF73AFE0021DB20FFF736FE00214020A5
:10165000FFF732FE00212020FFF72EFE002102209E
:10166000FFF72AFE00218D20FFF726FE002114201F
:10167000FFF722FE0021A420FFF71EFE0021A62076
:10168000FFF71AFE0021AF20FFF716FEFFF766FEF8
:1016900008BD000008B5054B1860054B186800230D
:1016A00002221946806802F0A7FB08BD840E0020C4
:1016B0000C000020022801D80120704708B502F074
:1016C000B5FA09230360002008BD000010B50138F9
:1016D00001280AD814464FF0FF3392B20748006839
:1016E00002F009F840B9204610BD02F09FFA092324
:1016F00003604FF0FF30F7E70520F5E7840E002088
:10170000022801D80020704708B502F08FFA09239B
:1017100003604FF0FF3008BD08B502F087FA0923D7
:1017200003604FF0FF3008BD08B548B94FF0FF33F4
:1017300001220848006802F04AF840B9012008BDBB
:1017400002F074FA092303604FF0FF30F7E7052039
:10175000F5E700BF840E002008B5022804D84FF436
:1017600000534B60002008BD02F060FA09230360BB
:10177000F8E7000030B589B000240494059406947D
:1017800007941C4B9A6942F020029A619A6902F010
:1017900020020192019A9A6942F004029A619A69C0
:1017A00002F004020292029A9A6942F008029A61D7
:1017B0009B6903F008030393039B0F4D22464FF2EE
:1017C0001801284600F0A2FE07230493059406940E
:1017D00004A9284600F088FD4FF218030493012362
:1017E000059306940223079304A9284600F07CFD84
:1017F00009B030BD00100240000C014008B50B4894
:101800000B4B03600B4B436000238360C3604FF4BA
:101810008042026143618361C361036200F07CFE28
:1018200000B908BD00F03AF8FBE700BF880E0020C1
:1018300000580040A086010010B586B00023029336
:101840000393049305930268114B9A4201D006B0AA
:1018500010BD104CA36943F00803A361A36903F012
:1018600008030093009B4FF44063029312230393F9
:101870000323059302A9084800F036FDE36943F409
:101880008003E361E36903F480030193019BDEE7D6
:101890000058004000100240000C014072B6FEE704
:1018A00000B591B02822002106A802F0E9F9002332
:1018B00001930293039304930593012206924FF43C
:1018C000803307930A9202220D920E934FF4E01395
:1018D0000F9306A800F014FF80B90F230193022193
:1018E0000291002303934FF480620492059301A8B0
:1018F00001F046F920B911B05DF804FBFFF7CEFF07
:10190000FFF7CCFF00B583B000F0DCFBFFF7C8FFAA
:10191000FFF730FFFFF772FF00F028FA00F0D8F869
:1019200000F008F900F088FA00F0C8FA00F0E0FAD8
:101930001248FFF7AFFE124802F056FAFFF746FCD6
:10194000FFF7B6FBFFF792FAFFF72CFE0020FFF738
:10195000CFFC002301934FF4FA710846FFF7D6FB42
:101960000120FFF7DBFBFFF78FFA019001A9054883
:1019700002F0D8F90A2000F0C9FBECE700100020C3
:10198000A0B70008A8B7000882B00E4B9A6942F0D1
:1019900001029A619A6902F001020092009ADA69E2
:1019A00042F08052DA61DB6903F080530193019BBE
:1019B000054A536823F0E06343F00073536002B0BC
:1019C000704700BF0010024000000140FEE7FEE744
:1019D000FEE7FEE7FEE770477047704708B500F086
:1019E00083FB08BD08B5024801F02FFA08BD00BF0F
:1019F000E00E002008B5024801F027FA08BD00BF3C
:101A0000E00E002008B5024801F01FFA08BD00BF33
:101A1000E00E002008B5024801F017FA08BD00BF2B
:101A2000E00E002008B5024801F00FFA08BD00BF23
:101A3000280F002008B5024801F007FA08BD00BFD2
:101A4000700F002008B5024801F0B6FF08BD00BFC6
:101A50000010002008B5024801F0AEFF08BD00BF2D
:101A6000441000200120704708B502F0DFF816236B
:101A700003604FF0FF3008BD08B54FF0FF31FFF7AE
:101A8000F3FFFEE710B503460C4A0D490D48006808
:101A900040B10C4800680344521A934206D8094AE0
:101AA000136010BD0748084C0460F2E702F0BEF86E
:101AB0000C2303604FF0FF30F3E700BF005000201D
:101AC00000040000DC0E0020D81000207047000049
:101AD00000B58DB02422002103A802F0D1F8002324
:101AE0000193029312484FF080420260436083608A
:101AF0004FF6FF72C26003618361032303930123E6
:101B00000593099303A901F0C3FA50B90023019387
:101B1000029301A9064801F095FC28B90DB05DF8C3
:101B200004FBFFF7BBFEF1E7FFF7B8FEF6E700BFE7
:101B3000280F002000B58DB02422002103A802F058
:101B40009FF80023019302931148124A02604360F8
:101B500083604FF6FF72C2600361836101230393C8
:101B60000593099303A901F093FA50B90023019357
:101B7000029301A9064801F065FC28B90DB05DF893
:101B800004FBFFF78BFEF1E7FFF788FEF6E700BFE7
:101B9000700F00200004004000B583B003681F4AA6
:101BA000934205D01E4A93422DD003B05DF804FB4A
:101BB0001C4B9A6942F400629A619B6903F40063CA
:101BC0000093009B00221146182000F0C5FA18204F
:101BD00000F0FAFA00221146192000F0BDFA19208F
:101BE00000F0F2FA002211461A2000F0B5FA1A208D
:101BF00000F0EAFA002211461B2000F0ADFA1B208B
:101C000000F0E2FAD1E7074BDA6942F00402DA6148
:101C1000DB6903F004030193019BC6E7002C01403C
:101C2000000800400010024000B589B00023049372
:101C30000593069307930368B3F1804F05D0254AB7
:101C4000934225D009B05DF804FB03F50433DA694B
:101C500042F00102DA61DA6902F001020092009AB0
:101C60009A6942F004029A619B6903F004030193AC
:101C7000019B0323049304A9174800F035FB0022BD
:101C800011461C2000F068FA1C2000F09DFAD9E7EC
:101C9000124BDA6942F00202DA61DA6902F00202FA
:101CA0000292029A9A6942F004029A619B6903F0D7
:101CB00004030393039BC023049304A9064800F084
:101CC00013FB002211461D2000F046FA1D2000F0F3
:101CD0007BFAB7E700040040000801400010024012
:101CE00000B587B000230293039304930593036820
:101CF000194A934205D0194A934217D007B05DF8AC
:101D000004FB174B9A6942F004029A619B6903F045
:101D100004030093009B4FF4407302930223039348
:101D2000059302A90F4800F0DFFAE7E70C4B9A6928
:101D300042F008029A619B6903F008030193019B3A
:101D40004FF48073029302230393059302A906487C
:101D500000F0CAFAD2E700BF002C014000080040A2
:101D60000010024000080140000C014010B592B084
:101D700000241094119409940A940B940C940D94DB
:101D80000E940F942022214601A801F079FF2848E3
:101D9000284B036047234360846040F2E733C3600D
:101DA00004614461846101F047F9002830D10023C7
:101DB0001093119310A91E4801F044FB00282AD16A
:101DC0006023099300220A920B920C920D920E92BC
:101DD0000F9209A9164801F0E9F9F8B9042209A9F6
:101DE000134801F0E3F9E0B9002301930293039350
:101DF000049305934FF400520692089301A90C48EE
:101E000001F056FB80B90A48FFF76AFF12B010BD17
:101E1000FFF744FDCBE7FFF741FDD1E7FFF73EFDBC
:101E2000DCE7FFF73BFDDFE7FFF738FDEBE700BF3F
:101E3000E00E0020002C014000B58BB00023089379
:101E400009930193029303930493059306930793D5
:101E50001848194A026047224260836044F61F62B4
:101E6000C26003618023836101F0E6F8C8B90023F2
:101E70000893099308A90F4801F0E4FAA0B9602378
:101E800001930023029303930593082201A90948B3
:101E900001F08CF958B90748FFF722FF0BB05DF845
:101EA00004FBFFF7FBFCE2E7FFF7F8FCE7E7FFF7CF
:101EB000F5FCF0E7B80F00200008004008B50A481C
:101EC0000A4B03604FF4E133436000238360C36037
:101ED00003610C2242618361C36101F0DDFB00B943
:101EE00008BDFFF7DBFCFBE70010002000380140D5
:101EF00008B50A480A4B03604FF4E13343600023FE
:101F00008360C36003610C2242618361C36101F09D
:101F1000C3FB00B908BDFFF7C1FCFBE7441000207C
:101F20000044004030B589B0002304930593069324
:101F300007930368374A934204D0374A934238D014
:101F400009B030BD354B9A6942F480429A619A6972
:101F500002F480420092009A9A6942F008029A6163
:101F60009B6903F008030193019B40230493022320
:101F70000593032307932A4D04A9284600F0B4F9DA
:101F80008023049300240594069404A9284600F0B5
:101F9000ABF9244A536843F0E06343F00403536011
:101FA00022462146252000F0D7F8252000F00CF924
:101FB000C6E71A4BDA6942F40032DA61DA6902F4F0
:101FC00000320292029A9A6942F004029A619B6975
:101FD00003F004030393039B042304930223059358
:101FE00003230793104D04A9284600F07DF9082328
:101FF000049300240594069404A9284600F074F97B
:1020000022462146262000F0A7F8262000F0DCF822
:1020100096E700BF00380140004400400010024035
:10202000000C014000000140000801400C480D492F
:102030000D4A002302E0D458C4500433C4188C4223
:10204000F9D30A4A0A4C002301E013600432A24289
:10205000FBD3FFF73BFD01F0EFFDFFF753FC7047AB
:1020600000000020B8090020F4BB0008B8090020D7
:10207000D4100020FEE7000010B504460E4B18787F
:102080004FF47A73B3FBF0F30C4A1068B0FBF3F033
:1020900000F0A8F868B90F2C01D901200AE000224D
:1020A00021464FF0FF3000F057F8054B1C60002030
:1020B00000E0012010BD00BF04000020000000204F
:1020C0000800002008B5074A136843F010031360A6
:1020D000032000F02FF80F20FFF7CEFFFFF754FC8E
:1020E000002008BD00200240034A1168034B1B7802
:1020F0000B441360704700BF8810002004000020CC
:10210000014B1868704700BF8810002038B504469E
:10211000FFF7F6FF0546B4F1FF3F02D0044B1B78F2
:102120001C44FFF7EDFF401BA042FAD338BD00BFAF
:1021300004000020074AD36823F4E0631B041B0C4F
:10214000000200F4E060034343F0BF6343F4003354
:10215000D360704700ED00E000B5194BDB68C3F3B6
:102160000223C3F1070CBCF1040F28BF4FF0040C8D
:1021700003F1040EBEF1060F18D9033B4FF0FF3EEA
:102180000EFA0CFC21EA0C0199400EFA03F322EA44
:102190000303194300280BDB0901C9B200F16040B9
:1021A00000F5614080F800135DF804FB0023E5E7CB
:1021B00000F00F000901C9B2024B1954F4E700BF47
:1021C00000ED00E014ED00E0002807DB00F01F0246
:1021D000400901239340024A42F82030704700BF73
:1021E00000E100E00138B0F1807F0BD24FF0E02336
:1021F0005861054AF02182F82310002098610722D7
:102200001A6170470120704700ED00E090F821301E
:10221000022B06D004238363002380F820300120A2
:1022200070470268136823F00E0313600268136896
:1022300023F001031360036CC16B012202FA03F364
:102240004B6080F82120002380F82030184670472A
:1022500008B590F82130022B03D0042383630120BA
:1022600008BD0268136823F00E0313600268136848
:1022700023F0010313600368194A934214D0143207
:1022800093421FD0143293421ED0143293421ED078
:10229000143293421ED01432934202D04FF0807217
:1022A00003E04FF4801200E001220E4B5A6001233C
:1022B00080F82130002380F82030436B6BB19847C1
:1022C0000020CDE71022F0E74FF48072EDE74FF4E5
:1022D0008052EAE74FF48032E7E70020C0E700BF12
:1022E000080002400000024070B582B00024A446FD
:1022F000A6E0804DAA4210D007D97F4DAA420CD04B
:1023000005F58035AA4208D013E0A5F58015AA424C
:1023100003D005F57025AA4207D18A68002A58D053
:10232000012A51D04361082403E0A5F58015AA4293
:10233000F3D0BEF1FF0F4ED80646BEF1FF0F4CD8CA
:102340004FEA8C0233680F25954023EA050304FA0F
:1023500002F2134333604B6813F0805F6ED0674B1B
:102360009A6942F001029A619B6903F001030193AB
:10237000019B4FEA9C02951C614B53F825600CF0C1
:1023800003039D000F23AB4026EA03065D4B9842F2
:1023900029D003F58063984200F08E8003F58063B6
:1023A000984200F08B8003F58063984219D0042393
:1023B0001AE0CC68BDE7CC680434BAE7CC680834CE
:1023C000B7E7CC680C34B4E703610824B1E7002414
:1023D000AFE70424ADE7061DAFE7ACF108029200B9
:1023E000B0E7032300E00023AB4033430232444D07
:1023F00045F822304B6813F4803F61D0424A13689D
:1024000043EA0E0313604B6813F4003F5ED03E4A6C
:10241000536843EA0E0353604B6813F4801F5BD08C
:10242000394A936843EA0E0393604B6813F4001F24
:1024300058D0354AD36843EA0E03D3600CF1010C3F
:102440000A6832FA0CF353D0012303FA0CF302EAC0
:10245000030E33EA0202F1D14A68122A3FF649AF6D
:10246000122A3FF666AF01A555F822F01B2300089B
:10247000B3230008BD230008CF230008332300083E
:1024800033230008332300083323000833230008D4
:1024900033230008332300083323000833230008C4
:1024A00033230008332300083323000833230008B4
:1024B000B7230008C3230008012395E7022393E70D
:1024C000114A136823EA0E0313609CE70E4A53680F
:1024D00023EA0E0353609FE70B4A936823EA0E0337
:1024E0009360A2E7084AD36823EA0E03D360A5E706
:1024F00002B070BD00002210000031100010024038
:102500000000014000080140000401400AB10161DF
:102510007047090401617047002800F0CC8070B555
:10252000044690F83D30002B77D0242384F83D30CA
:102530002268136823F0010313602268136843F4D0
:10254000004313602268136823F40043136000F013
:10255000D3FB62685A4B9A4264D85A4B98428CBF5C
:1025600000230123002B40F0A8805749A1FB003134
:102570008B0C25686A6822F03F0242EA91426A6049
:1025800021680A6A22F03F0266684D4DAE424FD87C
:10259000013313430B622168CA6922F44F4222F0CF
:1025A000FF026668464B9E424CD8431E7600B3FB42
:1025B000F6F3013340F6FC70034278D0C3F30B030B
:1025C0001343CB6121680B6823F0C003E269206AE2
:1025D000024313430B6021688B6823F4034323F009
:1025E000FF032269E068024313438B602168CB68D4
:1025F00023F0FF036269A06902431343CB602268A2
:10260000136843F00103136000202064202384F842
:102610003D30206384F83E0070BD80F83C30FFF709
:102620000BF982E7294B98428CBF0023012399E7DD
:102630004FF4967505FB03F3254DA5FB03539B094A
:102640000133A6E7A368BBB9451E06EB460CB5FBF4
:10265000FCF50135C5F30B05B5FA85F56D0945BBEC
:10266000C3B9013806EB4603B0FBF3F30133C3F300
:102670000B0343F40043A3E7451E06EB860C0CEB6B
:102680008C0CB5FBFCF50135C5F30B05B5FA85F5EA
:102690006D09E4E7013806EB860303EB8303B0FB27
:1026A000F3F30133C3F30B0343F4404388E70423FC
:1026B00086E7012384E7012070470120ACE700BFD3
:1026C000A08601007F841E0083DE1B43FF083D00BF
:1026D000D34D621082B0084B1B68084AA2FB03234B
:1026E0005B0A00FB03F3019300BF019B5A1E01929A
:1026F000002BF9D102B0704700000020D34D6210CA
:10270000002800F0F18170B582B00446036813F030
:10271000010F2CD0994B5B6803F00C03042B1DD0E8
:10272000964B5B6803F00C03082B12D06368B3F57B
:10273000803F41D0002B55D103F1804303F5043392
:102740001A6822F480321A601A6822F480221A6011
:1027500037E08A4B5B6813F4803FE7D0874B1B68F8
:1027600013F4003F03D06368002B00F0BF8123689F
:1027700013F0020F75D0814B5B6813F00C0F5FD024
:102780007E4B5B6803F00C03082B54D02369002BAD
:1027900000F08A807A4B01221A60FFF7B1FC0546EF
:1027A000764B1B6813F0020F75D1FFF7A9FC401B95
:1027B0000228F5D903209EE1704A136843F4803360
:1027C0001360636843B3FFF79BFC05466B4B1B68C4
:1027D00013F4003FCBD1FFF793FC401B6428F5D9DD
:1027E000032088E1B3F5A02F09D0644B1A6822F4C6
:1027F00080321A601A6822F480221A60E1E703F13D
:102800008043A3F53C331A6842F480221A601A68A8
:1028100042F480321A60D4E7FFF772FC0546574B4A
:102820001B6813F4003FA2D0FFF76AFC401B64282A
:10283000F5D903205FE1514B5B6813F4803FA5D1CC
:102840004E4B1B6813F0020F03D02369012B40F09D
:102850004F814A4A136823F0F803616943EAC103D0
:102860001360236813F0080F33D0A369002B5CD0EA
:10287000434B0122C3F88024FFF742FC05463F4B3F
:102880005B6A13F0020F21D1FFF73AFC401B0228CC
:10289000F5D903202FE1394A136823F0F803616961
:1028A00043EAC1031360DCE7354B00221A60FFF7EF
:1028B00027FC0546314B1B6813F0020FD1D0FFF700
:1028C0001FFC401B0228F5D9032014E10120FFF76B
:1028D00001FF236813F0040F00F09680274BDB699B
:1028E00013F0805F34D1254BDA6942F08052DA610F
:1028F000DB6903F080530193019B0125214B1B6889
:1029000013F4807F26D0E368012B3DD0002B53D1F8
:1029100003F1804303F504331A6A22F001021A62BC
:102920001A6A22F004021A6233E0154B0022C3F83F
:102930008024FFF7E5FB0546104B5B6A13F0020F9E
:10294000C7D0FFF7DDFB401B0228F5D90320D2E0FA
:102950000025D3E70B4A136843F480731360FFF735
:10296000CFFB0646074B1B6813F4807FCBD1FFF7E4
:10297000C7FB801B6428F5D90320BCE0001002408F
:1029800000004242007000405F4A136A43F00103B6
:102990001362E36833B3FFF7B3FB06465A4B1B6A77
:1029A00013F0020F2FD1FFF7ABFB801B41F28833EE
:1029B0009842F3D903209EE0052B09D0524B1A6AA6
:1029C00022F001021A621A6A22F004021A62E0E797
:1029D0004D4B1A6A42F004021A621A6A42F001026E
:1029E0001A62D6E7FFF78CFB0646474B1B6A13F0CB
:1029F000020F08D0FFF784FB801B41F28833984216
:102A0000F3D9032077E0E5B9E369002B72D03E4AA1
:102A1000526802F00C02082A56D0022B17D03B4B0A
:102A200000221A66FFF76CFB0446374B1B6813F055
:102A3000007F47D0FFF764FB001B0228F5D9032075
:102A400059E0314AD36923F08053D361DCE72F4B3F
:102A500000221A66FFF754FB05462B4B1B6813F048
:102A6000007F06D0FFF74CFB401B0228F5D903205E
:102A700041E0236AB3F5803F1AD023494B6823F421
:102A80007413226A606A024313434B601F4B012296
:102A90001A66FFF735FB04461B4B1B6813F0007FDB
:102AA0000ED1FFF72DFB001B0228F5D9032022E0F1
:102AB000154A536823F40033A1680B435360DCE7E5
:102AC000002018E0002016E0012B16D00E4B5B68AA
:102AD00003F48031226A914211D103F47013626AC7
:102AE00093420ED1002006E001207047012002E051
:102AF000012000E0002002B070BD0120FBE70120B2
:102B0000F9E70120F7E700BF001002400000424251
:102B100086B0174B0FCB0DF1180C0CE90F0040F2EB
:102B20000123ADF80430134B5B6803F00C02082A54
:102B300002D0114806B07047C3F3834218326A448A
:102B400012F8100C13F4803F0DD00A4B5B68C3F3EE
:102B5000404318336B4413F8143C074A02FB00F05F
:102B6000B0FBF3F0E6E7054B03FB00F0E2E700BF44
:102B7000CCB700080010024000127A0000093D00A6
:102B8000002800F0A08070B50D460446524B1B682B
:102B900003F007038B420BD24F4A136823F007035D
:102BA0000B431360136803F007038B4240F08D80E2
:102BB000236813F0020F17D013F0040F04D0474A14
:102BC000536843F4E0635360236813F0080F04D0A4
:102BD000424A536843F460535360404A536823F0B9
:102BE000F003A1680B435360236813F0010F31D049
:102BF0006368012B20D0022B25D0384A126812F0CE
:102C0000020F64D035494A6822F0030213434B6037
:102C1000FFF776FA0646314B5B6803F00C036268F7
:102C2000B3EB820F16D0FFF76BFA801B41F28833AB
:102C30009842F0D9032045E0284A126812F4003F78
:102C4000E0D101203EE0254A126812F0007FD9D180
:102C5000012037E0204B1B6803F00703AB420AD981
:102C60001D4A136823F007032B431360136803F016
:102C70000703AB422DD1236813F0040F06D0174A87
:102C8000536823F4E063E1680B435360236813F057
:102C9000080F07D0114A536823F46053216943EAAF
:102CA000C1035360FFF734FF0C4B5B68C3F303139E
:102CB0000B4AD35CD8400B4B18600B4B1868FFF7DE
:102CC000DBF9002070BD012070470120FAE70120E8
:102CD000F8E70120F6E700BF0020024000100240A4
:102CE000B4B700080000002008000020014B18685D
:102CF000704700BF0000002008B5FFF7F7FF044B46
:102D00005B68C3F30223034AD35CD84008BD00BF0D
:102D100000100240C4B7000808B5FFF7E7FF044BF6
:102D20005B68C3F3C223034AD35CD84008BD00BF2D
:102D300000100240C4B7000870B4036A23F0010316
:102D40000362036A4668826922F073020C6844EAEF
:102D5000020523F002028B6813430D4CA04209D0F8
:102D60000B4CA0420DD0466085614A684263036205
:102D700070BC704723F00803CA68134323F00403B0
:102D8000EEE726F440764A6932438E691643EAE755
:102D9000002C014030B4036A23F480730362036A99
:102DA0004568C26922F073020C68224323F4007361
:102DB0008C6843EA04230F4CA04209D00D4CA0427A
:102DC0000ED04560C2614A68C263036230BC70477E
:102DD00023F40063CC6843EA042323F48063EDE723
:102DE00025F440554C6945EA04158C6945EA0415FB
:102DF000E7E700BF002C014030B4036A23F480539E
:102E00000362036A4468C26922F4E6420D6842EA3A
:102E1000052223F400538D6843EA0533074DA84289
:102E200006D04460C2614A680264036230BC7047E5
:102E300024F480444D6944EA8514F2E7002C0140F3
:102E40007047704770477047704710B50446036875
:102E50001A6912F0020F11D0DA6812F0020F0DD0C9
:102E60006FF002021A610123037703689B6913F074
:102E7000030F70D0FFF7E6FF0023237723681A695A
:102E800012F0040F12D0DA6812F0040F0ED06FF0B7
:102E900004021A610223237723689B6913F4407F9D
:102EA0005FD02046FFF7CEFF0023237723681A69FF
:102EB00012F0080F12D0DA6812F0080F0ED06FF07F
:102EC00008021A61042323772368DB6913F0030FD8
:102ED0004ED02046FFF7B6FF0023237723681A69F8
:102EE00012F0100F12D0DA6812F0100F0ED06FF03F
:102EF00010021A61082323772368DB6913F4407FEB
:102F00003DD02046FFF79EFF0023237723681A69F0
:102F100012F0010F03D0DA6812F0010F36D12368E6
:102F20001A6912F0800F03D0DA6812F0800F34D1E2
:102F300023681A6912F0400F03D0DA6812F0400FCC
:102F400032D123681A6912F0200F03D0DA6812F028
:102F5000200F30D110BDFFF774FF2046FFF773FF3D
:102F60008AE72046FFF76DFF2046FFF76CFF9BE7DF
:102F70002046FFF766FF2046FFF765FFACE72046D7
:102F8000FFF75FFF2046FFF75EFFBDE76FF001022E
:102F90001A612046FFF754FFC1E76FF080021A6103
:102FA000204600F0AFFAC3E76FF040021A612046F6
:102FB000FFF74AFFC5E76FF020021A61204600F0D4
:102FC000A0FAC7E703681B4A90420AD0B0F1804FCD
:102FD00007D0A2F59432904203D002F5806290426D
:102FE00003D123F070034A681343124A90420AD077
:102FF000B0F1804F07D0A2F59432904203D002F591
:103000008062904203D123F44073CA68134323F0D3
:1030100080034A69134303608B68C3620B68836251
:10302000044B984202D00123436170470B6903634C
:10303000F9E700BF002C014040B310B5044690F8FA
:103040003D30F3B1022384F83D30214651F8040BA2
:10305000FFF7B8FF012384F8463084F83E3084F847
:103060003F3084F8403084F8413084F8423084F8AE
:10307000433084F8443084F8453084F83D300020F3
:1030800010BD80F83C30FEF787FDDBE7012070477C
:10309000002857D070B50D46044690F83D30002BFF
:1030A0004BD0022384F83D302268936823F4804398
:1030B00023F007039360214651F8040BFFF782FFCA
:1030C00021688A688B690E6A2868104323F4407C63
:1030D0002CF0030CAA68AB6942EA032343EA0C0311
:1030E00023F47C4323F0FC03EA69D5F80CC04CEAD6
:1030F000022C4CEA030C2A6A13032A6943EA0213DE
:1031000043EA0C0326F022066A686D6942EA05125A
:103110003243886021688B6123681A62012384F836
:10312000463084F83E3084F83F3084F8423084F8EA
:10313000433084F83D30002070BD80F83C30FEF70D
:1031400073FDAEE70120704730B4036A23F010032B
:103150000362036A4468826922F4E6420D6842EA27
:10316000052223F020038D6843EA05130E4DA84283
:1031700009D00D4DA8420ED0446082614A68826336
:10318000036230BC704723F08003CD6843EA051327
:1031900023F04003EDE724F440644D6944EA8504DC
:1031A0008D6944EA8504E7E7002C014038B590F8C2
:1031B0003C30012B60D004460D46012380F83C30A2
:1031C0000C2A1AD8DFE802F0071919191D19191964
:1031D0003119191944000068FFF7AEFD22689369A0
:1031E00043F0080393612268936923F00403936119
:1031F0002268936929690B439361002084F83C009D
:1032000038BD0068FFF7A0FF2268936943F40063AC
:1032100093612268936923F48063936122689369C0
:10322000296943EA01239361E7E70068FFF7B2FDEC
:103230002268D36943F00803D3612268D36923F07D
:103240000403D3612268D36929690B43D361D4E7AE
:103250000068FFF7D1FD2268D36943F40063D361AE
:103260002268D36923F48063D3612268D369296912
:1032700043EA0123D361C0E70220C1E701F01F0147
:10328000012303FA01FC036A23EA0C030362036AC5
:1032900002FA01F10B4303627047000010B50446C7
:1032A000084651BB94F83E30DBB2013B18BF012306
:1032B000002B5BD1002839D1022384F83E30012253
:1032C00001462068FFF7DAFF23682A4A93423DD07F
:1032D0002368284A93423ED0B3F1804F3BD0A2F5F9
:1032E0009432934237D002F58062934233D01A6809
:1032F00042F001021A60002039E0042908D00829B0
:103300000DD094F84130DBB2013B18BF0123CFE769
:1033100094F83F30DBB2013B18BF0123C8E794F8B3
:103320004030DBB2013B18BF0123C1E7042805D0C0
:10333000082807D0022384F84130C0E7022384F82C
:103340003F30BCE7022384F84030B8E75A6C42F4BF
:1033500000425A64BCE79A6802F00702062A07D0C6
:103360001A6842F001021A60002000E0012010BD3E
:103370000020FCE7002C014038B5044690F83E00E0
:10338000C0B294F83F3094F84220D2B294F843C0CF
:103390000D46B1B9012849D1012A48D1022384F848
:1033A0003E3084F842307DB3042D39D00122002113
:1033B0002068FFF763FF012204212068FFF75EFF0A
:1033C00027E0DBB25FFA8CFC042912D0012833D14C
:1033D000012B2CD1012A31D1BCF1010F30D10223B4
:1033E00084F83E3084F83F3084F8423084F843302B
:1033F000D9E7012B1CD1BCF1010F1BD1022384F8AA
:103400003F3084F84330CEE7012200212068FFF7E7
:1034100035FF2268136843F001031360002006E0C3
:10342000012204212068FFF729FFF2E7012038BDBF
:103430000120FCE71846FAE70120F8E71846F6E70E
:103440001046F4E790F83C30012B2CD010B4012347
:1034500080F83C30022380F83D3003685A689C684D
:1034600022F0700C0A6842EA0C025A6003680F4AA4
:1034700093420AD0B3F1804F07D0A2F59432934221
:1034800003D002F58062934204D124F080044A689C
:1034900014439C60012380F83D30002380F83C30C9
:1034A000184610BC70470220704700BF002C014036
:1034B00090F83C30012B22D0012380F83C30CB68BF
:1034C00023F440738A68134323F480634A681343E8
:1034D00023F400630A68134323F480530A691343F7
:1034E00023F400534A69134323F48043CA69134306
:1034F00002685364002380F83C301846704702206D
:103500007047704770470268D36823F49073D360A4
:103510000268536923F001035361036B012B05D04B
:10352000202380F83E300023036370470268D3688D
:1035300023F01003D360F3E790F83D30DBB2212B8A
:1035400001D0022070478368B3F5805F17D0036A0B
:103550005A1C02621A7803685A60C38C9BB2013B02
:103560009BB2C3844BB90268D36823F08003D36055
:103570000268D36843F04003D360002070470369BA
:10358000002BE4D1036A1B880268C3F3080353606D
:10359000036A02330362E0E710B504460268136968
:1035A00023F44053C1680B431361836802691343DA
:1035B00042691A430168CB6823F4B05323F00C032B
:1035C0001343CB600268536923F4407381690B4352
:1035D00053610268134B9A4220D0FFF78DFB0246DD
:1035E00002EB820202EB820263689B00B2FBF3F201
:1035F0000D48A0FB02314909642303FB11231B0181
:103600003233A0FB03235B0903F0F00202EB01124B
:1036100003F00F03216813448B6010BDFFF77CFBA0
:103620000246DDE7003801401F85EB512DE9F843E4
:1036300005460F4616469946DDF820802C6824681A
:1036400037EA04030CBF4FF0010C4FF0000CB445F7
:103650001FD1B8F1FF3FF1D0B8F1000F05D0FEF750
:103660004FFDA0EB09004045E8D92A68D36823F450
:10367000D073D3602A68536923F001035361202378
:1036800085F83D3085F83E30002385F83C30032036
:1036900000E00020BDE8F88358B310B5044690F868
:1036A0003D300BB3242384F83D302268D36823F4E3
:1036B0000053D3602046FFF76FFF2268136923F49D
:1036C000904313612268536923F02A0353612268EF
:1036D000D36843F40053D36000202064202384F88F
:1036E0003D3084F83E3010BD80F83C30FEF71AFCC7
:1036F000D8E7012070472DE9F04182B01E4690F8CE
:103700003D30DBB2202B54D104460D4690460029B3
:1037100053D0002A53D090F83C30012B51D00123D4
:1037200080F83C3000230364212380F83D30FEF70D
:10373000E7FC0746A4F82480A4F82680A368B3F524
:10374000805F05D04FF00008002384F83C3012E081
:10375000236913B14FF00008F6E7A8460025F3E708
:1037600038F8023B2268C3F308035360E28C92B23C
:10377000013A92B2E284E38C9BB273B100963B466D
:10378000002280212046FFF751FFE0B9002DE7D04D
:1037900015F8012B23685A60E8E700963B460022A3
:1037A00040212046FFF742FF78B9202384F83D30BE
:1037B00000E0022002B0BDE8F0810120FAE701201C
:1037C000F8E70220F6E70320F4E70320F2E72DE90B
:1037D000F04182B01E4690F83E30DBB2202B5CD127
:1037E00004460D46904600295BD0002A5BD090F835
:1037F0003C30012B59D0012380F83C300023036476
:10380000222280F83E200363FEF77AFC0746A4F8E4
:103810002C80A4F82E80A368B3F5805F05D04FF00C
:103820000008002384F83C3017E0236913B14FF0FF
:103830000008F6E7A8460025F3E723685B68C3F3B2
:10384000080328F8023B03E023685B682B7001350E
:10385000E28D92B2013A92B2E285E38D9BB2BBB1A6
:1038600000963B46002220212046FFF7DFFEF0B9FC
:10387000002DE2D0A368B3F5805FE5D013B92369CA
:10388000002BE1D023685B6803F07F032B70DEE739
:10389000202384F83E30002000E0022002B0BDE882
:1038A000F0810120FAE70120F8E70220F6E7032083
:1038B000F4E7704708B50168CA6822F04002CA60A0
:1038C000202280F83D20FFF7F4FF002008BD70475C
:1038D00008B5406A0023C385C384FFF7F8FF08BD1D
:1038E000704790F83E30DBB2222B60D18368B3F58D
:1038F000805F46D0826AB3F5805F04D0002B4DD143
:103900000369002B4AD103685B681370836A013333
:103910008362C38D9BB2013B9BB2C385002B48D110
:1039200000B583B00268D36823F02003D360026837
:10393000D36823F48073D3600268536923F00103D2
:103940005361202380F83E30036B012B2CD10023E0
:1039500003630268D36823F01003D36003681A6816
:1039600012F0100F06D0002201921A6801925B68D3
:103970000193019B818DFFF7B3FF002003B05DF839
:1039800004FB0269002AB5D1826A03685B68C3F34D
:1039900008031380836A02338362BAE703685B68B3
:1039A00003F07F031370B1E7FDF780FAE5E702202B
:1039B000704700207047000030B583B004460268AD
:1039C0001368D068516913F00F0505D113F0200F6B
:1039D00002D010F0200F19D12DB111F0010119D131
:1039E00010F4907F16D1216B012975D013F0800F50
:1039F00003D010F0800F40F0D78013F0400F03D0B9
:103A000010F0400F40F0D48003B030BD2046FFF7E7
:103A100068FFF9E713F0010F06D010F4807F03D0A0
:103A2000226C42F00102226413F0040F04D019B199
:103A3000226C42F00202226413F0020F04D019B18A
:103A4000226C42F00402226413F0080F07D010F039
:103A5000200F00D119B1226C42F008022264226CBE
:103A6000002AD1D013F0200F02D010F0200F21D166
:103A700023685B6903F04003226C12F0080F00D149
:103A800023B32046FFF73FFD23685A6912F0400F29
:103A900018D05A6922F040025A61A36B73B1464AAA
:103AA0005A63A06BFEF7D4FB0028ADD0A06B436B2C
:103AB0009847A9E72046FFF714FFD9E72046FFF70C
:103AC00006FFA1E72046FFF702FF9DE72046FFF72C
:103AD000FEFE0023236497E713F0100F86D010F04A
:103AE000100F83D00023019313680193536801934F
:103AF000019B536913F0400F32D0A16B0B685B68D8
:103B00009BB2002B80D0A08D98427FF67DAFE385DD
:103B10008B69202B08D1A18DE38D9BB2C91A89B284
:103B20002046FFF7DDFE6FE7D36823F48073D36090
:103B30002268536923F0010353612268536923F01B
:103B400040035361202384F83E300023236322681E
:103B5000D36823F01003D360A06BFEF757FBDAE7BE
:103B6000A18DE38D9BB2C91A89B2E38D9BB2002B64
:103B70003FF44AAF00293FF447AFD36823F4907372
:103B8000D3602268536923F001035361202384F832
:103B90003E30002323632268D36823F01003D360F0
:103BA0002046FFF79DFE2FE72046FFF7C5FC2BE7D9
:103BB0002046FFF77FFE27E7D138000803468162E1
:103BC0008285C28500201864222283F83E2083F873
:103BD0003C001968CA6842F48072CA6019684A6970
:103BE00042F001024A611A68D36843F02003D360AF
:103BF000704708B590F83E30DBB2202B0DD171B183
:103C00007AB190F83C30012B0DD0012380F83C3084
:103C100000230363FFF7D2FF00E0022008BD01206C
:103C2000FCE70120FAE70220F8E70000014B1868E2
:103C3000704700BF0C00002070B50D4E0D4D761B77
:103C4000B61006D0002455F8043B01349847A6422C
:103C5000F9D1094E094D06F073F9761BB61006D05E
:103C6000002455F8043B01349847A642F9D170BDB1
:103C7000E8BB0008E8BB0008F0BB0008E8BB000890
:103C8000830730B548D0541E002A3FD00346CAB23D
:103C900001E0013C3AD303F8012B9D07F9D1032C35
:103CA0002DD9CDB245EA05250F2C45EA054536D973
:103CB000A4F1100222F00F0C03F1200EE6444FEAAB
:103CC000121C03F1100242E9045542E90255103278
:103CD0007245F8D10CF1010214F00C0F03EB021243
:103CE00004F00F0C13D0ACF1040323F003030433EE
:103CF000134442F8045B9342FBD10CF003042CB153
:103D0000CAB21C4403F8012B9C42FBD130BD64466F
:103D10001346002CF4D1F9E703461446BFE71A46D0
:103D2000A446E0E70FB400B5074A83B004AB1068BF
:103D300053F8042B8168019300F064F903B05DF837
:103D400004EB04B0704700BF0C00002030B50546FE
:103D500089B008460C4600F027F901210223214AC8
:103D600004940692AA6B04AC059008440194079150
:103D7000AC680293039022B3636E13F0010FB4F9A1
:103D80000C309AB201D1980525D5910406D4626E03
:103D900043F4005322F40052A3816266284601AA2C
:103DA000214603F051FA636E002814BF4FF0FF352F
:103DB0000A25DA0702D4A3899B0506D5284609B04F
:103DC00030BD284603F048F8D6E7A06D03F0E2FBCB
:103DD000284609B030BDA06D03F0DAFBB4F90C3011
:103DE0009AB2D2E7B0B70008024B01461868FFF755
:103DF000ADBF00BF0C0000202DE9F043694C0E461A
:103E0000D4F80080174604461D4683B0B8F1000F71
:103E100003D0D8F83830002B77D0022F05D0012FEF
:103E200000F2AC80002DC0F2A980636EDA0752D593
:103E30002146404602F0DCFF216B41B104F1400312
:103E4000994202D0404603F0FFF800232363002389
:103E5000B4F90CC0A3611CF0800F636064D12CF432
:103E60004A6C2CF0030C022FA4F80CC06AD001ABF2
:103E7000214640466A4603F0FFFBA3891843A08110
:103E8000002D2FD0002E2ED0D8F83830002B38D06F
:103E9000009BC4E90465AB42B4F90C3026601CBF3A
:103EA00043F40063A381012F04BF43F00103A38106
:103EB0009AB213F008032CD0D1075DD500216D42D2
:103EC000A561656EA16015F0010527D00025284683
:103ED00003B0BDE8F083A3899B05A9D4A06D03F0CE
:103EE00057FBA5E7009D284603F0F6FB0646002891
:103EF00047D0A38943F08003A381D8F83830002B42
:103F0000C6D1404602F0A8FFC2E7404602F0A4FF37
:103F100083E7A360656E15F00105D7D1930524D51D
:103F2000284603B0BDE8F0834046216903F08CF8D1
:103F3000B4F90CC0022F2CF44A6C2CF0030CA4F83A
:103F40000CC094D100250021012204F14303236019
:103F50002361636E4CF0020CD807A4F80CC0A1607A
:103F60006261DDD41CF4007FDAD1A06D03F012FB96
:103F7000284603B0BDE8F083A560CBE74FF0FF35DE
:103F8000CEE7DDF80090A94504D0484603F0A4FB35
:103F9000064620B94FF0FF35B4F90CC0D3E74D46C3
:103FA000A7E700BF0C00002020F0030110F0030081
:103FB000C0F1000051F8043B00F1040C4FEACC0CB6
:103FC0006FF000021CBF22FA0CF213434FF0010CF9
:103FD0004CEA0C2C4CEA0C4CA3EB0C0222EA030238
:103FE00012EACC1204BF51F8043B0430F4D0C2F101
:103FF000000102EA0102B2FA82F2C2F11F0200EBF2
:10400000D20070472DE9F04FD5B01C46914607917C
:104010000546099003F0B4FA02680E941046179210
:10402000FFF7C2FF16901DB1AB6B002B00F01D8295
:10403000079A536EDD0740F12D81B2F90C2091B241
:104040008F0409D4079B42F400529A8191B21A4618
:104050005B6E23F4005353660E0740F1C080079B4C
:104060001B69002B00F0BB8001F01A030A2B00F043
:10407000C48000242BAB224698464D46CDE9294406
:104080002893129400230024CDE914342B78CDE931
:104090001922CDE91B2218920B92002B00F08F8180
:1040A000AA4604E01AF8013F002B00F0BB80252B44
:1040B000F8D1BAEB050640F0B9809AF80030002B31
:1040C00000F07D8100234FF0FF324FF02B092024B8
:1040D0001F469AF8016008920AF1010A8DF88330B0
:1040E0000A930AF1010AA6F120035A2B00F2E1809B
:1040F000DFE813F00503DF00DF000003DF00DF006F
:10410000DF00DE02DF00DF006A006E02DF00550222
:104110007802DF0073025B005B005B005B005B000A
:104120005B005B005B005B00DF00DF00DF00DF00A7
:10413000DF00DF00DF006C01DF00EA01C4016C0179
:104140006C016C01DF00DF00DF00DF00D002DF0068
:10415000DF002302DF00DF00DF00F801DF00920252
:10416000DF00DF008707DF00DF00DF00DF00DF00A8
:10417000DF00DF00DF006C01DF00EA01C6016C0137
:104180006C016C01B602C601BF01DF00C302DF0093
:104190005A022502A402BF01DF00F8017200840761
:1041A000DF00DF006507DF0072000022A6F13003A8
:1041B0001AF8016B02EB820203EB4202A6F1300314
:1041C000092BF5D90A928EE70E9B53F8042B002A8F
:1041D0000A920E93C0F2E0819AF8006081E7079D91
:1041E0000998294601F0FCFC002841F04D83A9897B
:1041F00001F01A030A2B7FF43CAF079AB2F90E3094
:10420000002BFFF636AF536ED80702D4890541F173
:10421000488123464A460799099855B0BDE8F04FB2
:1042200001F09CBCBAEB050600F0C9802A9BC8E9E6
:10423000005633442A93299B0133072B299305DC2D
:1042400008F108080B9B33440B9336E7079909984C
:1042500028AA04F057FC80B90DF1AC08F2E70799E1
:10426000099828AA04F04EFC002800F099800D9BC4
:104270001BB11946099802F0E7FE079A536ED90759
:1042800040F1E88093895B0601F10A830B9855B0F1
:10429000BDE8F08F079BB3F90C20900591B23FF574
:1042A000CFAE1D46986D03F073F9B5F90C2091B2AD
:1042B000C6E6002E00F08380012300228DF8EC601A
:1042C00006933BAD8DF883200C930D9208920F92CC
:1042D0001392109217F0020302D006990231069150
:1042E00017F0840B07D10A990698A1EB0009B9F1E0
:1042F000000F00F390832A9C82B10122C8F80420A9
:10430000299A013401320DF18301072A2A94299256
:10431000C8F8001000F3D88308F108087BB1022325
:10432000C8F80430299B0234013321AA072B2A94B0
:104330002993C8F8002000F3D58308F10808BBF1E1
:10434000800F00F08882089B0C9AA3EB020BBBF154
:10435000000F00F3CB82FB0500F11F820C9BC8F815
:1043600000501C44C8F80430299B2A940133072BC1
:10437000299300F3448308F10808780705D50A9BC0
:10438000069A9D1A002D00F3B983DDE90A230699E8
:104390008A42ACBF9B185B180B93002C7FF45FAF75
:1043A000002329930D9B1BB10D99099802F04CFE37
:1043B00055460DF1AC082B78002B7FF471AE2A9B8B
:1043C000002B41F010820023299356E70E9B073300
:1043D00023F00702F2E80234CDE91434DDE91434A5
:1043E00024F00044994618460E9221464FF0FF32C1
:1043F000AB4BFCF779FB002840F018854846214676
:104400004FF0FF32A64BFCF751FB002840F00E8521
:10441000DDE9140100220023FCF73EFB002840F0F8
:1044200065879DF88320002103209E4D9E4B27F039
:1044300080070D910690472EC8BF1D4608910C902D
:104440000F9113911091002A3FF444AF069B013362
:1044500006933FE7079B9B899A053FF514AF079C9E
:10446000A06D03F097F8A3890DE7099802F0F4FC1A
:10447000DEE59AF8006047F0200732E647F01007C3
:10448000BA060E9B40F16E84073323F007031A46E9
:104490005B6852F8084B99460E92002BC0F26F846D
:1044A000089B013300F0FB8254EA090327F0800BDC
:1044B00040F0F682089B002B40F0F7825F46002315
:1044C00054AD08930C933DE1012000220E9B069011
:1044D00053F8041B3BAD8DF883208DF8EC100E9340
:1044E0000C90F2E64FF000090E9C089B54F8045B18
:1044F0008DF88390002D00F0A1855A1C00F0A58650
:104500001A464946284603F09BFB0D90002801F00F
:1045100050810D9B9DF883205B1B0C9323EAE37372
:10452000CDF820900E940693CDF83490CDF83C90C1
:10453000CDF84C90CDF8409085E747F0100717F084
:10454000200900F0F2830E9B073323F00703D3F812
:10455000049053F8084B0E93002327F4806B00223D
:104560008DF88320089A511C00F0D48054EA090188
:104570002BF0800740F0CD80002A40F00486002B0D
:104580009DD11BF001030C9300F0308430230DF219
:104590004F158DF84F31D5E00A9B5B420A939AF88C
:1045A000006047F004079CE5BD0600F1FD84FC06B1
:1045B00000F1EE85780600F1B286B90540F1E88594
:1045C0000E9B0B9953F8042B554611700E93F2E68F
:1045D0009AF800608DF8839083E59AF8006047F0C0
:1045E00080077EE5524612F8016B2A2E01F08D827B
:1045F000A6F13003092B924698BF002201F2E58014
:104600001AF8016B02EB820203EB4202A6F13003BF
:10461000092BF5D9089266E547F0100B1BF020092D
:1046200000F091830E9B073323F007031A4652F8DC
:10463000084BD3F804900E92012390E7302278269D
:104640000E9B8DF8842053F8044B184A0E934FF0BC
:104650000009022347F0020B8DF8856018927EE76F
:104660009AF80060682E03BF9AF8016047F400775B
:104670000AF1010A47F0400733E59AF800606C2E12
:1046800003BF9AF8016047F020070AF1010A47F0DA
:10469000100726E59AF8006047F0080721E500BFFB
:1046A000FFFFEF7FE4B70008E8B70008F4B70008A1
:1046B000099E304602F064FF436818461B93FFF7DB
:1046C00073FC034630461C931E4602F059FF836874
:1046D0001993002E3FF480AD199B002B3FF47CAD65
:1046E000199B1B78002B3FF477AD9AF8006047F4D4
:1046F0008067F6E49AF8006047F00107F1E49DF85E
:104700008330002B7FF468AD9AF800608DF8834009
:10471000E7E4BB46012B00F0C381022B54AD1FD14F
:10472000189A04F00F03D35C240944EA09744FEA91
:10473000191905F8013D54EA0903F2D15F4654AB5B
:104740005B1B0C93089A0C9900238A42B8BF0A4657
:104750000D9306920F939DF883201393109372E6A6
:1047600004F00703E40844EA49744FEAD9093033F6
:1047700054EA09012A4605F8013DF1D11BF0010F69
:10478000DCD0302BDAD03023023A05F8013C54ABB0
:104790009B1A5F4615460C93D4E7652E40F3E980DB
:1047A000DDE9140100220023FCF76CF9002800F079
:1047B000E1810123C8F80430299BC04A0133013448
:1047C000072B2A942993C8F8002000F3BF8408F12E
:1047D0000808229B129A934280F2DC82169B179A59
:1047E0001C44C8E90023299B2A940133072B2993F1
:1047F00000F3178408F10808129B5D1E002D7FF757
:10480000BCAD102D41F35D81DFF8B49222464946DC
:104810001026B946299B0F46DDF824B0079C05E019
:1048200008F10808103D102D40F39D84013310322B
:10483000072BC8E90076CDE92932F1DD214658463B
:1048400028AA04F05FF900287FF411ADDDE92932D0
:104850000DF1AC08E6E70A9B069AA3EB020BBBF14D
:10486000000F7FF770ADBBF1100F41F35280DFF8FE
:10487000509241462046A8464C461023299A079D4F
:10488000DDF8249006E0ABF1100BBBF1100F01F145
:10489000080119DD01321030072AC1E90043CDE9D2
:1048A0002920F0DD2946484628AA04F02BF90028E3
:1048B0007FF4DDACDDE92920ABF1100BBBF1100F6B
:1048C0004FF010032BA9E5DC4546A1468846044677
:1048D00001325C44072ACDE92924C8F80090C8F8C1
:1048E00004B000F3918308F108082CE5BBF1100F28
:1048F00040F3E384DFF8C89141462046A8464C4681
:104900001023299A079DDDF8249006E0ABF1100BE7
:10491000BBF1100F01F1080119DD01321030072A37
:10492000C1E90043CDE92920F0DD2946484628AAFF
:1049300004F0E8F800287FF49AACDDE92920ABF117
:10494000100BBBF1100F4FF010032BA9E5DC45460F
:10495000A1468846044601325C44072ACDE9292451
:10496000C8F80090C8F804B000F3D28108F1080834
:10497000F1E4129B012B40F382810123299E013433
:104980001E44072EC8F800502A94C8F8043029960F
:1049900000F36C8308F10808169B0136179A1C4433
:1049A000072EC8E90023CDE9296400F36C8308F1E0
:1049B00008080022DDE914010023FCF763F8002851
:1049C00040F07A81129B0136013B01351C44072ED1
:1049D000C8F800502996C8F804302A9400F35F8183
:1049E00008F108081A9B01361C44C8F80430072E49
:1049F00024ABCDE92964C8F800307FF7BCAC079937
:104A0000099828AA04F07EF800287FF430AC2A9C8C
:104A10000DF1AC08B1E4B9F1100F40F3C686DDE941
:104A200029214046CDE91D36B84610244F46079E41
:104A3000A946099D04E0103F102F00F1080016DD83
:104A40000132204B1031072AC0E90034CDE9292179
:104A5000F1DD3146284628AA04F054F800287FF4F6
:104A600006ACDDE92921103F102F2BA8E8DC4D46CC
:104A7000DDE91D36B9464746804609EB010401329F
:104A80001049072ACDE92924C8F80490C8F8001075
:104A900000F340839DF8832008F108082CE4BB460E
:104AA0000A2C79F1000380F0FB82012330345F4649
:104AB0008DF84F410C930DF24F1543E624B80008D2
:104AC00038B8000828B800080799099828AA1D9343
:104AD00004F018F800287FF4CAAB2A9C1D9B0DF146
:104AE000AC081BE40799099828AA04F00BF80028E1
:104AF0007FF4BDAB2A9C0DF1AC0820E4102D40F3EF
:104B0000BE861026299B099FDDF81C9004E0103D0D
:104B1000102D08F1080817DD0133BA4A1034072BAD
:104B2000C8E90026CDE92934F1DD4946384628AAEE
:104B300003F0E8FF00287FF49AABDDE92934103D4B
:104B4000102D0DF1AC08E7DC0133AE4A2C44072BE5
:104B5000CDE92934C8F80450C8F800207FF715AC17
:104B60000799099828AA03F0CDFF00287FF47FABAE
:104B70002A9C0AE42299002940F31081DDF8409034
:104B8000129B9945A8BF9946B9F1000F0BDD299BEF
:104B90004C440133072BC8E900592A94299300F3A8
:104BA000818508F10808109EB9F1000FA8BFA6EB97
:104BB0000906002E00F3F582DDF840B07905AB441C
:104BC00000F1AC84229B129A934202DBFA0740F177
:104BD0009283169A17991444C8E90012299A2A94C4
:104BE0000132072A299200F3A88508F10808129AD1
:104BF000AE18A6EB0B06D51AAE42A8BF2E46002E65
:104C00000DDD299B34440133072BC8F800B0C8F8E8
:104C100004602A94299300F3FC8508F10808002E0B
:104C2000A8BFAD1B002D7FF7A8AB102D40F349871F
:104C3000DFF8D491224649461026B946299B0F46F3
:104C4000DDF824B0079C05E008F10808103D102DA0
:104C500040F3898201331032072BC8E90076CDE991
:104C60002932F1DD2146584628AA03F04BFF0028DF
:104C70007FF4FDAADDE929320DF1AC08E6E7FE0775
:104C80003FF57BAE0123299E01341E44072EC8F850
:104C900000502A94C8F8043029967FF7A1AE0799EE
:104CA000099828AA03F02EFF00287FF4E0AADDE986
:104CB00029640DF1AC0895E6129B5D1E002D7FF76F
:104CC00091AE102D40F31987224608974FF0100B34
:104CD000DFF83491099C079F05E008F10808103DB2
:104CE000102D40F3C78201361032072EC8E9009B11
:104CF000CDE92962F1DD3946204628AA03F002FFFA
:104D000000287FF4B4AADDE929620DF1AC08E6E7DA
:104D10000799099828AA03F0F5FE00287FF4A7AAAE
:104D20002A9C0DF1AC08FFF716BB17F0100377D1E2
:104D300017F0400200F0AC820E9A994652F8044BEC
:104D40000E92A4B208E41BF010030E9A54D11BF08B
:104D500040014DD052F8044B99460E920123A4B263
:104D6000FFF7FDBB53F8044B0E93FB0653D47D06AF
:104D70004ED544F3C0394B4624B2FFF78EBB2D23EA
:104D800064428DF88330BB464FF0010369EB49095B
:104D9000FFF7E8BBF8077FF5F0AA1FE50123C8F885
:104DA0000430299B194A01330134072B2A94299393
:104DB000C8F8002000F3688408F10808002940F0D2
:104DC0002582129A07F0010313433FF4D6AA169BDB
:104DD0001799E218C8E90013299B2A920133072B7F
:104DE000299300F3508308F1080820E254ADA9E4A8
:104DF0001BF4007940F0A08252F8044B01230E927C
:104E0000FFF7ADBB28B8000838B8000824B8000880
:104E1000B80500F179824FEAE4794B46FFF73DBBD4
:104E20000E9B53F8044B0E93FFF796BBDDE914017C
:104E300002460B46FBF758FE002840F0F785612E2E
:104E400000F06C85412E00F07F82089B013300F05A
:104E5000948526F02003472B069300F07B85DDE93F
:104E6000141247F480730F931346002BC0F2F4859D
:104E70000C9300238B461D930D93069B462B00F04D
:104E80002B84452B00F0148508990C9B019102217D
:104E9000009126A9049123A9039122A95A460998B1
:104EA000029100F0ADFF069B0546472B40F044867B
:104EB00017F0010FB9460F9F40F0F784269B5B1B4C
:104EC0001293069B472B00F0F182069B462B00F0C5
:104ED0004284229B1093109B069A013B412A229305
:104EE00000F08A850021F2B2002B8DF89020B6BF29
:104EF0002D222B22109B8DF89120B8BFC3F1010306
:104F0000092B40F381850DF19F0C6246BA4F1C4678
:104F1000104687FB0312D917C1EBA20101EB8102F6
:104F2000A3EB42023032632C00F8012C0B4600F157
:104F3000FF32ECDC3033811EDBB28C4502F8013CE1
:104F400040F2FF850DF1920101E012F8013B94451A
:104F500001F8013BF9D10DF1A1030DF192021B1AE9
:104F6000134424AA9B1A1A93129B1A9A012B1A44CF
:104F70000C9240F39E850C9B169A13440C930023CD
:104F80000C9A29F4806722EAE27247F480770F9343
:104F90000692139310931D9B002B40F0B0829DF856
:104FA00083200893FFF74FBA0E9B0B9853F8041B0E
:104FB000C2175546C1E900020E93FFF7FCB98F4BAB
:104FC000189317F0200949D00E9B073323F00703ED
:104FD000D3F8049053F8084B0E93F80709D554EA18
:104FE000090306D030238DF8856047F002078DF85D
:104FF0008430022327F4806BFFF7B1BABB46FFF77A
:105000000DBB7F4B1893DCE70799099828AA03F09A
:1050100079FD00287FF42BA92A9C0DF1AC08FFF73D
:1050200092B90799099828AA03F06CFD00287FF42B
:105030001EA92A9C0DF1AC08FFF7DEBB062B294602
:1050400028BF06232A4608950D9506936D4D0E94AC
:105050000C930F9113911091FFF7F5B917F010030E
:1050600069D00E9B53F8044B0E93B6E70799099845
:1050700028AA03F047FD00287FF4F9A8DDE9296498
:105080000DF1AC0888E40799099828AA03F03AFDC5
:1050900000287FF4ECA8DDE929640DF1AC0888E470
:1050A00000230BF48062CDE90CA8069692461E46BA
:1050B000DDF8648054AF0CE00023204649460A2204
:1050C000FBF750FD0A2C79F100031BD304468946F7
:1050D0002F4620460A2200234946FBF743FD303283
:1050E0007D1E013607F8012CBAF1000FE4D098F8C4
:1050F00000309E42E0D1FF2EDED00A2C79F1000371
:1051000080F0E080CDF864801296DDE90CA8069E60
:10511000FFF714BB0799099828AA1D9303F0F2FC26
:1051200000287FF4A4A89DF883202A9C1D9B0DF1E4
:10513000AC08FFF7E1B817F0400200F0B4800E9A17
:10514000994652F8044B0E92A4B246E70799099883
:1051500028AA03F0D7FC00287FF489A82A9C0DF127
:10516000AC08FFF736BB14463A464F46914601332A
:105170002C44072BC8F80090C8F80450CDE9293416
:105180007FF7F9A83BE4012BBB467FF4C6AA8CE469
:105190000E9B0B9953F8042B554611600E93FFF7A5
:1051A0000AB9102E40F3AD84DFF85C9042464846C1
:1051B0002146A846B9464FF0100B0746299B099C8B
:1051C000079D04E00832103E102E40F34882013360
:1051D0001031072BC2E9007BCDE92931F2DD2946E8
:1051E000204628AA03F08EFC00287FF440A8DDE9C1
:1051F00029312BAAE7E700BF67666666F4B70008A7
:1052000008B800081CB8000838B80008169B1798A2
:10521000E218C8E90003299B2A920133072B29933E
:1052200000F3318108F108080029C0F202831299C5
:1052300001338C18072BCDE92934C8F80050C8F881
:1052400004107FF798A8FFF7DABB2846CDF8209026
:105250000E94FEF7A9FE20EAE073CDE90C099DF853
:105260008320CDF83C90CDF84C90CDF8409006933B
:10527000FFF7E9B81446089F01362C44072ECDE904
:105280002964C8F80090C8F804507FF7A9AB06E578
:1052900017F400790E9B3DD053F8044B91460E93C2
:1052A000E4B2FFF759B917F400790E9B40D053F8D8
:1052B000044B91460E93E4B28FE6299ADFF84C92A4
:1052C000FFF749BB1C9B1B99ED1A1A46284603F0B1
:1052D000A9FB98F801300BB108F1010820464946B6
:1052E0000A2200230026FBF73DFCEFE62D228DF875
:1052F0008320FFF798B8129AAE18A6EB0B06D51AC2
:10530000AE42A8BF2E468AE444F3C0194B4664B2AD
:10531000FFF7C3B853F8044B0E93FFF71DB90E9B6C
:105320000B9953F8042B554611800E93FFF743B8A1
:1053300053F8044B0E9350E652F8044B8946012370
:105340000E92E4B2FFF70BB930238DF88430582366
:105350008DF88530089B47F00204632B00F3E3824D
:1053600000233BAD0D9347F481730F93DDE91412D5
:105370001346002B2746C0F240820C9300238B4635
:105380001D9326F020030693612E00F01783412E13
:105390007FF473AD22AA58460C9903F0B3FA0022A9
:1053A0004FF07F53FBF706F902460B46CDE9102379
:1053B00000220023FBF766FB08B101232293544B24
:1053C0000C93089BCDE912A6CDE91E78DDE91067A4
:1053D000AB46DDF830A003F1FF39109506E000225E
:1053E000002309F1FF39FBF74DFBE8B90022494BD7
:1053F00030463946FBF7DEF80F460646FBF78AFBD8
:105400000446FBF76DF80B46024639463046FAF77C
:1054100019FF1AF80430B9F1FF3FD8464D46064649
:105420000F460BF8013BDAD13046394600223A4BA1
:10543000A946DDF848A0109DCDF84880CDE91001BF
:10544000DDF87C80139E1E9FFBF744FB002840F094
:105450004482DDE9100100222F4BFBF713FB10B152
:10546000E10700F13A824B46002B06DB3022013384
:105470005B440BF8012B5B45FBD1ABEB0503B94655
:1054800012930F9F1DE50799099828AA03F03AFB8C
:1054900000287EF4ECAEDDE9293222990DF1AC084A
:1054A000C2E6906D02F076F8FEF7B3BE229BDA1CDE
:1054B000109302DB089A934204DD023E26F020039B
:1054C000069308E5109B129A9342C0F2828119F06C
:1054D000010F00F0A882169A13440C9319F4806F00
:1054E00000F09082109B6726002B00F346810C9BF6
:1054F00023EAE373069300230F9313934BE52D22C6
:1055000000238DF883200893FEF7A0BF38B8000869
:1055100008B80008000030400000E03F129B4246FF
:10552000DDF84C80EB185E460893CDF830A010975C
:105530002146199FDDF87090DDF824A0DDF81CB03D
:105540000F9B1395B8F1000F2ED0002B6CD1013FAB
:1055500008F1FF381B9B4944C2E90039299B2A9175
:105560000133072B299363DC0832089B38789B1B97
:105570008342A8BF0346002B1C460ADD2998194424
:1055800001300728C2E900632A9129905BDC387852
:105590000832002CB4BF0546051B002D15DC06445F
:1055A0000F9BB8F1000FD0D1002B3DD1DDE91235B2
:1055B000EB189E42B346199790460C4628BF9B466F
:1055C000DDF830A0109FFFF7FDBA102D40F36F8279
:1055D0001024299804E0103D102D02F1080216DD78
:1055E0000130A84B10310728C2E90034CDE9290168
:1055F000F1DD5946504628AA03F084FA00287EF4CB
:1056000036AEDDE92901103D102D2BAAE8DC013072
:105610009C4B29440728CDE92901556013604EDCD5
:10562000387808320644BBE70F9B013B0F9391E7A4
:105630005946504628AA03F065FA00287EF417AEB2
:105640002A992BAA91E75946504628AA03F05AFAFC
:1056500000287EF40CAE38782A992BAA99E74546A3
:1056600090463A460C464F46914601333444072B48
:10567000CDE92934C8F80090C8F8046000F35D81D2
:1056800008F10808FFF798BA0799099828AA03F0C3
:1056900039FA00287EF4EBAD22992A9C0DF1AC0872
:1056A000FFF78CBB0799099828AA03F02BFA00286A
:1056B0007EF4DDAD2A9C0DF1AC08FFF774BA5946B3
:1056C000504628AA03F01EFA00287EF4D0AD3878A0
:1056D0002A992BAA064463E708990C9B01910321A0
:1056E000009126A9049123A9039122A95A46099859
:1056F000029100F085FB03780546302B00F0C08155
:10570000229B089AB94613440F9FEC185846002272
:1057100000230C99FBF7B6F910B12346FFF7CFBB76
:10572000269BA342BFF4CBAB30215A1C26921970A2
:10573000269B9C42F9D8FFF7C2BB0799099828AA73
:1057400003F0E0F900287EF492AD229B2A9C0DF133
:10575000AC08FFF74CBA229A002A109240F3B981A4
:10576000089909F001030B4340F040816626109B25
:105770000C9319F4806F3FF4BAAE19990B78FF2B94
:1057800000F0D6810024109A204604E00130013157
:10579000FF2B00F06481934280F26181D21A4B7832
:1057A000002BF3D10B780134F2E7DDE92921FFF773
:1057B00064B9089B9DF883200E9406930C9308907F
:1057C0000F9013901090FEF73EBE00230893FEF753
:1057D0008ABC129B169A9A18109B0C92002B40F3CD
:1057E0005D816726C5E70799099828AA03F08AF919
:1057F00000283EF4E8ADFEF740BD26F020030693F6
:105800002D22DDE914349B4604F100431D920C93D4
:10581000BAE50799099828AA03F074F900287EF4DC
:1058200026AD229D129B2A9C0DF1AC085D1BFFF753
:10583000F6B94E42103180F2818141461024A846CB
:10584000DFF84090DDF824B0079D04E00831103EF9
:10585000102E40F3998001331032072BC1E90094D8
:10586000CDE92932F2DD2946584628AA03F04AF943
:1058700000287EF4FCACDDE929322BA9E7E7299B5F
:10588000FFF762B938B80008079B5B6EDD0707D4E5
:10589000079B9B899C0503D4079B986D01F07AFEBA
:1058A0004FF0FF330B93FEF7F1BC089BEC182DE78C
:1058B0000221009108995A464C1C26A9049123A95B
:1058C000039122A90C9B09980194029100F098FA87
:1058D0000546B9462C440F9F18E7129B26930C9B54
:1058E0001BF8012CD97B5B468A4209D1302003F892
:1058F000010C269B5A1E269213F8012C9142F6D0D9
:10590000392A0BBF0C9A0132927AD2B203F8012CD9
:10591000B3E5299ADFF83492FEF7DABF30238DF829
:105920008430782314E50998591C01F0DDFE054602
:10593000002800F0F6800D9015E50799099828AA2F
:1059400003F0E0F800287EF492AC2A9C0DF1AC083C
:10595000FFF732B9089B002B08BF0123089347F4D7
:1059600080730F93159B002BC0F2A980DDF850B017
:105970001D900C930D90FFF787BA0623089326F02D
:1059800020030693FFF76BBA45468846013332443D
:10599000072BCDE92932C8F80090C8F804607FF7DA
:1059A00022AA0799099828AA03F0ACF800287EF4E7
:1059B0005EACDDE929320DF1AC0838E422AA584684
:1059C0000C9902F09FFF00224FF07F53FAF7F2FD8F
:1059D00002460B46CDE9102300220023FBF752F8C4
:1059E00008B1012322935A4B0C93EAE4169B6626D6
:1059F000D31819440C91BCE606F10F020121D2B272
:105A0000FFF772BA672672E500295FD130228DF860
:105A100092200DF19302303302F8013B24ABD31AEC
:105A20001A93FFF7A1BA109B0C9357E5159B03201F
:105A3000002BB8BF2D224FF00003A8BF9DF8832094
:105A400019460D93434D444BB8BF8DF8832027F082
:105A500080070690FEF7EFBC00230D93D0E6199166
:105A6000109213900F940F9A139B1C9913440C9A45
:105A700001FB03230C9323EAE3730693FFF78BBA2E
:105A80005846002200230C99FAF7FCFF00287FF407
:105A900037AE089BC3F10103229332E6C3F1010341
:105AA0001A4422EAE27367260C92069323E52998AA
:105AB000ADE519F0010F3FF462AAFFF75CBA0D9053
:105AC0009EE6299BDFF88490FFF751BB0DF192020F
:105AD000A1E7089A09F0010959EA020304D1012358
